:020000040000FA
:04000000AAEF40F033
:04000800C9EF3CF010
:08001800E3EF3BF0D9CFE5FF57
:10002000E1CFD9FF00C0E5FF01C0E5FF02C0E5FF59
:1000300003C0E5FF04C0E5FF05C0E5FF0A01A56BAD
:100040000A0E016EA70E006E800E026E0250E56E63
:100050000150E56E0050E56E0BEC39F0030EE12621
:10006000A7CA00F0016A0050020A02E1015002E052
:100070003AEF03F00F0E006E0A0E026EA70E016E2D
:10008000800E036E0350E56E0250E56E0150E56E82
:100090000BEC39F0030EE12600060050EDE10801FB
:1000A0005BA516D0040E006E0A0E026EA70E016E3E
:1000B000800E036E0350E56E0250E56E0150E56E52
:1000C0000BEC39F0030EE12600060050EDE116D0EE
:1000D000080E026E680E016E800E036E000EE56E55
:1000E000040EE56E0350E56E0250E56E0150E56EBC
:1000F00083EC31F0050EE12608017481080E006ED4
:100100000A0E026EA70E016E800E036E0350E56E9E
:100110000250E56E0150E56E0BEC39F0030EE1265E
:1001200000060050EDE1016A01C002F0036A000E12
:10013000035C02E1060E025C24E20A0E036EA70EC7
:10014000026E800E046E0450E56E0350E56E0250A0
:10015000E56E0BEC39F0030EE1262D0E0124026E44
:10016000036A0E0E032202C0E9FF03C0EAFFEFCFCD
:1001700002F00A01A751021802E071EF03F0012A10
:10018000D3D7CE0E006E0A0E026EA70E016E800E41
:10019000036E0350E56E0250E56E0150E56E0BEC08
:1001A00039F0030EE12600060050EDE1016A0A0E67
:1001B000036EA70E026E800E046E0450E56E0350AF
:1001C000E56E0250E56E0BEC39F0026E030EE1268F
:1001D0000250D8B43AEF03F0A7CA02F0036A025003
:1001E000010A03E1035001E158D00250030A03E180
:1001F000035001E19CD00250330A03E1035001E1B6
:100200005AD10250350A02E103500EE00250360A7C
:1002100003E1035001E1F2D00250FF0A03E1035071
:1002200001E146D107EF03F00A0E036EA70E026E3E
:10023000800E046E0450E56E0350E56E0250E56ECC
:100240000BEC39F0030EE126A7CA02F0036A025054
:10025000010A02E1035002E071EF03F00A0E036E9F
:10026000A50E026E800E046E0450E56E0350E56E1E
:100270000250E56E0BEC39F0030EE12608015BA598
:1002800036EF03F0A5CA02F0036A0250020A04E145
:10029000035002E171EF03F0E9D10A0E036EA70EDD
:1002A000026E800E046E0450E56E0350E56E02503F
:1002B000E56E0BEC39F0030EE126A7CA02F0036AE3
:1002C0000250040A02E1035002E071EF03F008015A
:1002D0005BA516D0040E006E0A0E036EA70E026E0A
:1002E000800E046E0450E56E0350E56E0250E56E1C
:1002F0000BEC39F0030EE12600060050EDE1B6D11B
:10030000080E036E700E026E800E046E000EE56E17
:10031000040EE56E0450E56E0350E56E0250E56E86
:1003200083EC31F0050EE126080174859FD10A0E99
:10033000036EA60E026E800E046E0450E56E03502E
:10034000E56E0250E56E0BEC39F0030EE126A6CA0D
:1003500002F0036A000E035C02E1040E025CD8A006
:10036000C0D108015BA516D0040E006E0A0E036E04
:10037000A70E026E800E046E0450E56E0350E56E0B
:100380000250E56E0BEC39F0030EE126000600503A
:10039000EDE116D0080E036E6C0E026E800E046E38
:1003A000000EE56E040EE56E0450E56E0350E56E3A
:1003B0000250E56E83EC31F0050EE12608017483EE
:1003C000FC0E0A01A627A6CA02F002C003F002062C
:1003D00002C0A6FA0350D8B444D10A0E046EA70E88
:1003E000036E800E056E0550E56E0450E56E0350F9
:1003F000E56E0BEC39F0030EE126E7D70A0E046E2A
:10040000A70E036E800E056E0550E56E0450E56E76
:100410000350E56E0BEC39F0030EE126A7CA03F09A
:10042000046A0350040A02E1045001E05AD10A0EA2
:10043000046E230E036E800E056E0550E56E0450AB
:10044000E56E0350E56E0BEC39F0030EE1260A0E63
:10045000046E220E036E800E056E0550E56E04508C
:10046000E56E0350E56E0BEC39F0030EE1260A0E43
:10047000046E210E036E800E056E0550E56E04506D
:10048000E56E0350E56E0BEC39F0030EE1260A0E23
:10049000046E200E036E800E056E0550E56E04504E
:1004A000E56E0350E56E0BEC39F0030EE126DED06D
:1004B000010E016EDBD00A0E046EA70E036E800ED5
:1004C000056E0550E56E0450E56E0350E56E0BECCD
:1004D00039F0030EE126A7CA03F0046A0350040AA8
:1004E00002E1045001E0FDD008015BA515D0040E27
:1004F000006E0A0E046EA70E036E800E056E055088
:10050000E56E0450E56E0350E56E0BEC39F0030E1A
:10051000E126002EEED7AAD0080E036E630E006E01
:10052000800E046E0450E56E0350E56E0050E56EDB
:100530000BEC39F0030EE126080E036E620E006E1E
:10054000800E046E0450E56E0350E56E0050E56EBB
:100550000BEC39F0030EE126080E036E610E006EFF
:10056000800E046E0450E56E0350E56E0050E56E9B
:100570000BEC39F0030EE126080E036E600E006EE0
:10058000800E046E0450E56E0350E56E0050E56E7B
:100590000BEC39F0030EE126080160390F0B006EF9
:1005A00008016139036EF00B031A00260332003292
:1005B00008016251E838E840F80B0312080162397B
:1005C0000F0B046E08016339056EF00B051A042643
:1005D0000532043200500801605D006E03500801CE
:1005E0006159036E045008016259046E05500801F8
:1005F0006359056E00500801606F03500801616F78
:1006000004500801626F05500801636F2FD00A0E75
:10061000036EA60E006E800E046E0450E56E03504D
:10062000E56E0050E56E0BEC39F0030EE126A6CA2C
:1006300000F000C003F0000600C0A6FA035014E06A
:100640000A0E046EA70E036E800E056E0550E56E51
:100650000450E56E0350E56E0BEC39F0030EE12615
:10066000E8D702C0A6FA02D000C0A6FA0150D8B45A
:10067000D7EF00F0A5CA00F0016A0050020A16E1A7
:10068000015001E013D00A0120510801646F0A01F2
:1006900021510801656F0A0122510801666F0A01A4
:1006A00023510801676F08015B8516D0080164516A
:1006B0000A0120190FE1080165510A0121190AE117
:1006C000080166510A01221905E1080167510A0172
:1006D000231902E00A01A56BC7EC3FF00A01A551FE
:1006E00003D0C7EC3FF0E86AE4CF05F0E4CF04F0B4
:1006F000E4CF03F0E4CF02F0E4CF01F0E4CF00F068
:10070000E4CFD9FF1200D9CFE5FFE1CFD9FF00C078
:10071000E5FF01C0E5FF02C0E5FF03C0E5FF04C03F
:10072000E5FF05C0E5FF06C0E5FF07C0E5FF08C01F
:10073000E5FF006A00C001F0026A000E025C02E1FF
:10074000010E015CD8B0E3EF06F0006A5AC801F070
:100750000D0E015CD8B0E0EF06F009C0E5FF0AC05D
:10076000E5FF0A6A01340A36E8340A36FC0B096EE2
:10077000000EFB6E070EFA6E900E09260A50FA2242
:10078000D8B0FB2A0950E4CF0AF0E4CF09F0F96EA3
:10079000E2EF03F0E4EF03F007EF04F078EF04F08A
:1007A000BFEF04F00AEF05F0B1EF05F036EF06F009
:1007B0006CEF06F036EF06F06CEF06F036EF06F061
:1007C0006CEF06F0E0EF06F0000EE56E430EE56E0E
:1007D000000EE56E000EE56E000EE56E000EE56E95
:1007E000440EE56E39EC18F0016E070EE12601505B
:1007F0000801596F59C801F0026A0150FF0A04E16B
:10080000025002E1E0EF06F0020E08015A6F3C0EC2
:100810000801606F0801616B0801626B0801636B7E
:100820000801746B08015B9108015B9576EC3EF062
:10083000016E0150D8B4E0EF06F008015951E56EA1
:100840003AEC38F0016EF3CF02F0E12A010E025CBF
:1008500002E12C0E015CD8A0E0EF06F0016A08016D
:100860005BB9012A010E011A0150010BE838F46E40
:1008700008015B51EF0BF41008015B6F080159513F
:100880000E0DF3CF01F0026A600E0126000E022267
:10089000000EE56E0A0EE56EFF0EE56E0250E56E87
:1008A0000150E56EB0EC33F0050EE126000EE56E6A
:1008B000010EE56E86EC0AF0020EE12602EC40F035
:1008C000016EF3CF02F0F4CF03F0E9CF04F0015052
:1008D00008015C6F025008015D6F035008015E6FF4
:1008E000045008015F6F030E08015A6FE0EF06F035
:1008F00008015951E56E49EC3BF0016EF3CF02F06F
:10090000E12A000E025C02E1FA0E015C28E202EC30
:1009100040F0016EF3CF02F0F4CF03F0E9CF04F022
:1009200008015C51015E08015D51025A08015E51E7
:10093000035A08015F51045A000E045C08E1010EDD
:10094000035C05E13D0E025C02E1E40E015CD8A00F
:10095000E0EF06F0020E08015A6FE0EF06F0080122
:100960005B870EEC00F0016E026A0150020A02E1A0
:10097000025002E0E0EF06F0040E08015A6F080191
:100980005951E56E3AEC38F0016EF3CF02F0E12AEE
:10099000010E025C02E1020E015CD8A0E0EF06F05D
:1009A000080159510E0DF3CF01F0026A600E0126C5
:1009B000000E0222000EE56E0A0EE56EFF0EE56ED9
:1009C0000250E56E0150E56EB0EC33F0050EE12605
:1009D000000EE56E030EE56E86EC0AF0020EE126CF
:1009E00002EC40F0016EF3CF02F0F4CF03F0E9CF58
:1009F00004F0015008015C6F025008015D6F035064
:100A000008015E6F045008015F6F050E08015A6F00
:100A1000E0EF06F008015951E56E49EC3BF0016E3C
:100A2000F3CF02F0E12A000E025C02E1FA0E015C53
:100A300026E202EC40F0016EF3CF02F0F4CF03F0B7
:100A4000E9CF04F008015C51015E08015D51025AD2
:100A500008015E51035A08015F51045A000E045CFC
:100A600008E1010E035C05E13D0E025C02E1E40ECB
:100A7000015CD8A0A5D1020E08015A6FA1D10EECDD
:100A800000F0016E026A0150050A02E1025007E01F
:100A90000150060A03E1025001E15FD091D1080143
:100AA0005951E56E82EC38F0E12A0801596902ECEF
:100AB00040F0016EF3CF02F0F4CF03F0E9CF04F081
:100AC000015008015C6F025008015D6F035008017E
:100AD0005E6F045008015F6F060E08015A6F08012F
:100AE0005B8308015B81080174A110D00801685183
:100AF0000E01006F080169510E01016F08016A5172
:100B00000E01026F08016B510E01036F080174A5FD
:100B100010D0080170510E01046F080171510E01CF
:100B2000056F080172510E01066F080173510E0125
:100B3000076F080174A344D108016C510E01086FBE
:100B400008016D510E01096F08016E510E010A6F07
:100B500008016F510E010B6F33D1020E08015A6F5D
:100B60002FD102EC40F0016EF3CF02F0F4CF03F08E
:100B7000E9CF04F05CC805F05DC806F05EC807F078
:100B80005FC808F00550015E0650025A0750035A2C
:100B90000850045A000E045C08E1000E035C05E1F5
:100BA0009E0E025C02E1F20E015CD8A009D160C881
:100BB00001F061C802F062C803F063C804F0000EDF
:100BC000045C08E1000E035C05E1000E025C02E13A
:100BD000020E015C29E3F20E05269E0E0622000E8F
:100BE0000722000E0822055008015C6F065008011C
:100BF0005D6F075008015E6F085008015F6FFF0EC0
:100C00000126FF0E0222FF0E0322FF0E04220150D6
:100C10000801606F02500801616F03500801626FA4
:100C200004500801636FCCD0000EE56E430EE56EF4
:100C3000000EE56E000EE56E000EE56E000EE56E30
:100C4000440EE56E39EC18F0016E070EE1260150F6
:100C50000801596F59C801F0026A0150FF0A03E107
:100C6000025001E1ADD0070E08015A6F0801595139
:100C7000E56E3AEC38F0016EF3CF02F0E12A010E96
:100C8000025C02E1020E015CD8A09AD0010EE56E72
:100C9000030EE56E86EC0AF0020EE12608015B9574
:100CA00002EC40F0016EF3CF02F0F4CF03F0E9CF95
:100CB00004F0015008015C6F025008015D6F0350A1
:100CC00008015E6F045008015F6F5AC801F0012AE5
:100CD000015008015A6F74D008015951E56E49EC72
:100CE0003BF0016EF3CF02F0E12A000E025C02E15C
:100CF000FA0E015C30E202EC40F0016EF3CF02F03C
:100D0000F4CF03F0E9CF04F008015C51015E080163
:100D10005D51025A08015E51035A08015F51045A9D
:100D2000000E045C08E1010E035C05E13D0E025C6F
:100D300002E1E40E015CD8A043D008015A29016EFB
:100D4000015008015A6F0D0E015CD8A039D0020E77
:100D500008015A6F35D00EEC00F0016E026A0150A6
:100D6000050A02E1025006E00150060A29E102509C
:100D700024E026D008015951E56E82EC38F0E12AD2
:100D80000801596902EC40F0016EF3CF02F0F4CF94
:100D900003F0E9CF04F0015008015C6F0250080134
:100DA0005D6F035008015E6F045008015F6F060E0F
:100DB00008015A6F08015B8303D0020E08015A6FC5
:100DC000002A9AEF03F0E4CF08F0E4CF07F0E4CF75
:100DD00006F0E4CF05F0E4CF04F0E4CF03F0E4CF75
:100DE00002F0E4CF01F0E4CF00F0E4CFD9FF12002D
:100DF000D9CFE5FFE1CFD9FF00C0E5FF01C0E5FF96
:100E000002C0E5FF03C0E5FF04C0E5FF05C0E5FF44
:100E100006C0E5FF07C0E5FF08C0E5FF09C0E5FF24
:100E20000AC0E5FF0BC0E5FF0CC0E5FF020EDBCFFB
:100E300000F0030EDBCF01F00A01286B0A01296BD9
:100E40000A012A6B0A012B6B0A01286B0A01296B24
:100E50000A012A6B0A012B6B0A01286B0A01296B14
:100E60000A012A6B0A012B6B0A01286B0A01296B04
:100E70000A012A6B0A012B6B0A01286B0A01296BF4
:100E80000A012A6B0A012B6B0A01286B0A01296BE4
:100E90000A01286B0A01296B0A01286B0A01296BD8
:100EA0000A0128910A0128930A0128950A01289726
:100EB0000A0128990A01289B0A01289D0A01289FF6
:100EC0000A0129910A0129930A0129950A01299702
:100ED0000A0129990A01299B0A01299D0A01299FD2
:100EE0000A012A6B0A012B6B0A012A6B0A012B6B80
:100EF0000A012A6B0A012B6B0A012A910A012A9323
:100F00000A012A950A012A970A012A990A012A9BAD
:100F10000A012A9D0A012A9F0A012B910A012B939B
:100F20000A012B950A012B970A012B990A012B9B89
:100F30000A012B9D0A012B9F0A0128910A0128937F
:100F40000A0128950A0128970A0128990A01289B75
:100F50000A01289D0A01289F0A0129910A01299363
:100F60000A0129950A0129970A0129990A01299B51
:100F70000A01299D0A01299F0A012A910A012A933F
:100F80000A012A950A012A970A012A990A012A9B2D
:100F90000A012A9D0A012A9F0A012B910A012B931B
:100FA0000A012B950A012B970A012B990A012B9B09
:100FB0000A012B9D0A012B9F7BCF02F0036A02508E
:100FC000056E046A7ACF02F0036A045002120550DB
:100FD000031200500110D8B47DD0000E015C02E174
:100FE000150E005C04E3140E046E056A04D000C004
:100FF00004F001C005F004C079FA05C07AFA080EC1
:10100000076E8E0E066E800E086E0550E56E04505B
:10101000E56E0850E56E0750E56E0650E56EF5EC9E
:1010200031F0050EE1260450005E0550015A0A0118
:1010300079A113D08E0E0A017925046E080E0A01DB
:101040007A21056E04C0E9FF05C0EAFF000EEF6ECD
:101050000A01792B02E30A017A2B080E056E8E0E27
:10106000046E800E066E79CA07F07ACA08F007503F
:101070000810D8B4AED704C0E9FF05C0F3FF06508E
:1010800087EC3FF0096EF3CF0AF0020E0426000E43
:101090000522000E06220B6A0C6A0A012851092655
:1010A0000A0129510A220A012A510B220A012B5155
:1010B0000C2209500A01286F0A500A01296F0B50AF
:1010C0000A012A6F0C500A012B6FFE0E0726D8A0CA
:1010D0000806CDD70250006E016A00507A6E0350A8
:1010E000026E036A036A02507B6E28CA00F029CAA6
:1010F00001F0026A036A2ACA04F02BCA05F0066AE4
:10110000076A0450002605500122065002220750AB
:10111000032200500A01286F01500A01296F025072
:101120000A012A6F03500A012B6F0A012A510A0192
:101130002825006E0A012B510A012921016E005059
:101140000A01286F01500A01296F0A01281D006E4B
:101150000A01291D016E01C0F3FF0050E4CF0CF01D
:10116000E4CF0BF0E4CF0AF0E4CF09F0E4CF08F0CD
:10117000E4CF07F0E4CF06F0E4CF05F0E4CF04F0CD
:10118000E4CF03F0E4CF02F0E4CF01F0E4CF00F0CD
:10119000E4CFD9FF1200D9CFE5FFE1CFD9FF00C0DE
:1011A000E5FF01C0E5FF02C0E5FF03C0E5FF04C0A5
:1011B000E5FF05C0E5FF06C0E5FF07C0E5FF08C085
:1011C000E5FF09C0E5FF0AC0E5FF0BC0E5FF0CC065
:1011D000E5FF0DC0E5FF0EC0E5FF0FC0E5FF10C045
:1011E000E5FF11C0E5FF12C0E5FF13C0E5FF14C025
:1011F000E5FF15C0E5FF16C0E5FF17C0E5FF18C005
:10120000E5FF19C0E5FF1AC0E5FF1BC0E5FF020EB0
:10121000DBCF00F0030EDBCF01F0040EDBCF02F0DA
:10122000050EDBCF03F0060EDBCF04F0070EDBCF9D
:1012300005F0080EDBCF06F0090EDBCF07F00A0E33
:10124000DBCF08F0FF0E096E000E0B6E600E0A6E0B
:10125000800E0C6E0D6A0050020F0E6E000E012003
:101260000F6E000E0220106E0EC0E9FF0FC0F3FFDC
:10127000105087EC3FF00E6EF3CF0FF00AC010F065
:101280000BC011F00CC012F0136A13C014F0156AF1
:10129000000E155C02E10A0E145CD8B0B4D01050F8
:1012A0000C0F146E000E1120156E000E1220166E1B
:1012B00014C0E9FF15C0F3FF165087EC3FF0146E21
:1012C000F3CF15F014500E1803E115500F1801E07C
:1012D00090D010500A0F146E000E1120156E000EE3
:1012E0001220166E14C0E9FF15C0F3FF165087ECEC
:1012F0003FF0146EF3CF15F000C0E9FF01C0F3FF1B
:10130000025087EC3FF0166EF3CF17F0145016180A
:1013100003E11550171801E06AD010C0E9FF11C0B1
:10132000F3FF1250FBEC3EF0146EF3CF15F0F4CF48
:1013300016F0E9CF17F003C0E9FF04C0F3FF055032
:10134000FBEC3EF0186EF3CF19F0F4CF1AF0E9CFB2
:101350001BF0145018180AE11550191807E116501F
:101360001A1804E117501B1801E13FD006C0E9FF2D
:1013700007C0F3FF0850FBEC3EF0146EF3CF15F0FE
:10138000F4CF16F0E9CF17F01450FF0A09E1155019
:10139000FF0A06E11650FF0A03E11750FF0A25E095
:1013A0000E01041D186E0E01051D196E0E01061D9D
:1013B0001A6E0E01071D1B6E0E01005118120E0150
:1013C000015119120E0102511A120E0103511B1282
:1013D0001450181809E11550191806E116501A187A
:1013E00003E117501B1801E002D00D5054D013C078
:1013F00009F00E0E1026000E1122000E1222132AE2
:1014000013C00DF042D709C006F0076A0650FF0A64
:1014100003E1075001E13ED009500E0DF3CF06F075
:10142000076A600E0626000E072207500B6E065054
:101430000A6E800E0C6E000EE56E0A0EE56E05500B
:10144000E56E0450E56E0350E56E0C50E56E0B50F2
:10145000E56E0A50E56E95EC2FF0080EE1260A0EB7
:101460000A26000E0B22000E0C2200C0E9FF01C06C
:10147000F3FF025087EC3FF0006EF3CF01F000C0A5
:10148000E5FF01C0F4FF0AC0E9FF0BC0F3FF0C50F9
:10149000B6EC40F00950E4CF1BF0E4CF1AF0E4CFF3
:1014A00019F0E4CF18F0E4CF17F0E4CF16F0E4CF52
:1014B00015F0E4CF14F0E4CF13F0E4CF12F0E4CF52
:1014C00011F0E4CF10F0E4CF0FF0E4CF0EF0E4CF52
:1014D0000DF0E4CF0CF0E4CF0BF0E4CF0AF0E4CF52
:1014E00009F0E4CF08F0E4CF07F0E4CF06F0E4CF52
:1014F00005F0E4CF04F0E4CF03F0E4CF02F0E4CF52
:1015000001F0E4CF00F0E4CFD9FF1200D9CFE5FF1E
:10151000E1CFD9FF00C0E5FF01C0E5FF02C0E5FF54
:1015200003C0E5FF04C0E5FF05C0E5FF06C0E5FF19
:1015300007C0E5FF08C0E5FF020EDBCF00F0030E99
:10154000DBCF01F0010EE56E5CEC37F0E12A010E15
:10155000E56E5CEC37F0E12A060EE56E5CEC37F0E8
:10156000E12A000EE56E5CEC37F0E12A120EE56E22
:101570005CEC37F0E12A230EE56E5CEC37F0E12AF3
:10158000340EE56E5CEC37F0E12A560EE56E5CEC4D
:1015900037F0E12A000EE56E5CEC37F0E12A000E30
:1015A000E56E5CEC37F0E12A08015BA902D0026A23
:1015B00002D0800E026E0250E56E5CEC37F0E12A3C
:1015C000000EE56E5CEC37F0E12A00C002F0036A21
:1015D000046A0250030A03E1035001E1042A0450A3
:1015E00017E0015015E0080E066E680E056E800EBD
:1015F000076E000EE56E040EE56E0750E56E0650B0
:10160000E56E0550E56E98EC30F0050EE12614D03D
:10161000000EE56E5CEC37F0E12A000EE56E5CEC46
:1016200037F0E12A000EE56E5CEC37F0E12A000E9F
:10163000E56E5CEC37F0E12A0C0E056E000EE56EEF
:101640005CEC37F0E12A05060550F8E10E0E076E56
:101650002D0E066E800E086E000EE56E060EE56E0F
:101660000850E56E0750E56E0650E56E98EC30F0D8
:10167000050EE126CA0E056E000EE56E5CEC37F035
:10168000E12A052EF9D7630EE56E5CEC37F0E12A0E
:10169000820EE56E5CEC37F0E12A530EE56E5CECF1
:1016A00037F0E12A630EE56E5CEC37F0E12A350E87
:1016B000E56E5CEC37F0E12A010EE56E5CEC37F08C
:1016C000E12A0050E56E5CEC37F0E12A006A025036
:1016D000010A03E1035001E1002A005002E0080181
:1016E0005B95045024E0015022E1360EE56E5CEC7F
:1016F00037F0E12A040EE56E5CEC37F0E12A0801D0
:101700006751E56E5CEC37F0E12A08016651E56E41
:101710005CEC37F0E12A08016551E56E5CEC37F0CE
:10172000E12A08016451E56E5CEC37F0E12A370EDE
:10173000E56E5CEC37F0E12A040EE56E5CEC37F008
:10174000E12A010EE56E5CEC37F0E12A030EE56E4E
:101750005CEC37F0E12A060EE56E5CEC37F0E12A2E
:101760000C0EE56E5CEC37F0E12A045002E001500B
:101770000BE0005027E008016851080169110801D9
:101780006A1108016B111EE0320EE56E5CEC37F059
:10179000E12A040EE56E5CEC37F0E12A080E026ED9
:1017A000680E006E800E036E000EE56E040EE56E90
:1017B0000350E56E0250E56E0050E56E98EC30F097
:1017C000050EE126FF0EE56E5CEC37F0E12A010E16
:1017D0000A019A5D03E12C0E0A01995D06E2000EF2
:1017E000E56E5CEC37F0E12AF2D70E0100510A01F8
:1017F000246F0E0101510A01256F0E0102510A01E9
:10180000266F0E0103510A01276F015008E10E01F6
:10181000006B0E01016B0E01026B0E01036B15ECE8
:1018200014F00A0124510E01006F0A0125510E0126
:10183000016F0A0126510E01026F0A0127510E01A4
:10184000036FE4CF08F0E4CF07F0E4CF06F0E4CF75
:1018500005F0E4CF04F0E4CF03F0E4CF02F0E4CFEE
:1018600001F0E4CF00F0E4CFD9FF1200D9CFE5FFBB
:10187000E1CFD9FF00C0E5FF01C0E5FF02C0E5FFF1
:1018800003C0E5FF04C0E5FF05C0E5FF06C0E5FFB6
:1018900007C0E5FF020EDBCF7BFA030EDBCF7CFA3D
:1018A000040EDBCF7DFA050EDBCF7EFA060EDBCF12
:1018B00000F0070EDBCF01F0026A036A0A017CAF79
:1018C00013D0010E026EE3CE04F0056A0450076ED9
:1018D000066AE2CE04F0056A045006100A017B6F26
:1018E000055007100A017C6F0A017EAF13D0010E6C
:1018F000036E7BCF04F0056A0450076E066A7ACF48
:1019000004F0056A045006100A017D6F05500710A7
:101910000A017E6F000E015C02E1020E005CD8B08D
:101920007CD07BCF04F0056A0450076E066A7ACF3C
:1019300004F0056A045006120550071206500A0109
:101940007F6F07500A01806FE3CE04F0056A0450F0
:10195000076E066AE2CE04F0056A045006120550CE
:10196000071206500A01816F07500A01826F0A01AF
:101970007D51046E056A04507A6E0A017E51046E30
:10198000056A056A04507B6E0A017B51046E056A84
:1019900004500E01E26F0A017C51046E056A056A6B
:1019A00004500E01E36F00C004F001C005F004C054
:1019B00006F005C007F0FF0E0426D8A00506065065
:1019C000071009E0E0EC40F0066E0650E56EC2EC50
:1019D00040F0E12AECD703500DE10A017F51046E7B
:1019E000056A04507A6E0A018051046E056A056A20
:1019F00004507B6E0250D8A4D5D00A018151046EE8
:101A0000056A04500E01E26F0A018251046E056AF4
:101A1000056A04500E01E36FC5D0025023E0005068
:101A20000A017B25026E01500A017C21046E0250DE
:101A30000A01816F04500A01826F81CAE8FF82CADD
:101A4000E8FF0250056E066A05500E01E26F81CA7A
:101A5000E8FF82CAE8FF0450026E046A046A02507A
:101A60000E01E36F0A017D51FF0F026EFF0E0A01A6
:101A70007E21046E0250002604500122D2BAFED705
:101A80000A017D51026E046A02500E01F06F0A01D4
:101A90007E51026E046A046A02500E01F16F0A015F
:101AA0007B51026E046A02500E01F46F0A017C51F0
:101AB000026E046A046A02500E01F56F7DCA02F0DC
:101AC0007ECA04F0056A066A000E065C08E1000E94
:101AD000055C05E11A0E045C02E10A0E025C026A72
:101AE000023602501EE100C004F001C005F0066A93
:101AF000076A000E075C08E1000E065C05E11A0E9D
:101B0000055C02E10A0E045C0CE3F60E0426E50E09
:101B10000522FF0E0622FF0E07220450006E05501C
:101B2000016E0050046E056A04500E01F26F015000
:101B3000046E056A056A04500E01F36FD298D28ACA
:101B4000D2BAFED703502EE0002AD8B0012A0250A4
:101B50001EE100C002F001C003F0046A056A000E35
:101B6000055C08E1000E045C05E11A0E035C02E16D
:101B70000A0E025C0CE3F60E0226E50E0322FF0EAF
:101B80000422FF0E05220250006E0350016E005029
:101B9000026E036A02507A6E0150006E016A016A99
:101BA00000507B6EE4CF07F0E4CF06F0E4CF05F001
:101BB000E4CF04F0E4CF03F0E4CF02F0E4CF01F08F
:101BC000E4CF00F0E4CFD9FF1200D9CFE5FFE1CF99
:101BD000D9FF00C0E5FF01C0E5FF02C0E5FF03C07B
:101BE000E5FF04C0E5FF05C0E5FF06C0E5FF07C04F
:101BF000E5FF08C0E5FF09C0E5FF0AC0E5FF0BC02F
:101C0000E5FF0CC0E5FF0DC0E5FF0E012CAD47D090
:101C100076EC3EF0006E00500801821901E133D0ED
:101C200000C082F800502FE114CE00F015CE01F074
:101C300016CE02F017CE03F000500E01006F0150D7
:101C40000E01016F02500E01026F03500E01036F6F
:101C500018CE00F019CE01F01ACE02F01BCE03F020
:101C600000500E01046F01500E01056F02500E016D
:101C7000066F03500E01076F0E012C8F000EE56EEC
:101C80004EEC39F0E12A83EC03F0000EE56E34EC03
:101C900040F0006EE12A005002E00E012C9FCCECD7
:101CA00040F0C7EC3FF0080E016EF00E006E800EA3
:101CB000026E0A0E046EB50E036E800E056E0550A0
:101CC000E56E0450E56E0350E56E0250E56E01507E
:101CD000E56E0050E56EB0EC1CF0006E060EE126DD
:101CE0000050D8B4EAD0B5CA00F0016A005002E151
:101CF000015009E00050060A02E1015001E0D1D78D
:101D0000F9EC16F0CED70A0E016E400E006E800E72
:101D1000026E080E046EEC0E036E800E056E0A0E47
:101D2000076EB60E066E800E086E0A0E0A6E910ED3
:101D3000096E800E0B6E0B50E56E0A50E56E095071
:101D4000E56E0850E56E0750E56E0650E56E0550ED
:101D5000E56E0450E56E0350E56E0250E56E0150ED
:101D6000E56E0050E56E6AEC19F0006E0C0EE1268F
:101D70000050D8B496D7B6CA00F0016A0050010AE4
:101D800002E1015001E06DD040CA02F041CA03F007
:101D900042CA04F043CA05F000CE06F001CE07F0B7
:101DA00002CE08F003CE09F0025006180AE10350F3
:101DB000071807E10450081804E10550091801E16B
:101DC00039D00250FF0A09E10350FF0A06E104502E
:101DD000FF0A03E10550FF0A2DE00E01045106162B
:101DE0000E01055107160E01065108160E01075186
:101DF00009160E01041D0A6E0E01051D0B6E0E0163
:101E0000061D0C6E0E01071D0D6E0A5006120B50BA
:101E100007120C5008120D5009120250061809E161
:101E20000350071806E10450081803E1055009188B
:101E300001E037D7080E036EEC0E026E800E046EC2
:101E40000A019251E56E0A019151E56E0450E56E6A
:101E50000350E56E0250E56E35EC25F0050EE126E7
:101E600020D70050110A02E1015001E01AD7080EF4
:101E7000016EEC0E006E800E026E0A0E046E400EB5
:101E8000036E800E056E0A019251E56E0A019151B2
:101E9000E56E0550E56E0450E56E0350E56E0250A8
:101EA000E56E0150E56E0050E56EA0EC12F0006E9C
:101EB000080EE1260050D8B4F4D6E4CF0DF0E4CFFC
:101EC0000CF0E4CF0BF0E4CF0AF0E4CF09F0E4CF5C
:101ED00008F0E4CF07F0E4CF06F0E4CF05F0E4CF5C
:101EE00004F0E4CF03F0E4CF02F0E4CF01F0E4CF5C
:101EF00000F0E4CFD9FF1200D9CFE5FFE1CFD9FF41
:101F000000C0E5FF01C0E5FF02C0E5FF03C0E5FF3B
:101F100004C0E5FF05C0E5FF06C0E5FF07C0E5FF1B
:101F200008C0E5FF020EDBCF00F0030EDBCF01F0AF
:101F3000040EDBCF02F0050EDBCF8DFA060EDBCFF1
:101F40008EFA0A01346B0A01356B0A01366B0A01FD
:101F5000376B0A01346B0A01356B0A01366B0A01D3
:101F6000376B0A01346B0A01356B0A01366B0A01C3
:101F7000376B0A01346B0A01356B0A01366B0A01B3
:101F8000376B0A01346B0A01356B0A01366B0A01A3
:101F9000376B0A01346B0A01356B0A01346B0A0195
:101FA000356B0A01346B0A01356B0A0134910A0161
:101FB00034930A0134950A0134970A0134990A01CD
:101FC000349B0A01349D0A01349F0A0135910A01AC
:101FD00035930A0135950A0135970A0135990A01A9
:101FE000359B0A01359D0A01359F0A01366B0A01AE
:101FF000376B0A01366B0A01376B0A01366B0A012F
:10200000376B0A0136910A0136930A0136950A01A7
:1020100036970A0136990A01369B0A01369D0A0154
:10202000369F0A0137910A0137930A0137950A0151
:1020300037970A0137990A01379B0A01379D0A0130
:10204000379F0A0134910A0134930A0134950A0139
:1020500034970A0134990A01349B0A01349D0A011C
:10206000349F0A0135910A0135930A0135950A0119
:1020700035970A0135990A01359B0A01359D0A01F8
:10208000359F0A0136910A0136930A0136950A01F5
:1020900036970A0136990A01369B0A01369D0A01D4
:1020A000369F0A0137910A0137930A0137950A01D1
:1020B00037970A0137990A01379B0A01379D0A01B0
:1020C000379FD8900A018E31046E0A018D31036E5C
:1020D00003C005F004C006F0FF0E0326D8A00406D6
:1020E000055006102BE000C0E9FF01C0F3FF0250CD
:1020F00087EC3FF0056EF3CF06F0020E0026000ECF
:102100000122000E0222076A086A0A0134510526DC
:102110000A01355106220A01365107220A013751B8
:10212000082205500A01346F06500A01356F075026
:102130000A01366F08500A01376FCAD70A018DA10C
:1021400023D000C0E9FF01C0F3FF025013EC40F0C0
:10215000006E016A026A036A0A01345100260A010C
:10216000355101220A01365102220A013751032258
:1021700000500A01346F01500A01356F02500A0104
:10218000366F03500A01376F34CA00F035CA01F0C8
:10219000026A036A36CA04F037CA05F0066A076A9B
:1021A0000450002605500122065002220750032247
:1021B00000500A01346F01500A01356F02500A01C4
:1021C000366F03500A01376F0A0136510A01342570
:1021D000006E0A0137510A013521016E00500A01D3
:1021E000346F01500A01356F0A01341D006E0A0177
:1021F000351D016E01C0F3FF0050E4CF08F0E4CFBD
:1022000007F0E4CF06F0E4CF05F0E4CF04F0E4CF2C
:1022100003F0E4CF02F0E4CF01F0E4CF00F0E4CF2C
:10222000D9FF1200D9CFE5FFE1CFD9FF00C0E5FF0C
:1022300001C0E5FF02C0E5FF03C0E5FF04C0E5FF04
:1022400005C0E5FF06C0E5FF07C0E5FF08C0E5FFE4
:1022500009C0E5FF0AC0E5FF0BC0E5FF0CC0E5FFC4
:102260000DC0E5FF020EDBCF00F0030EDBCF01F067
:10227000040EDBCF02F0050EDBCF03F0060EDBCF42
:1022800004F0070EDBCF05F0066A076A0A012C6B23
:102290000A012D6B0A012E6B0A012F6B00C0E9FFAA
:1022A00001C0F3FF025013EC40F0086E002AD8B0D2
:1022B000012AD8B0022A08C009F00850D8B4D0D0FA
:1022C00007C008F00A6A000E0A5C02E1040E085C0E
:1022D000D8B0C6D0D00E092606500CE109C008F0CF
:1022E0000A6A000E0A5C02E10A0E085CD8A09DD0C2
:1022F000E86A07D106C008F00A6A0850030A02E13A
:102300000A5001E044D00950FE0A02E0E86AF9D020
:10231000000E0A012F5D0BE1020E0A012E5D07E19E
:10232000050E0A012D5D03E1060E0A012C5D02E394
:10233000E86AE7D007C008F0072A0A6A0B6A035068
:10234000082604500A2205500B220A012E51640D62
:10235000F3CF0CF00A012D510A0DF3CF0DF00D5003
:102360000C260A012C510C260CC0E5FF08C0E9FF21
:102370000AC0F3FF0B50D6EC40F0066A0A012C6B42
:102380000A012D6B0A012E6B0A012F6B87D70950AA
:10239000FE0A01E03FD0000E0A012F5D0BE1020EA4
:1023A0000A012E5D07E1050E0A012D5D03E1060E0F
:1023B0000A012C5D02E3E86AA4D007C008F0072AEE
:1023C0000A6A0B6A0350082604500A2205500B22A1
:1023D0000A012E51640DF3CF0CF00A012D510A0DA4
:1023E000F3CF0DF00D500C260A012C510C260CC019
:1023F000E5FF08C0E9FF0AC0F3FF0B50D6EC40F040
:10240000066A0A012C6B0A012D6B0A012E6B0A0168
:102410002F6B44D709C008F00A6A000E0A5C02E17B
:102420000A0E085C02E3E86A6CD0062A0A012E5103
:102430000C6E0A012D510B6E0A012C510A6E086AAE
:1024400008500A012C6F0A500A012D6F0B500A0127
:102450002E6F0C500A012F6F09500A012C6F1ED7E6
:1024600009501EE009C000F0016A00502F0A02E185
:10247000015016E000500D0A02E1015011E0005039
:102480000A0A02E101500CE00050200A02E101506A
:1024900007E00050090A02E1015002E0E86A31D089
:1024A000000E0A012F5D0BE1020E0A012E5D07E10D
:1024B000050E0A012D5D03E1060E0A012C5D02E303
:1024C000E86A1FD0030E0326000E0422000E052228
:1024D0000A012E51640DF3CF00F00A012D510A0DAF
:1024E000F3CF01F0015000260A012C51002600C054
:1024F000E5FF03C0E9FF04C0F3FF0550D6EC40F050
:10250000010EE4CF0DF0E4CF0CF0E4CF0BF0E4CFFC
:102510000AF0E4CF09F0E4CF08F0E4CF07F0E4CF0D
:1025200006F0E4CF05F0E4CF04F0E4CF03F0E4CF0D
:1025300002F0E4CF01F0E4CF00F0E4CFD9FF1200C5
:10254000D9CFE5FFE1CFD9FF00C0E5FF01C0E5FF2E
:1025500002C0E5FF03C0E5FF04C0E5FF05C0E5FFDD
:1025600006C0E5FF07C0E5FF08C0E5FF09C0E5FFBD
:102570000AC0E5FF0BC0E5FF020EDBCF00F0030E43
:10258000DBCF01F0040EDBCF02F0050EDBCF03F052
:10259000060EDBCF04F0070EDBCF05F0080EDBCF15
:1025A00006F0090EDBCF07F00A019D6B0A019E6B56
:1025B0000A0E096E080E086E800E0A6E000EE56E99
:1025C000080EE56E0A50E56E0950E56E0850E56E9E
:1025D000F5EC31F0050EE1260A010951E56E0A011C
:1025E0000851E56E1EEC3DF0086EF3CF09F0020EC7
:1025F000E12608500A01086F09500A01096F0A0113
:102600000B51E56E0A010A51E56E1EEC3DF0086EB5
:10261000F3CF09F0020EE12608500A010A6F0950B3
:102620000A010B6F0A010D51E56E0A010C51E56EAE
:102630001EEC3DF0086EF3CF09F0020EE126F80E15
:102640000826D8A0090608500A010C6F09500A0193
:102650000D6F0A010E510A010F11D8B496D000C0B7
:10266000E9FF01C0F3FF0250FBEC3EF0086EF3CF30
:1026700009F0F4CF0AF0E9CF0BF008500801D66F4B
:1026800009500801D76F0A500801D86F0B50080194
:10269000D96F03C0E9FF04C0F3FF0550FBEC3EF027
:1026A000086EF3CF09F0F4CF0AF0E9CF0BF0085031
:1026B0000801DA6F09500801DB6F0A500801DC6F6E
:1026C0000B500801DD6F0801DE6B110E0801DF6F92
:1026D00006500801E06F07500801E16F0750E56EF2
:1026E0000650E56E1EEC3DF0086EF3CF09F0020EC9
:1026F000E12608500801E06F09500801E16F080E5B
:10270000096ED60E086E800E0A6E000EE56E0C0E77
:10271000E56E0A50E56E0950E56E0850E56E7CECFA
:102720000FF0086EF3CF09F0050EE126081E091E12
:1027300008500A014C6F09500A014D6F000EE56EFA
:10274000000EE56E71EC3CF0020EE1260750E56EDE
:102750000650E56EF8EC06F0066EF3CF07F0020EB9
:10276000E12606500A014E6F07500A014F6F0A0119
:102770004C510A014E1905E10A014D510A014F1948
:1027800004E0A7EC37F0E86A35D00A0E076E080EB1
:10279000066E800E086E0550E56E0450E56E03501F
:1027A000E56E0250E56E0150E56E0050E56E085092
:1027B000E56E0750E56E0650E56ECBEC08F0006E56
:1027C000090EE12600C001F0026A0150FF0A02E191
:1027D000025001E004D0A7EC37F0E86A0BD000C04B
:1027E00088F80CCA9DFA0DCA9EFA0A01B7810A013F
:1027F000B793010EE4CF0BF0E4CF0AF0E4CF09F079
:10280000E4CF08F0E4CF07F0E4CF06F0E4CF05F022
:10281000E4CF04F0E4CF03F0E4CF02F0E4CF01F022
:10282000E4CF00F0E4CFD9FF1200D9CFE5FFE1CF2C
:10283000D9FF00C0E5FF01C0E5FF02C0E5FF03C00E
:10284000E5FF04C0E5FF05C0E5FF06C0E5FF07C0E2
:10285000E5FF08C0E5FF0A01B8510E0DF3CF00F007
:10286000016A600E0026000E01220150016E005028
:10287000006E800E026E0A019951080F036E000E61
:102880000A019A21046E00500C0F056E000E012003
:10289000066E000E0220076E05C0E9FF06C0F3FFBA
:1028A000075087EC3FF0056EF3CF06F00650E56E5B
:1028B0000550E56E1EEC3DF0056EF3CF06F0020EFE
:1028C000E12605500A01006F06500A01016F005011
:1028D0000A0F056E000E0120066E000E0220076E24
:1028E00005C0E9FF06C0F3FF075087EC3FF0056E17
:1028F000F3CF06F00650E56E0550E56E1EEC3DF098
:10290000056EF3CF06F0020EE12605500A01026FB4
:1029100006500A01036F0450E56E0350E56E1EEC8D
:102920003DF0056EF3CF06F0020EE12605500A01D8
:10293000046F06500A01056F0A01066B0A01076B56
:102940000E0100510801CA6F0E0101510801CB6F41
:102950000E0102510801CC6F0E0103510801CD6F29
:1029600000C0E9FF01C0F3FF0250FBEC3EF0056E32
:10297000F3CF06F0F4CF07F0E9CF08F005500801D7
:10298000CE6F06500801CF6F07500801D06F085076
:102990000801D16F0801D26B110E0801D36F0350EB
:1029A0000801D46F04500801D56F0450E56E035040
:1029B000E56E1EEC3DF0056EF3CF06F0020EE1264B
:1029C00005500801D46F06500801D56F080E066E39
:1029D000CA0E056E800E076E000EE56E0C0EE56EDB
:1029E0000750E56E0650E56E0550E56E7CEC0FF085
:1029F000056EF3CF06F0050EE126051E061E0550F6
:102A00000A01066F06500A01076F1A0EE56E190ECD
:102A1000E56E90EC39F0020EE1260450E56E0350AD
:102A2000E56E110EE56E0250E56E0150E56E005048
:102A3000E56EA4EC21F0060EE1260A0E016E000EF2
:102A4000006E800E026E000EE56E080EE56E0250FE
:102A5000E56E0150E56E0050E56E11EC37F0050EA5
:102A6000E1261A0EE56E2D0EE56E14EC3AF0006EBE
:102A7000F3CF01F0020EE1260450E56E0350E56E3F
:102A8000F8EC06F00A019B6FF3CF9CFA020EE126E8
:102A90000150E56E0050E56E14EC3AF0020EE126AE
:102AA0001A0EE56E330EE56E90EC39F0020EE1265B
:102AB0000A0E016E9B0E006E800E026E000EE56E19
:102AC000020EE56E0250E56E0150E56E0050E56EB7
:102AD00011EC37F0050EE1267EEC3BF00A01996B14
:102AE0000A019A6BFF0E0801876FE4CF08F0E4CF6C
:102AF00007F0E4CF06F0E4CF05F0E4CF04F0E4CF34
:102B000003F0E4CF02F0E4CF01F0E4CF00F0E4CF33
:102B1000D9FF1200D9CFE5FFE1CFD9FF00C0E5FF13
:102B200001C0E5FF02C0E5FF03C0E5FF04C0E5FF0B
:102B300005C0E5FF06C0E5FF07C0E5FF08C0E5FFEB
:102B400009C0E5FF0AC0E5FF0BC0E5FF0CC0E5FFCB
:102B50000DC0E5FF0EC0E5FF0FC0E5FF10C0E5FFAB
:102B600011C0E5FF12C0E5FF13C0E5FF14C0E5FF8B
:102B700015C0E5FF16C0E5FF17C0E5FF18C0E5FF6B
:102B800019C0E5FF1AC0E5FF1BC0E5FF1CC0E5FF4B
:102B90001DC0E5FFC2CF00F0C0CF01F0D5CF02F0DD
:102BA000D6CF03F0D7CF04F0010EC26E3F0EC06E39
:102BB000880ED56E056A066A076A086A096A0A6A93
:102BC00070EC3DF00B6EF3CF0CF0F4CF0DF0E9CFCD
:102BD0000EF00F6AD76AD66AC2820400C2B2FED76C
:102BE000D6500A01876FD7500A01886F70EC3DF00C
:102BF000106EF3CF11F0F4CF12F0E9CF13F087CAC3
:102C000012F088CA13F0146A156A12500526135080
:102C100006221450072215500822000E085C08E115
:102C20009E0E075C05E1F20E065C02E11A0E055CE1
:102C3000D8A048D070EC3DF0126EF3CF13F0F4CF73
:102C400014F0E9CF15F070EC3DF0166EF3CF17F0ED
:102C5000F4CF18F0E9CF19F0183017301D6E1C6A48
:102C60001C321640800B1B6E1650E8407F0B1C1266
:102C70001A6A1A5012121B5013121C5014121D50B3
:102C8000151270EC3DF0166EF3CF17F0F4CF18F07C
:102C9000E9CF19F01640E840C00B1D6E1A6A1B6A96
:102CA0001C6A1A5012121B5013121C5014121D5081
:102CB000151212500B1A13500C1A14500D1A1550ED
:102CC0000E1A47D009500A01871905E10A500A0176
:102CD000881901E17FD70A018751095C126E0A0148
:102CE00088510A58136E1250102613501122126A7E
:102CF000136A1350E56E1250E56E1150E56E1050D8
:102D0000E56EEFEC3FF0040EE12687CA09F088CAB1
:102D10000AF00B500B260C360D360E3670EC3DF0DB
:102D2000106EF3CF11F0F4CF12F0E9CF13F013507F
:102D3000800F800F08E1000E125C05E1400E115C6F
:102D400002E1000E105C01E30B800F2A0F50D8A4A3
:102D500041D700C0C2FF01C0C0FF04C0D7FF03C0FD
:102D6000D6FF02C0D5FF0EC0E9FF0DC0F4FF0CC0B6
:102D7000F3FF0B50E4CF1DF0E4CF1CF0E4CF1BF0C9
:102D8000E4CF1AF0E4CF19F0E4CF18F0E4CF17F055
:102D9000E4CF16F0E4CF15F0E4CF14F0E4CF13F055
:102DA000E4CF12F0E4CF11F0E4CF10F0E4CF0FF055
:102DB000E4CF0EF0E4CF0DF0E4CF0CF0E4CF0BF055
:102DC000E4CF0AF0E4CF09F0E4CF08F0E4CF07F055
:102DD000E4CF06F0E4CF05F0E4CF04F0E4CF03F055
:102DE000E4CF02F0E4CF01F0E4CF00F0E4CFD9FF6C
:102DF0001200D9CFE5FFE1CFD9FF00C0E5FF01C048
:102E0000E5FF02C0E5FF03C0E5FF04C0E5FF05C024
:102E1000E5FF06C0E5FF07C0E5FF08017D5106E0BC
:102E200008017D51010A01E1C4D00FD1080E016EE5
:102E3000210E006E800E026E000EE56E1C0EE56E19
:102E40000250E56E0150E56E0050E56EF5EC31F094
:102E5000050EE126A7EC37F0080E016E210E006E7C
:102E6000800E026E0250E56E0150E56E0050E56E78
:102E7000F3EC29F0030EE12608012151010A03E1D8
:102E80000801225101E008D008012551060A04E199
:102E900008012651040A02E0010ED8D027C800F02C
:102EA00028C801F00050020A02E1015001E032D0CE
:102EB0000E0E036E790E026E800E046E080E066E04
:102EC000290E056E800E076E000EE56E060EE56E8D
:102ED0000750E56E0650E56E0550E56E0450E56E50
:102EE0000350E56E0250E56E95EC2FF0080EE126DA
:102EF00008012F510E01756F080130510E01766FD8
:102F0000080131510E01776F080132510E01786FBF
:102F1000010E9CD00050010A02E1015001E049D0AD
:102F2000080139510E0100190FE108013A510E0153
:102F300001190AE108013B510E01021905E10801DE
:102F40003C510E01031902E0010E80D008012F51FF
:102F50000801E26F080130510801E36F08013151A7
:102F60000801E46F080132510801E56F080E016E97
:102F7000E60E006E800E026E080E046E290E036EC1
:102F8000800E056E000EE56E060EE56E0550E56ED0
:102F90000450E56E0350E56E0250E56E0150E56E9B
:102FA0000050E56E95EC2FF0080EE126010E0801A9
:102FB0007D6F020E0801276F0801286B080E016E55
:102FC000330E006E800E026E080E046EE60E036E67
:102FD000800E056E000EE56E060EE56E0550E56E80
:102FE0000450E56E0350E56E0250E56E0150E56E4B
:102FF0000050E56E95EC2FF0080EE1260801E25135
:103000000801396F0801E35108013A6F0801E451E2
:1030100008013B6F0801E55108013C6F080E016E85
:10302000210E006E800E026E0250E56E0150E56EBC
:103030000050E56EB9EC1EF0006E030EE126005064
:1030400002E1E86A03D008017D6B010EE4CF07F0CE
:10305000E4CF06F0E4CF05F0E4CF04F0E4CF03F0D2
:10306000E4CF02F0E4CF01F0E4CF00F0E4CFD9FFE9
:103070001200D9CFE5FFE1CFD9FF00C0E5FF01C0C5
:10308000E5FF02C0E5FF03C0E5FF04C0E5FF05C0A2
:10309000E5FF06C0E5FF07C0E5FF08C0E5FF09C082
:1030A000E5FF0AC0E5FF0BC0E5FF0CC0E5FF0DC062
:1030B000E5FF0EC0E5FF0FC0E5FF10C0E5FF11C042
:1030C000E5FF12C0E5FF13C0E5FF020EDBCF00F005
:1030D000030EDBCF01F0040EDBCF02F0050EDBCFD9
:1030E00003F0060EDBCF04F0070EDBCF05F0080E71
:1030F000DBCF06F0000E086E600E076E800E096EC4
:103100000A6A07C00BF008C00CF009C00DF00E6A87
:103110000EC00FF0106A000E105C02E10A0E0F5C88
:10312000D8B0ACD00B500C0F0F6E000E0C20106EF0
:10313000000E0D20116E0FC0E9FF10C0F3FF1150FB
:1031400087EC3FF0126EF3CF13F012501310D8A497
:1031500085D000C0E5FF01C0F4FF0FC0E9FF10C03B
:10316000F3FF1150B6EC40F00050011032E1200E98
:103170000A01985D03E1010E0A01975D08E2100E55
:103180000A01985D03E1000E0A01975D05E20A015C
:10319000976B100E0A01986F07500C0F0F6E000E00
:1031A0000820106E000E0920116E97CA12F098CAFE
:1031B00013F00A01972B02E30A01982B12C0E5FFD6
:1031C00013C0F4FF0FC0E9FF10C0F3FF1150B6ECBD
:1031D00040F002500310041015E0000EE56E0A0ED8
:1031E000E56E0450E56E0350E56E0250E56E095041
:1031F000E56E0850E56E0750E56E95EC2FF0080E71
:10320000E12614D007C00FF008C010F009C011F07B
:10321000000EE56E0A0EE56EFF0EE56E1050E56ECF
:103220000F50E56EB0EC33F0050EE12607500A0FA3
:103230000F6E000E0820106E000E0920116E05C0E2
:10324000E5FF06C0F4FF0FC0E9FF10C0F3FF115007
:10325000B6EC40F00AC0B8FA0A5011D00E0E0B2698
:10326000000E0C22000E0D220BC007F00CC008F05F
:103270000DC009F00E2A0EC00AF04AD7E868E4CF64
:1032800013F0E4CF12F0E4CF11F0E4CF10F0E4CF6C
:103290000FF0E4CF0EF0E4CF0DF0E4CF0CF0E4CF6C
:1032A0000BF0E4CF0AF0E4CF09F0E4CF08F0E4CF6C
:1032B00007F0E4CF06F0E4CF05F0E4CF04F0E4CF6C
:1032C00003F0E4CF02F0E4CF01F0E4CF00F0E4CF6C
:1032D000D9FF1200D9CFE5FFE1CFD9FF00C0E5FF4C
:1032E00001C0E5FF02C0E5FF03C0E5FF04C0E5FF44
:1032F00005C0E5FF06C0E5FF07C0E5FF08C0E5FF24
:1033000009C0E5FF0AC0E5FF0BC0E5FF0CC0E5FF03
:103310000DC0E5FF0EC0E5FF0FC0E5FF020EDBCFDD
:1033200000F0030EDBCF01F0040EDBCF02F0050E40
:10333000DBCF03F0060EDBCF04F0070EDBCF05F08A
:10334000080EDBCF06F0090EDBCF07F00A0EDBCF4D
:1033500008F00B0EDBCF09F00C0EDBCF0AF00D0EE0
:10336000DBCF0BF0080E0D6EA20E0C6E800E0E6EF3
:10337000000EE56E140EE56E0E50E56E0D50E56E16
:103380000C50E56EF5EC31F0050EE126F00E08016B
:10339000A2150C6E0D6A0C50400A02E10D5002E0BD
:1033A000E86AA0D00801A8511F0B03E10801A95148
:1033B00002E0E86A97D00F0E0801A2150C6E0C44CB
:1033C000E844FC0B0A01AB6FABCA0CF00D6A0D5060
:1033D000E56E0C50E56E000EE56E000EE56E50ECED
:1033E0002CF00C6EF3CF0DF0040EE1260C500A0108
:1033F0008F6F0D500A01906FABCA0CF00D6A0D5023
:10340000E56E0C50E56E79EC34F0020EE1260A010F
:103410008F510A01901102E0E86A64D0080E0D6E27
:10342000A20E0C6E800E0E6E0E50E56E0D50E56E07
:103430000C50E56E60EC27F0030EE1260050011001
:10344000021017E0B2C80CF0B3C80DF0B4C80EF00B
:10345000B5C80FF00CC0E5FF0DC0F4FF0EC0F6FFBD
:103460000FC0F7FF00C0E9FF01C0F3FF025044ECBA
:1034700040F0AEC800F0AFC801F0B0C802F0B1C86B
:103480000CF000C0E5FF01C0F4FF02C0F6FF0CC065
:10349000F7FF03C0E9FF04C0F3FF055044EC40F020
:1034A000ABC800F000C0E5FF06C0E9FF07C0F3FFAE
:1034B0000850D6EC40F0ABCA00F0016A0050080199
:1034C000A45D006E01500801A559016E00C0E5FF22
:1034D00001C0F4FF09C0E9FF0AC0F3FF0B50B6ECCE
:1034E00040F0010EE4CF0FF0E4CF0EF0E4CF0DF08A
:1034F000E4CF0CF0E4CF0BF0E4CF0AF0E4CF09F016
:10350000E4CF08F0E4CF07F0E4CF06F0E4CF05F015
:10351000E4CF04F0E4CF03F0E4CF02F0E4CF01F015
:10352000E4CF00F0E4CFD9FF1200D9CFE5FFE1CF1F
:10353000D9FF00C0E5FF01C0E5FF02C0E5FF050EB1
:103540000A01AF5DD8B0F9D003C0E5FF04C0E5FFC4
:10355000046A0A01AF350436E8340436FC0B036E06
:10356000000EFB6E350EFA6E800E03260450FA2212
:10357000D8B0FB2A0350E4CF04F0E4CF03F0F96E97
:10358000CAEF1AF0E0EF1AF031EF1BF048EF1BF032
:1035900099EF1BF0020EE56E000EE56EB1EC3BF00C
:1035A000020EE126010E0A01B16FBE0ECE6EFF0EB5
:1035B000CF6ECD80010E0A01AF6F0A01AC6BBDD09A
:1035C000330E0A01AC25006E016A0E0E012200C006
:1035D000E9FF01C0EAFFEFCF00F0005023E1200E29
:1035E000E56E010EE56EB1EC3BF0020EE126ACCAD1
:1035F000ADFAADCA01F0026A000E025C02E1100EE3
:10360000015C18E2330E0A01AD25016E026A0E0E4E
:10361000022201C0E9FF02C0EAFF200EEF6E0A019C
:10362000AD2BE7D70050E56E010EE56EB1EC3BF037
:10363000020EE1260A01AC2BACCA00F0016A000EB2
:10364000015C02E1100E005C03E3020E0A01AF6FA1
:10365000010E0A01B16FFE0ECE6EFF0ECF6ECD8051
:103660006CD0C00EE56E000EE56EB1EC3BF0020EC4
:10367000E126010E0A01B16FFE0ECE6EFF0ECF6E77
:10368000CD80030E0A01AF6F100E0A01AC6F55D04A
:10369000330E0A01AC25006E016A0E0E012200C035
:1036A000E9FF01C0EAFFEFCF00F0005023E1200E58
:1036B000E56E010EE56EB1EC3BF0020EE126ACCA00
:1036C000ADFAADCA01F0026A000E025C02E1200E02
:1036D000015C18E2330E0A01AD25016E026A0E0E7E
:1036E000022201C0E9FF02C0EAFF200EEF6E0A01CC
:1036F000AD2BE7D70050E56E010EE56EB1EC3BF067
:10370000020EE1260A01AC2BACCA00F0016A000EE1
:10371000015C02E1200E005C03E3040E0A01AF6FBE
:10372000010E0A01B16FFE0ECE6EFF0ECF6ECD8080
:1037300004D00A01B26B0A01AF6BE4CF02F0E4CF10
:1037400001F0E4CF00F0E4CFD9FF1200D9CFE5FFBC
:10375000E1CFD9FF00C0E5FF01C0E5FF02C0E5FFF2
:1037600003C0E5FF04C0E5FF05C0E5FF06C0E5FFB7
:1037700007C0E5FF020EDBCF00F0030EDBCF01F048
:10378000040EDBCF02F0050EDBCF03F0060EDBCF1D
:1037900004F0070EDBCF05F0080EDBCF06F0090EB4
:1037A000DBCF07F000500A01546F0150556F0250F3
:1037B000566F0350576F04500A01586F0550596FE8
:1037C00006505A6F07505B6F0A0154510A015A03A1
:1037D000F3CF00F0F4CF01F000500A015E6F01500A
:1037E0005F6F0A0154510A015803F3CF00F0F4CF80
:1037F00001F000500A015C6F01505D6F0A015751E2
:103800000A015803F3CF00F00A015F51002600506F
:103810005F6F0A0156510A015903F3CF00F00A0104
:103820005F51002600505F6F0A0156510A0158038C
:10383000F3CF00F0F4CF01F00A015E5100265F5192
:10384000012200505E6F01505F6F0A0155510A015D
:103850005903F3CF00F0F4CF01F00A015E510026C6
:103860005F51012200505E6F01505F6F0A01555198
:103870000A015A03F3CF00F000500A01636F0A01F6
:1038800055510A015803F3CF00F0F4CF01F0005076
:103890000A01616F0150626F0A0154510A015B0312
:1038A000F3CF00F000500A01676F0A0154510A017A
:1038B0005903F3CF00F0F4CF01F000500A01656F17
:1038C0000150666F0A01606B0A01646B0A01605166
:1038D0000A015C25006E0A0161510A015D21016E39
:1038E0000A0162510A015E21026E0A0163510A0156
:1038F0005F21036E00505C6F01505D6F02505E6F80
:1039000003505F6F0A0164510A015C25006E0A01D1
:1039100065510A015D21016E0A0166510A015E21AD
:10392000026E0A0167510A015F21036E03C0E9FFBD
:1039300002C0F4FF01C0F3FF0050E4CF07F0E4CF72
:1039400006F0E4CF05F0E4CF04F0E4CF03F0E4CFD9
:1039500002F0E4CF01F0E4CF00F0E4CFD9FF120091
:10396000D9CFE5FFE1CFD9FF00C0E5FF01C0E5FFFA
:1039700002C0E5FF03C0E5FF04C0E5FF05C0E5FFA9
:1039800006C0E5FF07C0E5FF08C0E5FF09C0E5FF89
:10399000020EDBCF00F0030EDBCF01F0040EDBCF15
:1039A00002F0050EDBCF03F0060EDBCF04F0070EAE
:1039B000DBCF05F00E01D95102E1E86AC3D00A015C
:1039C000A85104E1A7EC37F0E86ABCD00801FE5129
:1039D0000A016B6F0801FF510A016C6F0A016C51FB
:1039E000066E076A076A06507B6E0A016B51066E07
:1039F000076A06507A6E000E076EEC0E066E800E99
:103A0000086E000EE56E140EE56E0850E56E075068
:103A1000E56E0650E56EF5EC31F0050EE12600018D
:103A2000FF51E56E0001FE51E56E1EEC3DF0066EA5
:103A3000F3CF07F0020EE12606500001FE6F07509B
:103A40000001FF6FECC006F0EDC007F0086A096ADC
:103A5000000E095C08E1000E085C05E11A0E075C27
:103A600002E10A0E065C14E20001ECB111D0000183
:103A7000F1BF0ED00001F0B90BD0050E0001EF5DD3
:103A800003E1EF0E0001EE5D03E20001F0BF0DD097
:103A9000000EE56E5B0EE56EDC0EE56E000EE56E6B
:103AA00045EC33F0040EE126FFD70001EC5108018C
:103AB000FE6F0001ED510801FF6F000E076EF80E5A
:103AC000066E800E086E000EE56E060EE56E08505E
:103AD000E56E0750E56E0650E56E0250E56E01504A
:103AE000E56E0050E56E95EC2FF0080EE126FF0E16
:103AF000E56E03C0E9FF04C0F3FF0550D6EC40F0CB
:103B0000FFC000F0016A0050080A02E1015001E024
:103B100016D0FEC000F0005009E000C001F0026ABB
:103B20000150060A02E1025001E009D000C0E5FFA1
:103B300003C0E9FF04C0F3FF0550D6EC40F00A01D2
:103B4000A86B010EE4CF09F0E4CF08F0E4CF07F052
:103B5000E4CF06F0E4CF05F0E4CF04F0E4CF03F0C7
:103B6000E4CF02F0E4CF01F0E4CF00F0E4CFD9FFDE
:103B70001200D9CFE5FFE1CFD9FF00C0E5FF01C0BA
:103B8000E5FF02C0E5FF03C0E5FF04C0E5FF05C097
:103B9000E5FF06C0E5FF07C0E5FF08C0E5FF09C077
:103BA000E5FF0AC0E5FF0BC0E5FF0CC0E5FF0DC057
:103BB000E5FF0EC0E5FF0FC0E5FF10C0E5FF11C037
:103BC000E5FF12C0E5FF13C0E5FF14C0E5FF15C017
:103BD000E5FF020EDBCF00F0030EDBCF01F0040E99
:103BE000DBCF02F0050EDBCF03F0060EDBCF04F0D7
:103BF000070EDBCF05F0080EDBCF06F0090EDBCF9A
:103C000007F000C008F001C009F002C00AF003C0CC
:103C10000BF004C00CF005C00DF006C00EF007C09C
:103C20000FF006500710D8B43ED003C010F004C007
:103C300011F005C012F006C013F007C014F0FF0E1B
:103C40001326D8A01406135014101DE010C0E9FF6D
:103C500011C0F3FF125013EC40F0156E102AD8B0CB
:103C6000112AD8B0122A15C0E5FF00C0E9FF01C033
:103C7000F3FF0250D6EC40F0002AD8B0012AD8B0A9
:103C8000022A1550DCE110C00BF011C00CF012C07C
:103C90000DF000C008F001C009F002C00AF013C026
:103CA0000EF014C00FF00E500F1027E10650071051
:103CB00009E0000EE56E08C0E9FF09C0F3FF0A50F5
:103CC000D6EC40F00BC000F00CC001F00DC002F0CB
:103CD00000C0E9FF01C0F3FF025013EC40F0066E94
:103CE000002AD8B0012AD8B0022A0650F1E100C05B
:103CF0000BF001C00CF002C00DF003500B5C036E22
:103D000004500C58046EFF0E0326D8A0040604C00D
:103D1000F3FF0350E4CF15F0E4CF14F0E4CF13F039
:103D2000E4CF12F0E4CF11F0E4CF10F0E4CF0FF0C5
:103D3000E4CF0EF0E4CF0DF0E4CF0CF0E4CF0BF0C5
:103D4000E4CF0AF0E4CF09F0E4CF08F0E4CF07F0C5
:103D5000E4CF06F0E4CF05F0E4CF04F0E4CF03F0C5
:103D6000E4CF02F0E4CF01F0E4CF00F0E4CFD9FFDC
:103D70001200D9CFE5FFE1CFD9FF00C0E5FF01C0B8
:103D8000E5FF02C0E5FF03C0E5FF04C0E5FF05C095
:103D9000E5FF06C0E5FF07C0E5FF08C0E5FF09C075
:103DA000E5FF020EDBCF00F0030EDBCF01F0040EC7
:103DB000DBCF02F0D3EC3AF0036E0350FBE01A0EB7
:103DC000E56E0B0EE56E90EC39F0020EE126010E69
:103DD000E56E000EF46E00C0E9FF01C0F3FF025073
:103DE000B6EC40F00050020F036E000E0120046E8E
:103DF000000E0220056E000EE56E080EF46E03C084
:103E0000E9FF04C0F3FF0550B6EC40F00050040F8A
:103E1000036E000E0120046E000E0220056E060ED9
:103E2000E56E03C0E9FF04C0F3FF0550D6EC40F097
:103E30000050050F036E000E0120046E000E0220DC
:103E4000056E040EE56E03C0E9FF04C0F3FF0550E4
:103E5000D6EC40F00050080F036E000E0120046EF7
:103E6000000E0220056E0E0E076E2D0E066E800EE1
:103E7000086E000EE56E060EE56E0850E56E075002
:103E8000E56E0650E56E0550E56E0450E56E035094
:103E9000E56E95EC2FF0080EE12600500E0F036E34
:103EA000000E0120046E000E0220056E00CE06F00A
:103EB00001CE07F002CE08F003CE09F006C0E5FF00
:103EC00007C0F4FF08C0F6FF09C0F7FF03C0E9FF11
:103ED00004C0F3FF055044EC40F00250E56E015081
:103EE000E56E0050E56EF3EC29F0030EE12600507C
:103EF000120F036E000E0120046E000E0220056EEC
:103F0000000EE56E1C0EE56E060EE56E0550E56EC4
:103F10000450E56E0350E56E53EC29F0060EE126E1
:103F2000000EE56E1C0EE56E0250E56E0150E56E6A
:103F30000050E56E11EC37F0050EE1267EEC3BF00B
:103F4000010EE4CF09F0E4CF08F0E4CF07F0E4CFAE
:103F500006F0E4CF05F0E4CF04F0E4CF03F0E4CFC3
:103F600002F0E4CF01F0E4CF00F0E4CFD9FF12007B
:103F7000D9CFE5FFE1CFD9FF00C0E5FF01C0E5FFE4
:103F800002C0E5FF03C0E5FF04C0E5FF05C0E5FF93
:103F900006C0E5FF07C0E5FF080E0A01AE5DD8B018
:103FA000CED008C0E5FF09C0E5FF096A0A01AE35B9
:103FB0000936E8340936FC0B086E000EFB6E3F0E26
:103FC000FA6EDA0E08260950FA22D8B0FB2A0850F9
:103FD000E4CF09F0E4CF08F0F96EFDEF1FF00FEF2A
:103FE00020F018EF20F04BEF20F05FEF20F073EFA0
:103FF00020F087EF20F09BEF20F090909092966A4F
:10400000999299949990010E0A01B16FE10ECE6ECA
:10401000FA0ECF6ECD80010E0A01AE6F90D0909453
:10402000030E8D6E020E0A01AE6F0A01AC6B87D0D3
:104030009080110E006E016A026A036A00C004F0EB
:1040400001C005F002C006F003C007F0FF0E002615
:10405000FF0E0122FF0E0222FF0E03220450051064
:1040600006100710EBE190900A01AC2BACCA00F0EF
:10407000016A000E015C02E1030E005C03E3030E23
:104080000A01AE6F010E0A01B16FBE0ECE6EFF0EB9
:10409000CF6ECD8054D0380EE56E000EE56EB1ECDB
:1040A0003BF0020EE126010E0A01B16FFE0ECE6E4C
:1040B000FF0ECF6ECD80040E0A01AE6F40D0060E0B
:1040C000E56E000EE56EB1EC3BF0020EE126010E4E
:1040D0000A01B16FFE0ECE6EFF0ECF6ECD80050EC3
:1040E0000A01AE6F2CD00C0EE56E000EE56EB1EC41
:1040F0003BF0020EE126010E0A01B16FFE0ECE6EFC
:10410000FF0ECF6ECD80060E0A01AE6F18D0010EE5
:10411000E56E000EE56EB1EC3BF0020EE126010EFD
:104120000A01B16FBE0ECE6EFF0ECF6ECD80070EB0
:104130000A01AE6F04D00A01B26B0A01AE6BE4CF84
:1041400007F0E4CF06F0E4CF05F0E4CF04F0E4CFCD
:1041500003F0E4CF02F0E4CF01F0E4CF00F0E4CFCD
:10416000D9FF1200D9CFE5FFE1CFD9FF00C0E5FFAD
:1041700001C0E5FF02C0E5FF03C0E5FF04C0E5FFA5
:1041800005C0E5FF06C0E5FF07C0E5FF08C0E5FF85
:1041900009C0E5FF0AC0E5FF0BC0E5FF0CC0E5FF65
:1041A0000DC0E5FF0EC0E5FF0FC0E5FF020EDBCF3F
:1041B00000F0030EDBCF01F0040EDBCF02F0050EA2
:1041C000DBCF03F0060EDBCF04F0070EDBCF05F0EC
:1041D0000801815102E1E86894D038EC3FF0066EA6
:1041E000065002E0FE0E8DD078C406F079C407F0C8
:1041F0000750E56E0650E56E000EE56E220EE56E88
:10420000DBEC35F0086EF3CF09F0040EE126000E6A
:1042100008240A6E030E09200B6E0AC0E9FF0BC0CA
:10422000EAFFEFCF0AF00AC0E5FF00C0E9FF01C0D6
:10423000F3FF0250D6EC40F0000E0824006E030E8F
:104240000920016E002AD8B0012A026A0A6A000E0B
:104250000A5C02E1210E025C22E2025003240B6E92
:104260000A5004200C6EE86A05200D6E02500024EE
:104270000E6E0A5001200F6E0EC0E9FF0FC0EAFF5C
:10428000EFCF0EF00EC0E5FF0BC0E9FF0CC0F3FF4F
:104290000D50D6EC40F0022AD8B00A2AD8D7000E2A
:1042A0000824006E030E0920016E00C0E9FF01C062
:1042B000EAFF000EEF6E000E0826030E0922082A00
:1042C000D8B0092A08C0E9FF09C0EAFF000EEF6E66
:1042D000062AD8B0072A000EE56E0B0EE56E0750D1
:1042E000E56E0650E56ED6EC34F0006EF3CF01F0CB
:1042F000040EE12600500401786F01500401796F2B
:10430000E86AE4CF0FF0E4CF0EF0E4CF0DF0E4CF95
:104310000CF0E4CF0BF0E4CF0AF0E4CF09F0E4CFE7
:1043200008F0E4CF07F0E4CF06F0E4CF05F0E4CFE7
:1043300004F0E4CF03F0E4CF02F0E4CF01F0E4CFE7
:1043400000F0E4CFD9FF1200D9CFE5FFE1CFD9FFCC
:1043500000C0E5FF01C0E5FF02C0E5FF03C0E5FFC7
:1043600004C0E5FF05C0E5FF06C0E5FF07C0E5FFA7
:1043700008C0E5FF020EDBCF00F0030EDBCF01F03B
:10438000040EDBCF02F0050EDBCF03F0060EDBCF11
:1043900004F0070EDBCF05F0140E0A01AB6F450EDB
:1043A0000801B66F0801B76B140E0426D8B0052AB1
:1043B00004500801B86F05500801B96F08017F2B40
:1043C00002E30801802B08017F510801BA6F080140
:1043D00080510801BB6F0801BC6B0801BD6B640E06
:1043E0000801BE6F03500801BF6F0801C06B0801D0
:1043F000C16B0E0100510801C26F0E01015108018D
:10440000C36F0E0102510801C46F0E010351080170
:10441000C56F00C0E9FF01C0F3FF0250FBEC3EF0A6
:10442000036EF3CF06F0F4CF07F0E9CF08F00350A6
:104430000801C66F06500801C76F07500801C86F12
:1044400008500801C96F080E066EB60E036E800E86
:10445000076E0750E56E0650E56E0350E56E60ECA2
:1044600027F0030EE126080E066EB60E036E800ED0
:10447000076E000EE56E140EE56E0750E56E0650F1
:10448000E56E0350E56E7CEC0FF0036EF3CF06F0A3
:10449000050EE12603500801C06F06500801C16FE8
:1044A000040E0026000E0122000E02220550E56EC9
:1044B0000450E56E000EE56E0250E56E0150E56EAB
:1044C0000050E56E53EC29F0060EE126080E016E51
:1044D000B60E006E800E026E000EE56E140EE56ED6
:1044E0000250E56E0150E56E0050E56E11EC37F0BC
:1044F000050EE126F36AE86AE4CF08F0E4CF07F09E
:10450000E4CF06F0E4CF05F0E4CF04F0E4CF03F00D
:10451000E4CF02F0E4CF01F0E4CF00F0E4CFD9FF24
:104520001200D9CFE5FFE1CFD9FF00C0E5FF01C000
:10453000E5FF02C0E5FF03C0E5FF04C0E5FF05C0DD
:10454000E5FF06C0E5FF07C0E5FF08C0E5FF09C0BD
:10455000E5FF0AC0E5FF0BC0E5FF0CC0E5FF0DC09D
:10456000E5FF020EDBCF00F0030EDBCF01F0040EFF
:10457000DBCF02F0050EDBCF03F0100E046E056AF0
:10458000066A076A040E055CD8B081D000C008F046
:1045900001C009F002C00AF003C00BF0065011E0A0
:1045A00009E6E86CD8900B320A3209320832010F62
:1045B000FAE307D0D890083609360A360B36010FD1
:1045C000FAE3096A0A0EE56E0A0EE56E1C0EE56E48
:1045D0000950E56E0850E56E0FEC3BF0050EE12644
:1045E00004C008F0096A0A0E0B6E1C0E0A6E800EDB
:1045F0000C6E0C50E56E0B50E56E0A50E56E54ECF7
:104600003AF00A6EF3CF0BF0030EE12609C00CF06E
:104610000D6A0D50800FF36E0B50800FF35C02E1BA
:104620000A500C5C1CE208C00AF0082A0B6A540EFF
:104630000A260E0E0B221C0E09240C6E0D6A0A0EA1
:104640000D220CC0E9FF0DC0EAFFEFCF0CF00AC04D
:10465000E9FF0BC0EAFF0CC0EFFF092AC4D708C06E
:1046600004F00550030A13E00828046E096A540E8A
:1046700008260E0E092208C0E9FF09C0EAFF2E0E27
:10468000EF6E080E0626D8B0072A052A7BD704C08D
:1046900000F0016A000E015C02E1200E005C0BE2FA
:1046A000006A540E04260E0E002204C0E9FF00C06A
:1046B000EAFF000EEF6E0CEC3EF0E4CF0DF0E4CF1D
:1046C0000CF0E4CF0BF0E4CF0AF0E4CF09F0E4CF34
:1046D00008F0E4CF07F0E4CF06F0E4CF05F0E4CF34
:1046E00004F0E4CF03F0E4CF02F0E4CF01F0E4CF34
:1046F00000F0E4CFD9FF1200D9CFE5FFE1CFD9FF19
:1047000000C0E5FF01C0E5FF02C0E5FF03C0E5FF13
:1047100004C0E5FF05C0E5FF06C0E5FF07C0E5FFF3
:1047200008C0E5FF09C0E5FF0AC0E5FF0BC0E5FFD3
:104730000CC0E5FF0DC0E5FF020EDBCF00F0030E5D
:10474000DBCF01F0040EDBCF02F0050EDBCF03F070
:104750000801815102E1E8688DD0D2EC39F0046E95
:1047600004501DE004017851010F046E000E040195
:104770007921056E000EE56E0B0EE56E0550E56EB7
:104780000450E56ED6EC34F0046EF3CF05F0040E61
:10479000E12604500401786F05500401796F76C456
:1047A00004F077C405F00550E56E0450E56E000E88
:1047B000E56E220EE56EDBEC35F0066EF3CF07F00A
:1047C000040EE126000E0624086E030E0720096E73
:1047D00008C0E9FF09C0EAFF00C0EFFF000E06268F
:1047E000030E07220650010F066E000E0720006E12
:1047F000076A086A000E085C02E1210E075C21E2EC
:1048000007500624096E085000200A6E0750012444
:104810000B6E085002200C6EE86A03200D6E0BC070
:10482000E9FF0CC0F3FF0D5013EC40F00B6E09C014
:10483000E9FF0AC0EAFF0BC0EFFF072AD8B0082A39
:10484000D9D7042AD8B0052A000EE56E0B0EE56E06
:104850000550E56E0450E56ED6EC34F0006EF3CFF3
:1048600001F0040EE12600500401766F01500401AE
:10487000776FE86AE4CF0DF0E4CF0CF0E4CF0BF0F3
:10488000E4CF0AF0E4CF09F0E4CF08F0E4CF07F07A
:10489000E4CF06F0E4CF05F0E4CF04F0E4CF03F07A
:1048A000E4CF02F0E4CF01F0E4CF00F0E4CFD9FF91
:1048B0001200D9CFE5FFE1CFD9FF00C0E5FF01C06D
:1048C000E5FF02C0E5FF03C0E5FF04C0E5FF05C04A
:1048D000E5FF06C0E5FF07C0E5FF08C0E5FF09C02A
:1048E000E5FF0AC0E5FF0BC0E5FF0CC0E5FF0DC00A
:1048F000E5FF0EC0E5FF0FC0E5FF020EDBCF00F0C5
:10490000030EDBCF01F0040EDBCF02F0050EDBCF90
:1049100003F0060EDBCF04F0070EDBCF05F0080E28
:10492000DBCF06F0200E076E086A06C009F00A6A9F
:104930000B6A0C6AE56AE56AE56A0950E56E0350A0
:10494000E56E0250E56E0150E56E0050E56E2FEC0D
:104950002BF00D6E080EE126300E0D263A0E0D5C82
:1049600002E3270E0D26FF0E0726D8A00806400EEC
:1049700007240E6E0F0E08200F6E0EC0E9FF0FC049
:10498000EAFF0DC0EFFF0C50E56E0B50E56E0A50CC
:10499000E56E0950E56E0350E56E0250E56E01507C
:1049A000E56E0050E56EDEEC2CF0006EF3CF01F00A
:1049B000F4CF02F0E9CF03F0080EE1260050011019
:1049C00002100310D8A4B1D707C000F008C001F04E
:1049D00004C002F005C003F000C004F001C005F0FF
:1049E000002AD8B0012A400E04260F0E052204C06A
:1049F000E9FF05C0EAFFEFCF04F002C0E9FF03C002
:104A0000EAFF04C0EFFF022AD8B0032A000E015CBF
:104A100002E1200E005CE0E302C0E9FF03C0EAFF10
:104A2000000EEF6AE4CF0FF0E4CF0EF0E4CF0DF00C
:104A3000E4CF0CF0E4CF0BF0E4CF0AF0E4CF09F0C0
:104A4000E4CF08F0E4CF07F0E4CF06F0E4CF05F0C0
:104A5000E4CF04F0E4CF03F0E4CF02F0E4CF01F0C0
:104A6000E4CF00F0E4CFD9FF1200D9CFE5FFE1CFCA
:104A7000D9FF00C0E5FF01C0E5FF02C0E5FF03C0AC
:104A8000E5FF04C0E5FF05C0E5FF06C0E5FF07C080
:104A9000E5FF020EDBCF00F0030EDBCF01F0040ECA
:104AA000DBCF02F0050EDBCF03F0060EDBCF04F008
:104AB0000A0E066E3C0E056E800E076E000EE56E49
:104AC000040EE56E0750E56E0650E56E0550E56E86
:104AD000F5EC31F0050EE1260A013C51080A03E12C
:104AE0000A013D5101E07ED00450E56E0350E56EB1
:104AF000000EE56E140EE56E50EC2CF0056EF3CF53
:104B000006F0040EE1260550061001E06BD00A0104
:104B10003C6B080E0A013E25056E05500A013E6FEA
:104B20003ECA06F0076A000E075C02E1080E055C4B
:104B30000DE23FCA05F0052A05500A013F6F0A0140
:104B40003F5104E1062A06500A013E6FD3EC3AF0C9
:104B5000056E0550FBE01A0EE56E190EE56E90EC41
:104B600039F0020EE1260450E56E0350E56E010EA9
:104B7000E56E0250E56E0150E56E0050E56EA4EC66
:104B800021F0060EE1260A0E016E3C0E006E800E2C
:104B9000026E000EE56E040EE56E0250E56E0150E9
:104BA000E56E0050E56E11EC37F0050EE126FC0EC7
:104BB0000326D8A004060450E56E0350E56EFF0EF0
:104BC000E56EFF0EE56EFF0EE56EFF0EE56E36EC50
:104BD0000CF0060EE1269DEC3FF0006E0050FBE06D
:104BE0007EEC3BF0E4CF07F0E4CF06F0E4CF05F035
:104BF000E4CF04F0E4CF03F0E4CF02F0E4CF01F01F
:104C0000E4CF00F0E4CFD9FF1200D9CFE5FFE1CF28
:104C1000D9FF00C0E5FF01C0E5FF02C0E5FF03C00A
:104C2000E5FF04C0E5FF05C0E5FF06C0E5FF07C0DE
:104C3000E5FF08C0E5FF09C0E5FF0AC0E5FF020E79
:104C4000DBCF00F0030EDBCF01F0040EDBCF02F070
:104C5000050EDBCF03F0060EDBCF04F0070EDBCF33
:104C600005F075CE06F076CE07F077CE08F078CE58
:104C700009F000C0E9FF01C0F3FF0250FBEC3EF079
:104C8000006EF3CF01F0F4CF02F0E9CF0AF0065046
:104C9000001809E10750011806E10850021803E165
:104CA00009500A182EE006500E0108190CE10750B1
:104CB0000E01091908E108500E010A1904E1095012
:104CC0000E010B1901E039D00E010051001A0E013E
:104CD0000151011A0E010251021A0E0103510A1A62
:104CE0000E01045100160E01055101160E01065168
:104CF00002160E0107510A160050011002100A1088
:104D00001CE00E0E016E790E006E800E026E000E1B
:104D1000E56E060EE56E0250E56E0150E56E005040
:104D2000E56E0550E56E0450E56E0350E56E95ECBA
:104D30002FF0080EE126010E01D0E86AE4CF0AF058
:104D4000E4CF09F0E4CF08F0E4CF07F0E4CF06F0B9
:104D5000E4CF05F0E4CF04F0E4CF03F0E4CF02F0B9
:104D6000E4CF01F0E4CF00F0E4CFD9FF1200D9CFB7
:104D7000E5FFE1CFD9FF00C0E5FF01C0E5FF02C0BC
:104D8000E5FF03C0E5FF04C0E5FF05C0E5FF9EA009
:104D900007D00A01B15104E00A01B16BCD909E9099
:104DA0000A01B251D8A440D038EC3FF0006E005058
:104DB000D8A43AD00A0E016EB30E006E800E026EB9
:104DC0000E0E046E330E036E800E056E0550E56EFA
:104DD0000450E56E0350E56E0250E56E0150E56E3D
:104DE0000050E56EB2EC20F0060EE126010E0A013D
:104DF000B26FB3CA00F0E86A0A01B3BFFF0E016EDA
:104E0000026E036E0A0EE56E080EE56E000EE56E8C
:104E10000350E56E0250E56E0150E56E0050E56E00
:104E200059EC24F0070EE1260A01B151D8A439D07B
:104E30000A01B25136E00A01B351800F7F0F31E30E
:104E40000A01B351800F7C0F2CE20A01B305006EFA
:104E500006C0E5FF07C0E5FF076A00340736E834FF
:104E60000736FC0B066E000EFB6E4E0EFA6E860EBB
:104E700006260750FA22D8B0FB2A0650E4CF07F0E6
:104E8000E4CF06F0F96E49EF27F04CEF27F04FEF33
:104E900027F0B8EC1FF005D09DEC3CF002D095EC6B
:104EA0001AF0E4CF05F0E4CF04F0E4CF03F0E4CF50
:104EB00002F0E4CF01F0E4CF00F0E4CFD9FF12001C
:104EC000D9CFE5FFE1CFD9FF00C0E5FF01C0E5FF85
:104ED00002C0E5FF03C0E5FF04C0E5FF05C0E5FF34
:104EE00006C0E5FF07C0E5FF020EDBCF00F0030EB2
:104EF000DBCF01F0040EDBCF02F00050020F036E97
:104F0000000E0120046E000E0220056E03C0E9FFB2
:104F100004C0F3FF055087EC3FF0066EF3CF07F0B7
:104F20000750E56E0650E56E1EEC3DF0066EF3CFC1
:104F300007F0020EE12606C0E5FF07C0F4FF03C03C
:104F4000E9FF04C0F3FF0550B6EC40F00050040F39
:104F5000036E000E0120046E000E0220056E03C0D9
:104F6000E9FF04C0F3FF055087EC3FF0066EF3CF76
:104F700007F00750E56E0650E56E1EEC3DF0066E3C
:104F8000F3CF07F0020EE12606C0E5FF07C0F4FFED
:104F900003C0E9FF04C0F3FF0550B6EC40F00A0E71
:104FA0000026000E0122000E022200C0E9FF01C00F
:104FB000F3FF025087EC3FF0036EF3CF04F0045090
:104FC000E56E0350E56E1EEC3DF0036EF3CF04F08A
:104FD000020EE12603C0E5FF04C0F4FF00C0E9FFB4
:104FE00001C0F3FF0250B6EC40F0E4CF07F0E4CF8D
:104FF00006F0E4CF05F0E4CF04F0E4CF03F0E4CF13
:1050000002F0E4CF01F0E4CF00F0E4CFD9FF1200CA
:10501000D9CFE5FFE1CFD9FF00C0E5FF01C0E5FF33
:1050200002C0E5FF03C0E5FF04C0E5FF05C0E5FFE2
:1050300006C0E5FF07C0E5FF020EDBCF00F00B0E58
:105040007A6E1A0E7B6E0F0E026E000E016E800ECF
:10505000036E000EE56E400EE56E0350E56E0250E5
:10506000E56E0150E56EF5EC31F0050EE126D890C5
:105070000036016A026A036A100E015CD8B057D08C
:1050800000500124046E056A000E04260F0E05224E
:1050900004C0E9FF05C0EAFFEFCF04F004380F0BAE
:1050A000046E0F0E0416540E0224056E066A0E0ED0
:1050B00006220A0E045C03E2300E076E02D0410E97
:1050C000076E0450072605C0E9FF06C0EAFF07C0C7
:1050D000EFFF00500124056E066A000E05260F0E34
:1050E000062205C0E9FF06C0EAFFEFCF05F00F0E6C
:1050F0000514046E0328056E066A540E05260E0E6E
:1051000006220A0E045C03E2300E076E02D0410E46
:10511000076E0750042605C0E9FF06C0EAFF04C079
:10512000EFFF022A022A032A032A012AA5D70E0129
:10513000746B0CEC3EF0E4CF07F0E4CF06F0E4CF64
:1051400005F0E4CF04F0E4CF03F0E4CF02F0E4CFC5
:1051500001F0E4CF00F0E4CFD9FF12001BEC3FF0E8
:105160008FEC40F00DEC2FF0C8EC38F043EC3CF045
:10517000DCEC3FF0100E006E980E016E020E026E17
:10518000036A00C004F001C005F002C006F003C0CD
:1051900007F0FF0E0026FF0E0122FF0E0222FF0E77
:1051A00003220450051006100710EBE1000EE56E17
:1051B000780EE56E200EE56E000EE56E45EC33F0E0
:1051C000040EE126DAEC3EF0006EF3CF01F0F4CFEE
:1051D00002F0E9CF03F008017551005C046E08018C
:1051E00076510158056E080177510258066E080184
:1051F00078510358076E000E075C08E1000E065C4C
:1052000005E1000E055C02E1270E045C15E300C019
:1052100075F801C076F802C077F803C078F8006A24
:1052200091B0002A010E001A0050010BF46E91504B
:10523000FE0BF410916E0400E5EC0DF0B7EC26F0D7
:1052400000CE00F001CE01F002CE02F003CE03F05A
:105250000801795100180DE108017A51011809E19E
:1052600008017B51021805E108017C51031801E196
:10527000A9D700C079F801C07AF802C07BF803C052
:105280007CF808017C51E56E08017B51E56E080150
:105290007A51E56E08017951E56E91EC22F0040E29
:1052A000E12690D71200D9CFE5FFE1CFD9FF00C0AA
:1052B000E5FF01C0E5FF02C0E5FF03C0E5FF04C054
:1052C000E5FF05C0E5FF06C0E5FF07C0E5FF08C034
:1052D000E5FF09C0E5FF020EDBCF00F0030EDBCFD8
:1052E00001F0040EDBCF02F0050EDBCF03F0060E5B
:1052F000DBCF04F0070EDBCF05F00B0E0E01E26FE3
:105300001A0E0E01E36F04C006F005C007F0086A2C
:10531000096A180E06261A0E0722000E0822000E31
:1053200009220650046E0750056E0450066E076A87
:1053300006500E01E66F0550046E056A056A0450BA
:105340000E01E76F000EE56E060EE56E0250E56E8B
:105350000150E56E0050E56E11EC37F0050EE126C8
:105360000E0E016E2D0E006E800E026E000EE56EAA
:10537000060EE56E0250E56E0150E56E0050E56EDA
:1053800011EC37F0050EE126080EE56EC2EC40F098
:10539000E12A0350D880E866D890036A03360350A8
:1053A00003E0006A016A03D0060E006E016A005035
:1053B000E56EC2EC40F0E12AE4CF09F0E4CF08F05A
:1053C000E4CF07F0E4CF06F0E4CF05F0E4CF04F03B
:1053D000E4CF03F0E4CF02F0E4CF01F0E4CF00F03B
:1053E000E4CFD9FF1200D9CFE5FFE1CFD9FF00C04C
:1053F000E5FF01C0E5FF02C0E5FF03C0E5FF04C013
:10540000E5FF05C0E5FF06C0E5FF07C0E5FF020EAA
:10541000DBCF00F0030EDBCF01F0040EDBCF02F098
:1054200000C0E9FF01C0F3FF025087EC3FF0036EBC
:10543000F3CF04F00450E56E0350E56E1EEC3DF032
:10544000036EF3CF04F0020EE12603C0E5FF04C0B3
:10545000F4FF00C0E9FF01C0F3FF0250B6EC40F0DA
:105460000050020F036E000E0120046E000E022099
:10547000056E03C0E9FF04C0F3FF055087EC3FF061
:10548000066EF3CF07F00750E56E0650E56E1EEC92
:105490003DF0066EF3CF07F0020EE12606C0E5FFF1
:1054A00007C0F4FF03C0E9FF04C0F3FF0550B6ECEA
:1054B00040F0060E0026000E0122000E022200C05F
:1054C000E9FF01C0F3FF025087EC3FF0036EF3CF1A
:1054D00004F00450E56E0350E56E1EEC3DF0036EE3
:1054E000F3CF04F0020EE12603C0E5FF04C0F4FF91
:1054F00000C0E9FF01C0F3FF0250B6EC40F0E4CF7A
:1055000007F0E4CF06F0E4CF05F0E4CF04F0E4CFF9
:1055100003F0E4CF02F0E4CF01F0E4CF00F0E4CFF9
:10552000D9FF1200D9CFE5FFE1CFD9FF00C0E5FFD9
:1055300001C0E5FF02C0E5FF03C0E5FF04C0E5FFD1
:1055400005C0E5FF06C0E5FF07C0E5FF020EDBCFA3
:1055500000F0030EDBCF01F0040EDBCF02F0010EF2
:105560000801436F0801446B08014F690801506945
:105570000801516908015269080153690801546919
:1055800000C0E9FF01C0F3FF0250FBEC3EF0006EEB
:10559000F3CF01F0F4CF02F0E9CF03F000500E0199
:1055A0000019046E01500E010119056E02500E0122
:1055B0000219066E03500E010319076E0E01045105
:1055C00004160E01055105160E01065106160E01B0
:1055D00007510716045005100610071009E008CE01
:1055E00004F009CE05F00ACE06F00BCE07F008D085
:1055F00000C004F001C005F002C006F003C007F0CF
:1056000004500801556F05500801566F06500801F7
:10561000576F07500801586F080E016E3D0E006E5F
:10562000800E026E0250E56E0150E56E0050E56E90
:10563000B9EC1EF0030EE126E4CF07F0E4CF06F04C
:10564000E4CF05F0E4CF04F0E4CF03F0E4CF02F0C0
:10565000E4CF01F0E4CF00F0E4CFD9FF1200D9CFBE
:10566000E5FFE1CFD9FF00C0E5FF01C0E5FF02C0C3
:10567000E5FF03C0E5FF04C0E5FF05C0E5FF06C088
:10568000E5FF07C0E5FF08C0E5FF09C0E5FF0AC068
:10569000E5FF020EDBCF00F0030EDBCF01F0040EBE
:1056A000DBCF02F0050EDBCF03F0060EDBCF04F0FC
:1056B000070EDBCF05F0080EDBCF06F0090EDBCFBF
:1056C00007F0086A096A0744010B0A6E0AB01BD08A
:1056D000045004260536063607360750035C08E1F9
:1056E0000650025C05E10550015C02E10450005CDB
:1056F00006E2D890073206320532043204D0092A75
:1057000009C008F0E0D70750035C08E10650025CCE
:1057100005E10550015C02E10450005C08E304501F
:10572000005E0550015A0650025A0750035AD8909D
:10573000073206320532043208C009F00806095063
:10574000E2E103C0E9FF02C0F4FF01C0F3FF005033
:10575000E4CF0AF0E4CF09F0E4CF08F0E4CF07F09B
:10576000E4CF06F0E4CF05F0E4CF04F0E4CF03F09B
:10577000E4CF02F0E4CF01F0E4CF00F0E4CFD9FFB2
:105780001200D9CFE5FFE1CFD9FF00C0E5FF01C08E
:10579000E5FF02C0E5FF03C0E5FF04C0E5FF05C06B
:1057A000E5FF020EDBCF00F0030EDBCF01F0040EAD
:1057B000DBCF02F0036A046A0A0EE56E0A0EE56E9C
:1057C000100EE56E0450E56E0350E56E0250E56E76
:1057D0000150E56E59EC24F0070EE126016A0A0E2D
:1057E000036E100E026E800E046E0450E56E0350C0
:1057F000E56E0250E56E54EC3AF0026EF3CF03F022
:10580000030EE12601C004F0056A0550800FF36E17
:105810000350800FF35C02E10250045C1CE200C004
:1058200002F0002A036A540E02260E0E0322100E06
:105830000124046E056A0A0E052204C0E9FF05C0B2
:10584000EAFFEFCF04F002C0E9FF03C0EAFF04C0A3
:10585000EFFF012AC4D700C001F0026A000E025C0B
:1058600002E1200E015C0BE2016A540E00260E0ECE
:10587000012200C0E9FF01C0EAFF000EEF6E0CEC50
:105880003EF0E4CF05F0E4CF04F0E4CF03F0E4CF42
:1058900002F0E4CF01F0E4CF00F0E4CFD9FF120032
:1058A000D9CFE5FFE1CFD9FF00C0E5FF01C0E5FF9B
:1058B00002C0E5FF03C0E5FF04C0E5FF05C0E5FF4A
:1058C00006C0E5FF07C0E5FF020EDBCF00F0030EC8
:1058D000DBCF01F0040EDBCF02F0050EDBCF03F0CF
:1058E0000A016B51140F046E000E0A016C21056E43
:1058F000045000260550012200C004F001C005F04C
:10590000066A076A000E075C08E1000E065C05E106
:105910001A0E055C02E10A0E045C0CE3F60E042686
:10592000E50E0522FF0E0622FF0E07220450006E30
:105930000550016E7BCF04F0056A0450076E066ABD
:105940007ACF04F0056A0450061205500712005081
:10595000046E056A04507A6E0150046E056A056A89
:1059600004507B6E0350E56E0250E56EF8EC06F0D5
:10597000006EF3CF01F0020EE1260650026E036ABC
:1059800002507A6E0750066E076A076A06507B6EF1
:1059900001C0F3FF0050E4CF07F0E4CF06F0E4CFFE
:1059A00005F0E4CF04F0E4CF03F0E4CF02F0E4CF5D
:1059B00001F0E4CF00F0E4CFD9FF1200D9CFE5FF2A
:1059C000E1CFD9FF00C0E5FF01C0E5FF02C0E5FF60
:1059D00003C0E5FF04C0E5FF05C0E5FF06C0E5FF25
:1059E00007C0E5FF08C0E5FF09C0E5FF0AC0E5FF05
:1059F0000BC0E5FF0CC0E5FF0DC0E5FF020EDBCFDD
:105A000000F0030EDBCF01F0040EDBCF02F0050E39
:105A1000DBCF03F0060EDBCF04F0070EDBCF05F083
:105A2000080EDBCF06F0090EDBCF07F0086A096A23
:105A30000A6A0B6A200E0C6E0344010B0D6E010EF8
:105A40000D1600500026013602360336085008268F
:105A500009360A360B360D50D8A4088007500B5C67
:105A600008E106500A5C05E10550095C02E10450BA
:105A7000085C09E30450085E0550095A06500A5AAA
:105A800007500B5A00800C2ED7D703C0E9FF02C085
:105A9000F4FF01C0F3FF0050E4CF0DF0E4CF0CF0B1
:105AA000E4CF0BF0E4CF0AF0E4CF09F0E4CF08F044
:105AB000E4CF07F0E4CF06F0E4CF05F0E4CF04F044
:105AC000E4CF03F0E4CF02F0E4CF01F0E4CF00F044
:105AD000E4CFD9FF1200D9CFE5FFE1CFD9FF9290F3
