:020000040000FA
:0400000012EF40F0CB
:0400080032EF3CF0A7
:08001800A6EF3BF0D9CFE5FF94
:10002000E1CFD9FF00C0E5FF01C0E5FF02C0E5FF59
:1000300003C0E5FF04C0E5FF05C0E5FF0101766BE5
:10004000010E016E780E006E800E026E0250E56E9B
:100050000150E56E0050E56E94EC38F0030EE12699
:1000600078C100F0016A0050020A02E1015002E08A
:100070003AEF03F00F0E006E010E026E780E016E65
:10008000800E036E0350E56E0250E56E0150E56E82
:1000900094EC38F0030EE12600060050EDE10A0171
:1000A0003AA516D0040E006E010E026E780E016E97
:1000B000800E036E0350E56E0250E56E0150E56E52
:1000C00094EC38F0030EE12600060050EDE116D066
:1000D0000A0E026E470E016E800E036E000EE56E74
:1000E000040EE56E0350E56E0250E56E0150E56EBC
:1000F0000BEC31F0050EE1260A015381080E006E6B
:10010000010E026E780E016E800E036E0350E56ED6
:100110000250E56E0150E56E94EC38F0030EE126D6
:1001200000060050EDE1016A01C002F0036A000E12
:10013000035C02E1060E025C24E2010E036E780EFF
:10014000026E800E046E0450E56E0350E56E0250A0
:10015000E56E94EC38F0030EE1262D0E0124026EBC
:10016000036A0E0E032202C0E9FF03C0EAFFEFCFCD
:1001700002F001017851021802E071EF03F0012A48
:10018000D3D7CE0E006E010E026E780E016E800E79
:10019000036E0350E56E0250E56E0150E56E94EC7F
:1001A00038F0030EE12600060050EDE1016A010E71
:1001B000036E780E026E800E046E0450E56E0350DE
:1001C000E56E0250E56E94EC38F0026E030EE12607
:1001D0000250D8B43AEF03F078C102F0036A02503B
:1001E000010A03E1035001E158D00250030A03E180
:1001F000035001E19CD00250330A03E1035001E1B6
:100200005AD10250350A02E103500EE00250360A7C
:1002100003E1035001E1F2D00250FF0A03E1035071
:1002200001E146D107EF03F0010E036E780E026E76
:10023000800E046E0450E56E0350E56E0250E56ECC
:1002400094EC38F0030EE12678C102F0036A025004
:10025000010A02E1035002E071EF03F0010E036EA8
:10026000760E026E800E046E0450E56E0350E56E4D
:100270000250E56E94EC38F0030EE1260A013AA52F
:1002800036EF03F076C102F0036A0250020A04E17D
:10029000035002E171EF03F0E9D1010E036E780E15
:1002A000026E800E046E0450E56E0350E56E02503F
:1002B000E56E94EC38F0030EE12678C102F0036A93
:1002C0000250040A02E1035002E071EF03F00A0158
:1002D0003AA516D0040E006E010E036E780E026E63
:1002E000800E046E0450E56E0350E56E0250E56E1C
:1002F00094EC38F0030EE12600060050EDE1B6D193
:100300000A0E036E4F0E026E800E046E000EE56E36
:10031000040EE56E0450E56E0350E56E0250E56E86
:100320000BEC31F0050EE1260A0153859FD1010E39
:10033000036E770E026E800E046E0450E56E03505D
:10034000E56E0250E56E94EC38F0030EE12677C1BD
:1003500002F0036A000E035C02E1040E025CD8A006
:10036000C0D10A013AA516D0040E006E010E036E2C
:10037000780E026E800E046E0450E56E0350E56E3A
:100380000250E56E94EC38F0030EE12600060050B2
:10039000EDE116D00A0E036E4B0E026E800E046E57
:1003A000000EE56E040EE56E0450E56E0350E56E3A
:1003B0000250E56E0BEC31F0050EE1260A01538385
:1003C000FC0E0101772777C102F002C003F002069C
:1003D00002C077F10350D8B444D1010E046E780EF8
:1003E000036E800E056E0550E56E0450E56E0350F9
:1003F000E56E94EC38F0030EE126E7D7010E046EAB
:10040000780E036E800E056E0550E56E0450E56EA5
:100410000350E56E94EC38F0030EE12678C103F04A
:10042000046A0350040A02E1045001E05AD10A0EA2
:10043000046EF40E036E800E056E0550E56E0450DA
:10044000E56E0350E56E94EC38F0030EE1260A0EDB
:10045000046EF30E036E800E056E0550E56E0450BB
:10046000E56E0350E56E94EC38F0030EE1260A0EBB
:10047000046EF20E036E800E056E0550E56E04509C
:10048000E56E0350E56E94EC38F0030EE1260A0E9B
:10049000046EF10E036E800E056E0550E56E04507D
:1004A000E56E0350E56E94EC38F0030EE126DED0E5
:1004B000010E016EDBD0010E046E780E036E800E0D
:1004C000056E0550E56E0450E56E0350E56E94EC44
:1004D00038F0030EE12678C103F0046A0350040AE1
:1004E00002E1045001E0FDD00A013AA515D0040E46
:1004F000006E010E046E780E036E800E056E0550C0
:10050000E56E0450E56E0350E56E94EC38F0030E92
:10051000E126002EEED7AAD00A0E036E420E006E20
:10052000800E046E0450E56E0350E56E0050E56EDB
:1005300094EC38F0030EE1260A0E036E410E006EB5
:10054000800E046E0450E56E0350E56E0050E56EBB
:1005500094EC38F0030EE1260A0E036E400E006E96
:10056000800E046E0450E56E0350E56E0050E56E9B
:1005700094EC38F0030EE1260A0E036E3F0E006E77
:10058000800E046E0450E56E0350E56E0050E56E7B
:1005900094EC38F0030EE1260A013F390F0B006E90
:1005A0000A014039036EF00B031A002603320032B1
:1005B0000A014151E838E840F80B03120A014139B9
:1005C0000F0B046E0A014239056EF00B051A042662
:1005D0000532043200500A013F5D006E03500A01EB
:1005E0004059036E04500A014159046E05500A0136
:1005F0004259056E00500A013F6F03500A01406FD7
:1006000004500A01416F05500A01426F2FD0010EBC
:10061000036E770E006E800E046E0450E56E03507C
:10062000E56E0050E56E94EC38F0030EE12677C1DC
:1006300000F000C003F0000600C077F1035014E0A2
:10064000010E046E780E036E800E056E0550E56E89
:100650000450E56E0350E56E94EC38F0030EE1268D
:10066000E8D702C077F102D000C077F10150D8B4CA
:10067000D7EF00F076C100F0016A0050020A16E1DF
:10068000015001E013D00A01F1510A01436F0A0140
:10069000F2510A01446F0A01F3510A01456F0A0140
:1006A000F4510A01466F0A013A8516D00A014351F6
:1006B0000A01F1190FE10A0144510A01F2190AE194
:1006C0000A0145510A01F31905E10A0146510A01DF
:1006D000F41902E00101766B09EC3FF0010176515B
:1006E00003D009EC3FF0E86AE4CF05F0E4CF04F072
:1006F000E4CF03F0E4CF02F0E4CF01F0E4CF00F068
:10070000E4CFD9FF1200D9CFE5FFE1CFD9FF00C078
:10071000E5FF01C0E5FF02C0E5FF03C0E5FF04C03F
:10072000E5FF05C0E5FF06C0E5FF07C0E5FF08C01F
:10073000E5FF006A00C001F0026A000E025C02E1FF
:10074000010E015CD8B0E3EF06F0006A39CA01F08F
:100750000D0E015CD8B0E0EF06F009C0E5FF0AC05D
:10076000E5FF0A6A01340A36E8340A36FC0B096EE2
:10077000000EFB6E070EFA6E900E09260A50FA2242
:10078000D8B0FB2A0950E4CF0AF0E4CF09F0F96EA3
:10079000E2EF03F0E4EF03F007EF04F078EF04F08A
:1007A000BFEF04F00AEF05F0B1EF05F036EF06F009
:1007B0006CEF06F036EF06F06CEF06F036EF06F061
:1007C0006CEF06F0E0EF06F0000EE56E430EE56E0E
:1007D000000EE56E000EE56E000EE56E000EE56E95
:1007E000440EE56E39EC18F0016E070EE12601505B
:1007F0000A01386F38CA01F0026A0150FF0A04E1A9
:10080000025002E1E0EF06F0020E0A01396F3C0EE1
:100810000A013F6F0A01406B0A01416B0A01426BFA
:100820000A01536B0A013A910A013A95BAEC3DF07C
:10083000016E0150D8B4E0EF06F00A013851E56EC0
:10084000C3EC37F0016EF3CF02F0E12A010E025C37
:1008500002E12C0E015CD8A0E0EF06F0016A0A016B
:100860003AB9012A010E011A0150010BE838F46E61
:100870000A013A51EF0BF4100A013A6F0A0138519C
:100880000E0DF3CF01F0026A600E0126000E022267
:10089000000EE56E0A0EE56EFF0EE56E0250E56E87
:1008A0000150E56E38EC33F0050EE126000EE56EE2
:1008B000010EE56E86EC0AF0020EE1266AEC3FF0CE
:1008C000016EF3CF02F0F4CF03F0E9CF04F0015052
:1008D0000A013B6F02500A013C6F03500A013D6F51
:1008E00004500A013E6F030E0A01396FE0EF06F073
:1008F0000A013851E56E0CEC3BF0016EF3CF02F0CB
:10090000E12A000E025C02E1FA0E015C28E26AECC8
:100910003FF0016EF3CF02F0F4CF03F0E9CF04F023
:100920000A013B51015E0A013C51025A0A013D5144
:10093000035A0A013E51045A000E045C08E1010EFC
:10094000035C05E13D0E025C02E1E40E015CD8A00F
:10095000E0EF06F0020E0A01396FE0EF06F00A013F
:100960003A870EEC00F0016E026A0150020A02E1C1
:10097000025002E0E0EF06F0040E0A01396F0A01AE
:100980003851E56EC3EC37F0016EF3CF02F0E12A87
:10099000010E025C02E1020E015CD8A0E0EF06F05D
:1009A0000A0138510E0DF3CF01F0026A600E0126E4
:1009B000000E0222000EE56E0A0EE56EFF0EE56ED9
:1009C0000250E56E0150E56E38EC33F0050EE1267D
:1009D000000EE56E030EE56E86EC0AF0020EE126CF
:1009E0006AEC3FF0016EF3CF02F0F4CF03F0E9CFF1
:1009F00004F001500A013B6F02500A013C6F0350A2
:100A00000A013D6F04500A013E6F050E0A01396F5D
:100A1000E0EF06F00A013851E56E0CEC3BF0016E98
:100A2000F3CF02F0E12A000E025C02E1FA0E015C53
:100A300026E26AEC3FF0016EF3CF02F0F4CF03F050
:100A4000E9CF04F00A013B51015E0A013C51025A10
:100A50000A013D51035A0A013E51045A000E045C3A
:100A600008E1010E035C05E13D0E025C02E1E40ECB
:100A7000015CD8A0A5D1020E0A01396FA1D10EECFC
:100A800000F0016E026A0150050A02E1025007E01F
:100A90000150060A03E1025001E15FD091D10A0141
:100AA0003851E56E0BEC38F0E12A0A0138696AEC3E
:100AB0003FF0016EF3CF02F0F4CF03F0E9CF04F082
:100AC00001500A013B6F02500A013C6F03500A01BA
:100AD0003D6F04500A013E6F060E0A01396F0A018C
:100AE0003A830A013A810A0153A110D00A01475101
:100AF0000E01006F0A0148510E01016F0A014951B0
:100B00000E01026F0A014A510E01036F0A0153A53B
:100B100010D00A014F510E01046F0A0150510E010D
:100B2000056F0A0151510E01066F0A0152510E0163
:100B3000076F0A0153A344D10A014B510E01086FFC
:100B40000A014C510E01096F0A014D510E010A6F45
:100B50000A014E510E010B6F33D1020E0A01396F9B
:100B60002FD16AEC3FF0016EF3CF02F0F4CF03F027
:100B7000E9CF04F03BCA05F03CCA06F03DCA07F0D5
:100B80003ECA08F00550015E0650025A0750035A4B
:100B90000850045A000E045C08E1000E035C05E1F5
:100BA0009E0E025C02E1F20E015CD8A009D13FCAA0
:100BB00001F040CA02F041CA03F042CA04F0000E3C
:100BC000045C08E1000E035C05E1000E025C02E13A
:100BD000020E015C29E3F20E05269E0E0622000E8F
:100BE0000722000E082205500A013B6F06500A0139
:100BF0003C6F07500A013D6F08500A013E6FFF0E1F
:100C00000126FF0E0222FF0E0322FF0E04220150D6
:100C10000A013F6F02500A01406F03500A01416F01
:100C200004500A01426FCCD0000EE56E430EE56E13
:100C3000000EE56E000EE56E000EE56E000EE56E30
:100C4000440EE56E39EC18F0016E070EE1260150F6
:100C50000A01386F38CA01F0026A0150FF0A03E145
:100C6000025001E1ADD0070E0A01396F0A01385177
:100C7000E56EC3EC37F0016EF3CF02F0E12A010E0E
:100C8000025C02E1020E015CD8A09AD0010EE56E72
:100C9000030EE56E86EC0AF0020EE1260A013A9593
:100CA0006AEC3FF0016EF3CF02F0F4CF03F0E9CF2E
:100CB00004F001500A013B6F02500A013C6F0350DF
:100CC0000A013D6F04500A013E6F39CA01F0012A42
:100CD00001500A01396F74D00A013851E56E0CECED
:100CE0003BF0016EF3CF02F0E12A000E025C02E15C
:100CF000FA0E015C30E26AEC3FF0016EF3CF02F0D5
:100D0000F4CF03F0E9CF04F00A013B51015E0A0180
:100D10003C51025A0A013D51035A0A013E51045AFC
:100D2000000E045C08E1010E035C05E13D0E025C6F
:100D300002E1E40E015CD8A043D00A013929016E1A
:100D400001500A01396F0D0E015CD8A039D0020E96
:100D50000A01396F35D00EEC00F0016E026A0150C5
:100D6000050A02E1025006E00150060A29E102509C
:100D700024E026D00A013851E56E0BEC38F0E12A68
:100D80000A0138696AEC3FF0016EF3CF02F0F4CF4C
:100D900003F0E9CF04F001500A013B6F02500A0151
:100DA0003C6F03500A013D6F04500A013E6F060E6E
:100DB0000A01396F0A013A8303D0020E0A01396F22
:100DC000002A9AEF03F0E4CF08F0E4CF07F0E4CF75
:100DD00006F0E4CF05F0E4CF04F0E4CF03F0E4CF75
:100DE00002F0E4CF01F0E4CF00F0E4CFD9FF12002D
:100DF000D9CFE5FFE1CFD9FF00C0E5FF01C0E5FF96
:100E000002C0E5FF03C0E5FF04C0E5FF05C0E5FF44
:100E100006C0E5FF07C0E5FF08C0E5FF09C0E5FF24
:100E20000AC0E5FF0BC0E5FF0CC0E5FF020EDBCFFB
:100E300000F0030EDBCF01F00A01F96B0A01FA6B37
:100E40000A01FB6B0A01FC6B0A01F96B0A01FA6BE0
:100E50000A01FB6B0A01FC6B0A01F96B0A01FA6BD0
:100E60000A01FB6B0A01FC6B0A01F96B0A01FA6BC0
:100E70000A01FB6B0A01FC6B0A01F96B0A01FA6BB0
:100E80000A01FB6B0A01FC6B0A01F96B0A01FA6BA0
:100E90000A01F96B0A01FA6B0A01F96B0A01FA6B94
:100EA0000A01F9910A01F9930A01F9950A01F997E2
:100EB0000A01F9990A01F99B0A01F99D0A01F99FB2
:100EC0000A01FA910A01FA930A01FA950A01FA97BE
:100ED0000A01FA990A01FA9B0A01FA9D0A01FA9F8E
:100EE0000A01FB6B0A01FC6B0A01FB6B0A01FC6B3C
:100EF0000A01FB6B0A01FC6B0A01FB910A01FB93DF
:100F00000A01FB950A01FB970A01FB990A01FB9B69
:100F10000A01FB9D0A01FB9F0A01FC910A01FC9357
:100F20000A01FC950A01FC970A01FC990A01FC9B45
:100F30000A01FC9D0A01FC9F0A01F9910A01F9933B
:100F40000A01F9950A01F9970A01F9990A01F99B31
:100F50000A01F99D0A01F99F0A01FA910A01FA931F
:100F60000A01FA950A01FA970A01FA990A01FA9B0D
:100F70000A01FA9D0A01FA9F0A01FB910A01FB93FB
:100F80000A01FB950A01FB970A01FB990A01FB9BE9
:100F90000A01FB9D0A01FB9F0A01FC910A01FC93D7
:100FA0000A01FC950A01FC970A01FC990A01FC9BC5
:100FB0000A01FC9D0A01FC9F7BCF02F0036A0250EC
:100FC000056E046A7ACF02F0036A045002120550DB
:100FD000031200500110D8B47DD0000E015C02E174
:100FE000150E005C04E3140E046E056A04D000C004
:100FF00004F001C005F004C04AF105C04BF10A0E2F
:10100000076E6D0E066E800E086E0550E56E04507C
:10101000E56E0850E56E0750E56E0650E56E7DEC16
:1010200031F0050EE1260450005E0550015A010121
:101030004AA113D06D0E01014A25046E0A0E01016A
:101040004B21056E04C0E9FF05C0EAFF000EEF6EFC
:1010500001014A2B02E301014B2B0A0E056E6D0EB6
:10106000046E800E066E4AC107F04BC108F00750AF
:101070000810D8B4AED704C0E9FF05C0F3FF06508E
:10108000C9EC3EF0096EF3CF0AF0020E0426000E02
:101090000522000E06220B6A0C6A0A01F951092684
:1010A0000A01FA510A220A01FB510B220A01FC51E2
:1010B0000C2209500A01F96F0A500A01FA6F0B500D
:1010C0000A01FB6F0C500A01FC6FFE0E0726D8A028
:1010D0000806CDD70250006E016A00507A6E0350A8
:1010E000026E036A036A02507B6EF9CA00F0FACA04
:1010F00001F0026A036AFBCA04F0FCCA05F0066A42
:10110000076A0450002605500122065002220750AB
:10111000032200500A01F96F01500A01FA6F0250D0
:101120000A01FB6F03500A01FC6F0A01FB510A011F
:10113000F925006E0A01FC510A01FA21016E0050E6
:101140000A01F96F01500A01FA6F0A01F91D006ED8
:101150000A01FA1D016E01C0F3FF0050E4CF0CF04C
:10116000E4CF0BF0E4CF0AF0E4CF09F0E4CF08F0CD
:10117000E4CF07F0E4CF06F0E4CF05F0E4CF04F0CD
:10118000E4CF03F0E4CF02F0E4CF01F0E4CF00F0CD
:10119000E4CFD9FF1200D9CFE5FFE1CFD9FF00C0DE
:1011A000E5FF01C0E5FF02C0E5FF03C0E5FF04C0A5
:1011B000E5FF05C0E5FF06C0E5FF07C0E5FF08C085
:1011C000E5FF09C0E5FF0AC0E5FF0BC0E5FF0CC065
:1011D000E5FF0DC0E5FF0EC0E5FF0FC0E5FF10C045
:1011E000E5FF11C0E5FF12C0E5FF13C0E5FF14C025
:1011F000E5FF15C0E5FF16C0E5FF17C0E5FF18C005
:10120000E5FF19C0E5FF1AC0E5FF1BC0E5FF020EB0
:10121000DBCF00F0030EDBCF01F0040EDBCF02F0DA
:10122000050EDBCF03F0060EDBCF04F0070EDBCF9D
:1012300005F0080EDBCF06F0090EDBCF07F00A0E33
:10124000DBCF08F0FF0E096E000E0B6E600E0A6E0B
:10125000800E0C6E0D6A0050020F0E6E000E012003
:101260000F6E000E0220106E0EC0E9FF0FC0F3FFDC
:101270001050C9EC3EF00E6EF3CF0FF00AC010F024
:101280000BC011F00CC012F0136A13C014F0156AF1
:10129000000E155C02E10A0E145CD8B0B4D01050F8
:1012A0000C0F146E000E1120156E000E1220166E1B
:1012B00014C0E9FF15C0F3FF1650C9EC3EF0146EE0
:1012C000F3CF15F014500E1803E115500F1801E07C
:1012D00090D010500A0F146E000E1120156E000EE3
:1012E0001220166E14C0E9FF15C0F3FF1650C9ECAA
:1012F0003EF0146EF3CF15F000C0E9FF01C0F3FF1C
:101300000250C9EC3EF0166EF3CF17F014501618C9
:1013100003E11550171801E06AD010C0E9FF11C0B1
:10132000F3FF12501EEC3EF0146EF3CF15F0F4CF25
:1013300016F0E9CF17F003C0E9FF04C0F3FF055032
:101340001EEC3EF0186EF3CF19F0F4CF1AF0E9CF8F
:101350001BF0145018180AE11550191807E116501F
:101360001A1804E117501B1801E13FD006C0E9FF2D
:1013700007C0F3FF08501EEC3EF0146EF3CF15F0DB
:10138000F4CF16F0E9CF17F01450FF0A09E1155019
:10139000FF0A06E11650FF0A03E11750FF0A25E095
:1013A0000E01041D186E0E01051D196E0E01061D9D
:1013B0001A6E0E01071D1B6E0E01005118120E0150
:1013C000015119120E0102511A120E0103511B1282
:1013D0001450181809E11550191806E116501A187A
:1013E00003E117501B1801E002D00D5054D013C078
:1013F00009F00E0E1026000E1122000E1222132AE2
:1014000013C00DF042D709C006F0076A0650FF0A64
:1014100003E1075001E13ED009500E0DF3CF06F075
:10142000076A600E0626000E072207500B6E065054
:101430000A6E800E0C6E000EE56E0A0EE56E05500B
:10144000E56E0450E56E0350E56E0C50E56E0B50F2
:10145000E56E0A50E56E1DEC2FF0080EE1260A0E2F
:101460000A26000E0B22000E0C2200C0E9FF01C06C
:10147000F3FF0250C9EC3EF0006EF3CF01F000C064
:10148000E5FF01C0F4FF0AC0E9FF0BC0F3FF0C50F9
:101490001EEC40F00950E4CF1BF0E4CF1AF0E4CF8B
:1014A00019F0E4CF18F0E4CF17F0E4CF16F0E4CF52
:1014B00015F0E4CF14F0E4CF13F0E4CF12F0E4CF52
:1014C00011F0E4CF10F0E4CF0FF0E4CF0EF0E4CF52
:1014D0000DF0E4CF0CF0E4CF0BF0E4CF0AF0E4CF52
:1014E00009F0E4CF08F0E4CF07F0E4CF06F0E4CF52
:1014F00005F0E4CF04F0E4CF03F0E4CF02F0E4CF52
:1015000001F0E4CF00F0E4CFD9FF1200D9CFE5FF1E
:10151000E1CFD9FF00C0E5FF01C0E5FF02C0E5FF54
:1015200003C0E5FF04C0E5FF05C0E5FF06C0E5FF19
:1015300007C0E5FF08C0E5FF020EDBCF00F0030E99
:10154000DBCF01F0010EE56EE5EC36F0E12A010E8D
:10155000E56EE5EC36F0E12A060EE56EE5EC36F0D8
:10156000E12A000EE56EE5EC36F0E12A120EE56E9A
:10157000E5EC36F0E12A230EE56EE5EC36F0E12AE3
:10158000340EE56EE5EC36F0E12A560EE56EE5EC3C
:1015900036F0E12A000EE56EE5EC36F0E12A000EA9
:1015A000E56EE5EC36F0E12A0A013AA902D0026ABA
:1015B00002D0800E026E0250E56EE5EC36F0E12AB4
:1015C000000EE56EE5EC36F0E12A00C002F0036A99
:1015D000046A0250030A03E1035001E1042A0450A3
:1015E00017E0015015E00A0E066E470E056E800EDC
:1015F000076E000EE56E040EE56E0750E56E0650B0
:10160000E56E0550E56E20EC30F0050EE12614D0B5
:10161000000EE56EE5EC36F0E12A000EE56EE5EC35
:1016200036F0E12A000EE56EE5EC36F0E12A000E18
:10163000E56EE5EC36F0E12A0C0E056E000EE56E67
:10164000E5EC36F0E12A05060550F8E10E0E076ECE
:101650002D0E066E800E086E000EE56E060EE56E0F
:101660000850E56E0750E56E0650E56E20EC30F050
:10167000050EE126CA0E056E000EE56EE5EC36F0AD
:10168000E12A052EF9D7630EE56EE5EC36F0E12A86
:10169000820EE56EE5EC36F0E12A530EE56EE5ECE0
:1016A00036F0E12A630EE56EE5EC36F0E12A350E00
:1016B000E56EE5EC36F0E12A010EE56EE5EC36F07C
:1016C000E12A0050E56EE5EC36F0E12A006A0250AE
:1016D000010A03E1035001E1002A005002E00A017F
:1016E0003A95045024E0015022E1360EE56EE5EC17
:1016F00036F0E12A040EE56EE5EC36F0E12A0A0147
:101700004651E56EE5EC36F0E12A0A014551E56EF9
:10171000E5EC36F0E12A0A014451E56EE5EC36F0DD
:10172000E12A0A014351E56EE5EC36F0E12A370E75
:10173000E56EE5EC36F0E12A040EE56EE5EC36F0F8
:10174000E12A010EE56EE5EC36F0E12A030EE56EC6
:10175000E5EC36F0E12A060EE56EE5EC36F0E12A1E
:101760000C0EE56EE5EC36F0E12A045002E0015083
:101770000BE0005027E00A0147510A0148110A0115
:1017800049110A014A111EE0320EE56EE5EC36F011
:10179000E12A040EE56EE5EC36F0E12A0A0E026E4F
:1017A000470E006E800E036E000EE56E040EE56EB1
:1017B0000350E56E0250E56E0050E56E20EC30F00F
:1017C000050EE126FF0EE56EE5EC36F0E12A010E8E
:1017D00001016B5D03E12C0E01016A5D06E2000E62
:1017E000E56EE5EC36F0E12AF2D70E0100510A0170
:1017F000F56F0E0101510A01F66F0E0102510A0147
:10180000F76F0E0103510A01F86F015008E10E0154
:10181000006B0E01016B0E01026B0E01036B15ECE8
:1018200014F00A01F5510E01006F0A01F6510E0184
:10183000016F0A01F7510E01026F0A01F8510E0102
:10184000036FE4CF08F0E4CF07F0E4CF06F0E4CF75
:1018500005F0E4CF04F0E4CF03F0E4CF02F0E4CFEE
:1018600001F0E4CF00F0E4CFD9FF1200D9CFE5FFBB
:10187000E1CFD9FF00C0E5FF01C0E5FF02C0E5FFF1
:1018800003C0E5FF04C0E5FF05C0E5FF06C0E5FFB6
:1018900007C0E5FF020EDBCF4CF1030EDBCF4DF1AD
:1018A000040EDBCF4EF1050EDBCF4FF1060EDBCF82
:1018B00000F0070EDBCF01F0026A036A01014DAFB1
:1018C00013D0010E026EE3CE04F0056A0450076ED9
:1018D000066AE2CE04F0056A0450061001014C6F5E
:1018E0000550071001014D6F01014FAF13D0010EDC
:1018F000036E7BCF04F0056A0450076E066A7ACF48
:1019000004F0056A0450061001014E6F05500710DF
:1019100001014F6F000E015C02E1020E005CD8B0C5
:101920007CD07BCF04F0056A0450076E066A7ACF3C
:1019300004F0056A04500612055007120650010112
:10194000506F07500101516FE3CE04F0056A045057
:10195000076E066AE2CE04F0056A045006120550CE
:10196000071206500101526F07500101536F010128
:101970004E51046E056A04507A6E01014F51046E97
:10198000056A056A04507B6E01014C51046E056ABC
:1019900004500E01E26F01014D51046E056A056AA3
:1019A00004500E01E36F00C004F001C005F004C054
:1019B00006F005C007F0FF0E0426D8A00506065065
:1019C000071009E048EC40F0066E0650E56E2AEC80
:1019D00040F0E12AECD703500DE101015051046EB3
:1019E000056A04507A6E01015151046E056A056A58
:1019F00004507B6E0250D8A4D5D001015251046E20
:101A0000056A04500E01E26F01015351046E056A2C
:101A1000056A04500E01E36FC5D0025023E0005068
:101A200001014C25026E015001014D21046E02504E
:101A30000101526F04500101536F52C1E8FF53C1BD
:101A4000E8FF0250056E066A05500E01E26F52C1B2
:101A5000E8FF53C1E8FF0450026E046A046A0250B2
:101A60000E01E36F01014E51FF0F026EFF0E0101E7
:101A70004F21046E0250002604500122D2BAFED734
:101A800001014E51026E046A02500E01F06F010115
:101A90004F51026E046A046A02500E01F16F010197
:101AA0004C51026E046A02500E01F46F01014D5157
:101AB000026E046A046A02500E01F56F4EC102F014
:101AC0004FC104F0056A066A000E065C08E1000ECC
:101AD000055C05E11A0E045C02E10A0E025C026A72
:101AE000023602501EE100C004F001C005F0066A93
:101AF000076A000E075C08E1000E065C05E11A0E9D
:101B0000055C02E10A0E045C0CE3F60E0426E50E09
:101B10000522FF0E0622FF0E07220450006E05501C
:101B2000016E0050046E056A04500E01F26F015000
:101B3000046E056A056A04500E01F36FD298D28ACA
:101B4000D2BAFED703502EE0002AD8B0012A0250A4
:101B50001EE100C002F001C003F0046A056A000E35
:101B6000055C08E1000E045C05E11A0E035C02E16D
:101B70000A0E025C0CE3F60E0226E50E0322FF0EAF
:101B80000422FF0E05220250006E0350016E005029
:101B9000026E036A02507A6E0150006E016A016A99
:101BA00000507B6EE4CF07F0E4CF06F0E4CF05F001
:101BB000E4CF04F0E4CF03F0E4CF02F0E4CF01F08F
:101BC000E4CF00F0E4CFD9FF1200D9CFE5FFE1CF99
:101BD000D9FF00C0E5FF01C0E5FF02C0E5FF03C07B
:101BE000E5FF04C0E5FF05C0E5FF06C0E5FF07C04F
:101BF000E5FF08C0E5FF09C0E5FF0AC0E5FF0BC02F
:101C0000E5FF0CC0E5FF0DC0E5FF0E012CAD47D090
:101C1000BAEC3DF0006E00500A01611901E133D0C9
:101C200000C061FA00502FE114CE00F015CE01F093
:101C300016CE02F017CE03F000500E01006F0150D7
:101C40000E01016F02500E01026F03500E01036F6F
:101C500018CE00F019CE01F01ACE02F01BCE03F020
:101C600000500E01046F01500E01056F02500E016D
:101C7000066F03500E01076F0E012C8F000EE56EEC
:101C8000D7EC38F0E12A83EC03F0000EE56E9CEC13
:101C90003FF0006EE12A005002E00E012C9F34EC70
:101CA00040F009EC3FF00A0E016EC30E006E800E8C
:101CB000026E010E046E860E036E800E056E0550D8
:101CC000E56E0450E56E0350E56E0250E56E01507E
:101CD000E56E0050E56EA9EC1CF0006E060EE126E4
:101CE0000050D8B4EAD086C100F0016A005002E189
:101CF000015009E00050060A02E1015001E0D1D78D
:101D0000F9EC16F0CED7010E016E140E006E800EA7
:101D1000026E0A0E046EBF0E036E800E056E010E7B
:101D2000076E870E066E800E086E010E0A6E620E3A
:101D3000096E800E0B6E0B50E56E0A50E56E095071
:101D4000E56E0850E56E0750E56E0650E56E0550ED
:101D5000E56E0450E56E0350E56E0250E56E0150ED
:101D6000E56E0050E56E6AEC19F0006E0C0EE1268F
:101D70000050D8B496D787C100F0016A0050010A1C
:101D800002E1015001E06DD014C102F015C103F071
:101D900016C104F017C105F000CE06F001CE07F021
:101DA00002CE08F003CE09F0025006180AE10350F3
:101DB000071807E10450081804E10550091801E16B
:101DC00039D00250FF0A09E10350FF0A06E104502E
:101DD000FF0A03E10550FF0A2DE00E01045106162B
:101DE0000E01055107160E01065108160E01075186
:101DF00009160E01041D0A6E0E01051D0B6E0E0163
:101E0000061D0C6E0E01071D0D6E0A5006120B50BA
:101E100007120C5008120D5009120250061809E161
:101E20000350071806E10450081803E1055009188B
:101E300001E037D70A0E036EBF0E026E800E046EED
:101E400001016351E56E01016251E56E0450E56EDA
:101E50000350E56E0250E56E3FEC24F0050EE126DE
:101E600020D70050110A02E1015001E01AD70A0EF2
:101E7000016EBF0E006E800E026E010E046E140E17
:101E8000036E800E056E01016351E56E0101625122
:101E9000E56E0550E56E0450E56E0350E56E0250A8
:101EA000E56E0150E56E0050E56EA0EC12F0006E9C
:101EB000080EE1260050D8B4F4D6E4CF0DF0E4CFFC
:101EC0000CF0E4CF0BF0E4CF0AF0E4CF09F0E4CF5C
:101ED00008F0E4CF07F0E4CF06F0E4CF05F0E4CF5C
:101EE00004F0E4CF03F0E4CF02F0E4CF01F0E4CF5C
:101EF00000F0E4CFD9FF1200D9CFE5FFE1CFD9FF41
:101F000000C0E5FF01C0E5FF02C0E5FF03C0E5FF3B
:101F100004C0E5FF05C0E5FF06C0E5FF07C0E5FF1B
:101F200008C0E5FF020EDBCF00F0030EDBCF01F0AF
:101F3000040EDBCF02F0050EDBCF5EF1060EDBCF29
:101F40005FF10101086B0101096B01010A6B0101DD
:101F50000B6B0101086B0101096B01010A6B0101A7
:101F60000B6B0101086B0101096B01010A6B010197
:101F70000B6B0101086B0101096B01010A6B010187
:101F80000B6B0101086B0101096B01010A6B010177
:101F90000B6B0101086B0101096B0101086B010169
:101FA000096B0101086B0101096B01010891010135
:101FB00008930101089501010897010108990101A1
:101FC000089B0101089D0101089F01010991010180
:101FD000099301010995010109970101099901017D
:101FE000099B0101099D0101099F01010A6B010182
:101FF0000B6B01010A6B01010B6B01010A6B010103
:102000000B6B01010A9101010A9301010A9501017B
:102010000A9701010A9901010A9B01010A9D010128
:102020000A9F01010B9101010B9301010B95010125
:102030000B9701010B9901010B9B01010B9D010104
:102040000B9F01010891010108930101089501010D
:102050000897010108990101089B0101089D0101F0
:10206000089F0101099101010993010109950101ED
:102070000997010109990101099B0101099D0101CC
:10208000099F01010A9101010A9301010A950101C9
:102090000A9701010A9901010A9B01010A9D0101A8
:1020A0000A9F01010B9101010B9301010B950101A5
:1020B0000B9701010B9901010B9B01010B9D010184
:1020C0000B9FD89001015F31046E01015E31036EF8
:1020D00003C005F004C006F0FF0E0326D8A00406D6
:1020E000055006102BE000C0E9FF01C0F3FF0250CD
:1020F000C9EC3EF0056EF3CF06F0020E0026000E8E
:102100000122000E0222076A086A01010851052611
:1021100001010951062201010A51072201010B5157
:10212000082205500101086F06500101096F075090
:1021300001010A6F085001010B6FCAD701015EA1AE
:1021400023D000C0E9FF01C0F3FF02507BEC3FF059
:10215000006E016A026A036A01010851002601014A
:102160000951012201010A51022201010B510322EE
:1021700000500101086F01500101096F0250010177
:102180000A6F035001010B6F08C100F009C101F093
:10219000026A036A0AC104F00BC105F0066A076A05
:1021A0000450002605500122065002220750032247
:1021B00000500101086F01500101096F0250010137
:1021C0000A6F035001010B6F01010A51010108253B
:1021D000006E01010B5101010921016E0050010146
:1021E000086F01500101096F0101081D006E010116
:1021F000091D016E01C0F3FF0050E4CF08F0E4CFE9
:1022000007F0E4CF06F0E4CF05F0E4CF04F0E4CF2C
:1022100003F0E4CF02F0E4CF01F0E4CF00F0E4CF2C
:10222000D9FF1200D9CFE5FFE1CFD9FF00C0E5FF0C
:1022300001C0E5FF02C0E5FF03C0E5FF04C0E5FF04
:1022400005C0E5FF06C0E5FF07C0E5FF08C0E5FFE4
:1022500009C0E5FF0AC0E5FF0BC0E5FF0CC0E5FFC4
:102260000DC0E5FF020EDBCF00F0030EDBCF01F067
:10227000040EDBCF02F0050EDBCF03F0060EDBCF42
:1022800004F0070EDBCF05F0066A076A0101006B58
:102290000101016B0101026B0101036B00C0E9FF49
:1022A00001C0F3FF02507BEC3FF0086E002AD8B06B
:1022B000012AD8B0022A08C009F00850D8B4D0D0FA
:1022C00007C008F00A6A000E0A5C02E1040E085C0E
:1022D000D8B0C6D0D00E092606500CE109C008F0CF
:1022E0000A6A000E0A5C02E10A0E085CD8A09DD0C2
:1022F000E86A07D106C008F00A6A0850030A02E13A
:102300000A5001E044D00950FE0A02E0E86AF9D020
:10231000000E0101035D0BE1020E0101025D07E108
:10232000050E0101015D03E1060E0101005D02E3FE
:10233000E86AE7D007C008F0072A0A6A0B6A035068
:10234000082604500A2205500B2201010251640D97
:10235000F3CF0CF0010101510A0DF3CF0DF00D5038
:102360000C26010100510C260CC0E5FF08C0E9FF56
:102370000AC0F3FF0B503EEC40F0066A0101006B0F
:102380000101016B0101026B0101036B87D7095049
:10239000FE0A01E03FD0000E0101035D0BE1020ED9
:1023A0000101025D07E1050E0101015D03E1060E79
:1023B0000101005D02E3E86AA4D007C008F0072A23
:1023C0000A6A0B6A0350082604500A2205500B22A1
:1023D00001010251640DF3CF0CF0010101510A0D0E
:1023E000F3CF0DF00D500C26010100510C260CC04E
:1023F000E5FF08C0E9FF0AC0F3FF0B503EEC40F0D8
:10240000066A0101006B0101016B0101026B010110
:10241000036B44D709C008F00A6A000E0A5C02E1A7
:102420000A0E085C02E3E86A6CD0062A0101025138
:102430000C6E010101510B6E010100510A6E086A18
:1024400008500101006F0A500101016F0B5001019A
:10245000026F0C500101036F09500101006F1ED77C
:1024600009501EE009C000F0016A00502F0A02E185
:10247000015016E000500D0A02E1015011E0005039
:102480000A0A02E101500CE00050200A02E101506A
:1024900007E00050090A02E1015002E0E86A31D089
:1024A000000E0101035D0BE1020E0101025D07E177
:1024B000050E0101015D03E1060E0101005D02E36D
:1024C000E86A1FD0030E0326000E0422000E052228
:1024D00001010251640DF3CF00F0010101510A0D19
:1024E000F3CF01F00150002601010051002600C089
:1024F000E5FF03C0E9FF04C0F3FF05503EEC40F0E8
:10250000010EE4CF0DF0E4CF0CF0E4CF0BF0E4CFFC
:102510000AF0E4CF09F0E4CF08F0E4CF07F0E4CF0D
:1025200006F0E4CF05F0E4CF04F0E4CF03F0E4CF0D
:1025300002F0E4CF01F0E4CF00F0E4CFD9FF1200C5
:10254000D9CFE5FFE1CFD9FF00C0E5FF01C0E5FF2E
:1025500002C0E5FF03C0E5FF04C0E5FF05C0E5FFDD
:1025600006C0E5FF07C0E5FF08C0E5FF09C0E5FFBD
:102570000AC0E5FF0BC0E5FF020EDBCF00F0030E43
:10258000DBCF01F0040EDBCF02F0050EDBCF03F052
:10259000060EDBCF04F0070EDBCF05F0080EDBCF15
:1025A00006F0090EDBCF07F001016E6B01016F6BC6
:1025B0000A0E096ED90E086E800E0A6E000EE56EC8
:1025C000080EE56E0A50E56E0950E56E0850E56E9E
:1025D0007DEC31F0050EE1260A01DA51E56E0A01C3
:1025E000D951E56E87EC3CF0086EF3CF09F0020E8E
:1025F000E12608500A01D96F09500A01DA6F0A0171
:10260000DC51E56E0A01DB51E56E87EC3CF0086EAB
:10261000F3CF09F0020EE12608500A01DB6F0950E2
:102620000A01DC6F0A01DE51E56E0A01DD51E56E3B
:1026300087EC3CF0086EF3CF09F0020EE126F80EAD
:102640000826D8A0090608500A01DD6F09500A01C2
:10265000DE6F0A01DF510A01E011D8B496D000C044
:10266000E9FF01C0F3FF02501EEC3EF0086EF3CF0D
:1026700009F0F4CF0AF0E9CF0BF008500A01A96F76
:1026800009500A01AA6F0A500A01AB6F0B500A01E8
:10269000AC6F03C0E9FF04C0F3FF05501EEC3EF031
:1026A000086EF3CF09F0F4CF0AF0E9CF0BF0085031
:1026B0000A01AD6F09500A01AE6F0A500A01AF6FEF
:1026C0000B500A01B06F0A01B16B110E0A01B26F13
:1026D00006500A01B36F07500A01B46F0750E56E48
:1026E0000650E56E87EC3CF0086EF3CF09F0020E61
:1026F000E12608500A01B36F09500A01B46F0A0EAF
:10270000096EA90E086E800E0A6E000EE56E0C0EA4
:10271000E56E0A50E56E0950E56E0850E56E7CECFA
:102720000FF0086EF3CF09F0050EE126081E091E12
:1027300008500101206F09500101216F000EE56E64
:10274000000EE56E06EC3CF0020EE1260750E56E49
:102750000650E56EF8EC06F0066EF3CF07F0020EB9
:10276000E12606500101226F07500101236F01018C
:1027700020510101221905E1010121510101231913
:1027800004E030EC37F0E86A35D00A0E076ED90E57
:10279000066E800E086E0550E56E0450E56E03501F
:1027A000E56E0250E56E0150E56E0050E56E085092
:1027B000E56E0750E56E0650E56ECBEC08F0006E56
:1027C000090EE12600C001F0026A0150FF0A02E191
:1027D000025001E004D030EC37F0E86A0BD000C0C2
:1027E00067FADDCA6EF1DECA6FF10101888101016D
:1027F0008893010EE4CF0BF0E4CF0AF0E4CF09F0A8
:10280000E4CF08F0E4CF07F0E4CF06F0E4CF05F022
:10281000E4CF04F0E4CF03F0E4CF02F0E4CF01F022
:10282000E4CF00F0E4CFD9FF1200D9CFE5FFE1CF2C
:10283000D9FF00C0E5FF01C0E5FF02C0E5FF03C00E
:10284000E5FF04C0E5FF05C0E5FF06C0E5FF07C0E2
:10285000E5FF08C0E5FF010189510E0DF3CF00F03F
:10286000016A600E0026000E01220150016E005028
:10287000006E800E026E01016A51080F036E000E99
:1028800001016B21046E00500C0F056E000E01203B
:10289000066E000E0220076E05C0E9FF06C0F3FFBA
:1028A0000750C9EC3EF0056EF3CF06F00650E56E1A
:1028B0000550E56E87EC3CF0056EF3CF06F0020E96
:1028C000E12605500A01D16F06500A01D26F00506F
:1028D0000A0F056E000E0120066E000E0220076E24
:1028E00005C0E9FF06C0F3FF0750C9EC3EF0056ED6
:1028F000F3CF06F00650E56E0550E56E87EC3CF030
:10290000056EF3CF06F0020EE12605500A01D36FE3
:1029100006500A01D46F0450E56E0350E56E87EC53
:102920003CF0056EF3CF06F0020EE12605500A01D9
:10293000D56F06500A01D66F0A01D76B0A01D86B12
:102940000E0100510801F26F0E0101510801F36FF1
:102950000E0102510801F46F0E0103510801F56FD9
:1029600000C0E9FF01C0F3FF02501EEC3EF0056E0F
:10297000F3CF06F0F4CF07F0E9CF08F005500801D7
:10298000F66F06500801F76F07500801F86F0850FE
:102990000801F96F0801FA6B110E0801FB6F035073
:1029A0000801FC6F04500801FD6F0450E56E0350F0
:1029B000E56E87EC3CF0056EF3CF06F0020EE126E3
:1029C00005500801FC6F06500801FD6F080E066EE9
:1029D000F20E056E800E076E000EE56E0C0EE56EB3
:1029E0000750E56E0650E56E0550E56E7CEC0FF085
:1029F000056EF3CF06F0050EE126051E061E0550F6
:102A00000A01D76F06500A01D86F1A0EE56E190E2B
:102A1000E56E19EC39F0020EE1260450E56E035024
:102A2000E56E110EE56E0250E56E0150E56E005048
:102A3000E56EB2EC20F0060EE1260A0E016ED10E14
:102A4000006E800E026E000EE56E080EE56E0250FE
:102A5000E56E0150E56E0050E56E9AEC36F0050E1D
:102A6000E1261A0EE56E2D0EE56E9DEC39F0006E36
:102A7000F3CF01F0020EE1260450E56E0350E56E3F
:102A8000F8EC06F001016C6FF3CF6DF1020EE12658
:102A90000150E56E0050E56E9DEC39F0020EE12626
:102AA0001A0EE56E330EE56E19EC39F0020EE126D2
:102AB000010E016E6C0E006E800E026E000EE56E51
:102AC000020EE56E0250E56E0150E56E0050E56EB7
:102AD0009AEC36F0050EE12641EC3BF001016A6B01
:102AE00001016B6BFF0E0A01666FE4CF08F0E4CFC3
:102AF00007F0E4CF06F0E4CF05F0E4CF04F0E4CF34
:102B000003F0E4CF02F0E4CF01F0E4CF00F0E4CF33
:102B1000D9FF1200D9CFE5FFE1CFD9FF00C0E5FF13
:102B200001C0E5FF02C0E5FF03C0E5FF04C0E5FF0B
:102B300005C0E5FF06C0E5FF07C0E5FF08C0E5FFEB
:102B400009C0E5FF0AC0E5FF0BC0E5FF0CC0E5FFCB
:102B50000DC0E5FF0EC0E5FF0FC0E5FF10C0E5FFAB
:102B600011C0E5FF12C0E5FF13C0E5FF14C0E5FF8B
:102B700015C0E5FF16C0E5FF17C0E5FF18C0E5FF6B
:102B800019C0E5FF1AC0E5FF1BC0E5FF1CC0E5FF4B
:102B90001DC0E5FFC2CF00F0C0CF01F0D5CF02F0DD
:102BA000D6CF03F0D7CF04F0010EC26E3F0EC06E39
:102BB000880ED56E056A066A076A086A096A0A6A93
:102BC000D9EC3CF00B6EF3CF0CF0F4CF0DF0E9CF65
:102BD0000EF00F6AD76AD66AC2820400C2B2FED76C
:102BE000D6500101586FD7500101596FD9EC3CF014
:102BF000106EF3CF11F0F4CF12F0E9CF13F058C1FB
:102C000012F059C113F0146A156A125005261350B8
:102C100006221450072215500822000E085C08E115
:102C20009E0E075C05E1F20E065C02E11A0E055CE1
:102C3000D8A048D0D9EC3CF0126EF3CF13F0F4CF0B
:102C400014F0E9CF15F0D9EC3CF0166EF3CF17F085
:102C5000F4CF18F0E9CF19F0183017301D6E1C6A48
:102C60001C321640800B1B6E1650E8407F0B1C1266
:102C70001A6A1A5012121B5013121C5014121D50B3
:102C80001512D9EC3CF0166EF3CF17F0F4CF18F014
:102C9000E9CF19F01640E840C00B1D6E1A6A1B6A96
:102CA0001C6A1A5012121B5013121C5014121D5081
:102CB000151212500B1A13500C1A14500D1A1550ED
:102CC0000E1A47D009500101581905E10A500101B7
:102CD000591901E17FD701015851095C126E0101B8
:102CE00059510A58136E1250102613501122126AAD
:102CF000136A1350E56E1250E56E1150E56E1050D8
:102D0000E56E57EC3FF0040EE12658C109F059C1B9
:102D10000AF00B500B260C360D360E36D9EC3CF073
:102D2000106EF3CF11F0F4CF12F0E9CF13F013507F
:102D3000800F800F08E1000E125C05E1400E115C6F
:102D400002E1000E105C01E30B800F2A0F50D8A4A3
:102D500041D700C0C2FF01C0C0FF04C0D7FF03C0FD
:102D6000D6FF02C0D5FF0EC0E9FF0DC0F4FF0CC0B6
:102D7000F3FF0B50E4CF1DF0E4CF1CF0E4CF1BF0C9
:102D8000E4CF1AF0E4CF19F0E4CF18F0E4CF17F055
:102D9000E4CF16F0E4CF15F0E4CF14F0E4CF13F055
:102DA000E4CF12F0E4CF11F0E4CF10F0E4CF0FF055
:102DB000E4CF0EF0E4CF0DF0E4CF0CF0E4CF0BF055
:102DC000E4CF0AF0E4CF09F0E4CF08F0E4CF07F055
:102DD000E4CF06F0E4CF05F0E4CF04F0E4CF03F055
:102DE000E4CF02F0E4CF01F0E4CF00F0E4CFD9FF6C
:102DF0001200D9CFE5FFE1CFD9FF00C0E5FF01C048
:102E0000E5FF02C0E5FF03C0E5FF04C0E5FF05C024
:102E1000E5FF06C0E5FF07C0E5FF0A015C5106E0DB
:102E20000A015C51010A01E1C4D00FD10A0E016E02
:102E3000000E006E800E026E000EE56E1C0EE56E3A
:102E40000250E56E0150E56E0050E56E7DEC31F00C
:102E5000050EE12630EC37F00A0E016E000E006E12
:102E6000800E026E0250E56E0150E56E0050E56E78
:102E700054EC28F0030EE1260A010051010A03E197
:102E80000A01015101E008D00A010451060A04E1D7
:102E90000A010551040A02E0010ED8D006CA00F06A
:102EA00007CA01F00050020A02E1015001E032D0ED
:102EB0000E0E036E790E026E800E046E0A0E066E02
:102EC000080E056E800E076E000EE56E060EE56EAE
:102ED0000750E56E0650E56E0550E56E0450E56E50
:102EE0000350E56E0250E56E1DEC2FF0080EE12652
:102EF0000A010E510E01756F0A010F510E01766F16
:102F00000A0110510E01776F0A0111510E01786FFD
:102F1000010E9CD00050010A02E1015001E049D0AD
:102F20000A0118510E0100190FE10A0119510E0191
:102F300001190AE10A011A510E01021905E10A01FB
:102F40001B510E01031902E0010E80D00A010E513F
:102F50000A01B56F0A010F510A01B66F0A0110513B
:102F60000A01B76F0A0111510A01B86F0A0E016E0A
:102F7000B90E006E800E026E0A0E046E080E036E0D
:102F8000800E056E000EE56E060EE56E0550E56ED0
:102F90000450E56E0350E56E0250E56E0150E56E9B
:102FA0000050E56E1DEC2FF0080EE126010E0A011F
:102FB0005C6F020E0A01066F0A01076B0A0E016EB2
:102FC000120E006E800E026E0A0E046EB90E036EB3
:102FD000800E056E000EE56E060EE56E0550E56E80
:102FE0000450E56E0350E56E0250E56E0150E56E4B
:102FF0000050E56E1DEC2FF0080EE1260A01B551D8
:103000000A01186F0A01B6510A01196F0A01B75176
:103010000A011A6F0A01B8510A011B6F0A0E016EEC
:10302000000E006E800E026E0250E56E0150E56EDD
:103030000050E56EB3EC1FF0006E030EE126005069
:1030400002E1E86A03D00A015C6B010EE4CF07F0ED
:10305000E4CF06F0E4CF05F0E4CF04F0E4CF03F0D2
:10306000E4CF02F0E4CF01F0E4CF00F0E4CFD9FFE9
:103070001200D9CFE5FFE1CFD9FF00C0E5FF01C0C5
:10308000E5FF02C0E5FF03C0E5FF04C0E5FF05C0A2
:10309000E5FF06C0E5FF07C0E5FF08C0E5FF09C082
:1030A000E5FF0AC0E5FF0BC0E5FF0CC0E5FF0DC062
:1030B000E5FF0EC0E5FF0FC0E5FF10C0E5FF11C042
:1030C000E5FF12C0E5FF13C0E5FF020EDBCF00F005
:1030D000030EDBCF01F0040EDBCF02F0050EDBCFD9
:1030E00003F0060EDBCF04F0070EDBCF05F0080E71
:1030F000DBCF06F0000E086E600E076E800E096EC4
:103100000A6A07C00BF008C00CF009C00DF00E6A87
:103110000EC00FF0106A000E105C02E10A0E0F5C88
:10312000D8B0ACD00B500C0F0F6E000E0C20106EF0
:10313000000E0D20116E0FC0E9FF10C0F3FF1150FB
:10314000C9EC3EF0126EF3CF13F012501310D8A456
:1031500085D000C0E5FF01C0F4FF0FC0E9FF10C03B
:10316000F3FF11501EEC40F00050011032E1200E30
:103170000101695D03E1010E0101685D08E2100EC5
:103180000101695D03E1000E0101685D05E20101D5
:10319000686B100E0101696F07500C0F0F6E000E67
:1031A0000820106E000E0920116E68C112F069C16E
:1031B00013F00101682B02E30101692B12C0E5FF46
:1031C00013C0F4FF0FC0E9FF10C0F3FF11501EEC55
:1031D00040F002500310041015E0000EE56E0A0ED8
:1031E000E56E0450E56E0350E56E0250E56E095041
:1031F000E56E0850E56E0750E56E1DEC2FF0080EE9
:10320000E12614D007C00FF008C010F009C011F07B
:10321000000EE56E0A0EE56EFF0EE56E1050E56ECF
:103220000F50E56E38EC33F0050EE12607500A0F1B
:103230000F6E000E0820106E000E0920116E05C0E2
:10324000E5FF06C0F4FF0FC0E9FF10C0F3FF115007
:103250001EEC40F00AC089F10A5011D00E0E0B2668
:10326000000E0C22000E0D220BC007F00CC008F05F
:103270000DC009F00E2A0EC00AF04AD7E868E4CF64
:1032800013F0E4CF12F0E4CF11F0E4CF10F0E4CF6C
:103290000FF0E4CF0EF0E4CF0DF0E4CF0CF0E4CF6C
:1032A0000BF0E4CF0AF0E4CF09F0E4CF08F0E4CF6C
:1032B00007F0E4CF06F0E4CF05F0E4CF04F0E4CF6C
:1032C00003F0E4CF02F0E4CF01F0E4CF00F0E4CF6C
:1032D000D9FF1200D9CFE5FFE1CFD9FF00C0E5FF4C
:1032E00001C0E5FF02C0E5FF03C0E5FF04C0E5FF44
:1032F00005C0E5FF06C0E5FF07C0E5FF08C0E5FF24
:1033000009C0E5FF0AC0E5FF0BC0E5FF0CC0E5FF03
:103310000DC0E5FF0EC0E5FF0FC0E5FF020EDBCFDD
:1033200000F0030EDBCF01F0040EDBCF02F0050E40
:10333000DBCF03F0060EDBCF04F0070EDBCF05F08A
:10334000080EDBCF06F0090EDBCF07F00A0EDBCF4D
:1033500008F00B0EDBCF09F00C0EDBCF0AF00D0EE0
:10336000DBCF0BF00A0E0D6E810E0C6E800E0E6E12
:10337000000EE56E140EE56E0E50E56E0D50E56E16
:103380000C50E56E7DEC31F0050EE126F00E0A01E1
:1033900081150C6E0D6A0C50400A02E10D5002E0DE
:1033A000E86AA0D00A0187511F0B03E10A01885186
:1033B00002E0E86A97D00F0E0A0181150C6E0C44EA
:1033C000E844FC0B01017C6F7CC10CF00D6A0D50D0
:1033D000E56E0C50E56E000EE56E000EE56E4CECF1
:1033E0002BF00C6EF3CF0DF0040EE1260C50010112
:1033F000606F0D500101616F7CC10CF00D6A0D50C2
:10340000E56E0C50E56E01EC34F0020EE126010190
:1034100060510101611102E0E86A64D00A0E0D6E8C
:10342000810E0C6E800E0E6E0E50E56E0D50E56E28
:103430000C50E56EC1EC25F0030EE12600500110A2
:10344000021017E091CA0CF092CA0DF093CA0EF068
:1034500094CA0FF00CC0E5FF0DC0F4FF0EC0F6FFDC
:103460000FC0F7FF00C0E9FF01C0F3FF0250ACEC52
:103470003FF08DCA00F08ECA01F08FCA02F090CAE8
:103480000CF000C0E5FF01C0F4FF02C0F6FF0CC065
:10349000F7FF03C0E9FF04C0F3FF0550ACEC3FF0B9
:1034A0008ACA00F000C0E5FF06C0E9FF07C0F3FFCD
:1034B00008503EEC40F07CC100F0016A00500A0167
:1034C000835D006E01500A018459016E00C0E5FF62
:1034D00001C0F4FF09C0E9FF0AC0F3FF0B501EEC66
:1034E00040F0010EE4CF0FF0E4CF0EF0E4CF0DF08A
:1034F000E4CF0CF0E4CF0BF0E4CF0AF0E4CF09F016
:10350000E4CF08F0E4CF07F0E4CF06F0E4CF05F015
:10351000E4CF04F0E4CF03F0E4CF02F0E4CF01F015
:10352000E4CF00F0E4CFD9FF1200D9CFE5FFE1CF1F
:10353000D9FF00C0E5FF01C0E5FF02C0E5FF03C001
:10354000E5FF04C0E5FF05C0E5FF06C0E5FF07C0D5
:10355000E5FF080E01017F5DD8B0DED008C0E5FFB1
:1035600009C0E5FF096A01017F350936E8340936EB
:10357000FC0B086E000EFB6E350EFA6E940E0826DC
:103580000950FA22D8B0FB2A0850E4CF09F0E4CF62
:1035900008F0F96EDAEF1AF0FCEF1AF005EF1BF005
:1035A00038EF1BF04CEF1BF060EF1BF074EF1BF0DB
:1035B00088EF1BF0000EE56E200EE56E200EE56E26
:1035C0000E0EE56E330EE56E38EC33F0050EE12697
:1035D0000E01536B90909092966A9992999499905B
:1035E000010E0101826FE10ECE6EFA0ECF6ECD801C
:1035F000010E01017F6F90D09094030E8D6E020E2C
:1036000001017F6F01017D6B87D09080110E006EEC
:10361000016A026A036A00C004F001C005F002C03A
:1036200006F003C007F0FF0E0026FF0E0122FF0E7A
:103630000222FF0E03220450051006100710EBE1D2
:1036400090907DC100F0016A000E015C02E1030E62
:10365000005C03E3030E01017F6F01017D2B010E6E
:103660000101826FBE0ECE6EFF0ECF6ECD8054D0A4
:10367000380EE56E000EE56E74EC3BF0020EE126AE
:10368000010E0101826FFE0ECE6EFF0ECF6ECD8059
:10369000040E01017F6F40D0060EE56E000EE56E50
:1036A00074EC3BF0020EE126010E0101826FFE0E6A
:1036B000CE6EFF0ECF6ECD80050E01017F6F2CD038
:1036C0000C0EE56E000EE56E74EC3BF0020EE1268A
:1036D000010E0101826FFE0ECE6EFF0ECF6ECD8009
:1036E000060E01017F6F18D0010EE56E000EE56E2B
:1036F00074EC3BF0020EE126010E0101826FBE0E5A
:10370000CE6EFF0ECF6ECD80070E01017F6F04D00D
:103710000101836B01017F6BE4CF07F0E4CF06F07A
:10372000E4CF05F0E4CF04F0E4CF03F0E4CF02F0FF
:10373000E4CF01F0E4CF00F0E4CFD9FF1200D9CFFD
:10374000E5FFE1CFD9FF00C0E5FF01C0E5FF02C002
:10375000E5FF03C0E5FF04C0E5FF05C0E5FF06C0C7
:10376000E5FF07C0E5FF020EDBCF00F0030EDBCF65
:1037700001F0040EDBCF02F0050EDBCF03F0060EE6
:10378000DBCF04F0070EDBCF05F0080EDBCF06F031
:10379000090EDBCF07F000500101286F0150296F9F
:1037A00002502A6F03502B6F045001012C6F0550FB
:1037B0002D6F06502E6F07502F6F01012851010108
:1037C0002E03F3CF00F0F4CF01F000500101326F6F
:1037D0000150336F0101285101012C03F3CF00F098
:1037E000F4CF01F000500101306F0150316F010141
:1037F0002B5101012C03F3CF00F0010133510026BE
:103800000050336F01012A5101012D03F3CF00F065
:103810000101335100260050336F01012A5101018B
:103820002C03F3CF00F0F4CF01F001013251002658
:10383000335101220050326F0150336F0101295181
:1038400001012D03F3CF00F0F4CF01F0010132515B
:103850000026335101220050326F0150336F0101B5
:10386000295101012E03F3CF00F000500101376F01
:103870000101295101012C03F3CF00F0F4CF01F035
:1038800000500101356F0150366F010128510101CF
:103890002F03F3CF00F0005001013B6F01012851CD
:1038A00001012D03F3CF00F0F4CF01F0005001012E
:1038B000396F01503A6F0101346B0101386B01011E
:1038C000345101013025006E0101355101013121D2
:1038D000016E0101365101013221026E01013751A1
:1038E00001013321036E0050306F0150316F0250DF
:1038F000326F0350336F0101385101013025006EE2
:103900000101395101013121016E01013A510101D9
:103910003221026E01013B5101013321036E03C0CC
:10392000E9FF02C0F4FF01C0F3FF0050E4CF07F04D
:10393000E4CF06F0E4CF05F0E4CF04F0E4CF03F0E9
:10394000E4CF02F0E4CF01F0E4CF00F0E4CFD9FF00
:103950001200D9CFE5FFE1CFD9FF00C0E5FF01C0DC
:10396000E5FF02C0E5FF03C0E5FF04C0E5FF05C0B9
:10397000E5FF06C0E5FF07C0E5FF08C0E5FF09C099
:10398000E5FF020EDBCF00F0030EDBCF01F0040EEB
:10399000DBCF02F0050EDBCF03F0060EDBCF04F029
:1039A000070EDBCF05F00E01D95102E1E86AC3D062
:1039B0000101795104E130EC37F0E86ABCD008012C
:1039C000FE5101013C6F0801FF5101013D6F0101F2
:1039D0003D51066E076A076A06507B6E01013C5135
:1039E000066E076A06507A6E000E076EEC0E066EC3
:1039F000800E086E000EE56E140EE56E0850E56E42
:103A00000750E56E0650E56E7DEC31F0050EE126BF
:103A10000001FF51E56E0001FE51E56E87EC3CF0C0
:103A2000066EF3CF07F0020EE12606500001FE6F8E
:103A300007500001FF6FECC006F0EDC007F0086A08
:103A4000096A000E095C08E1000E085C05E11A0E27
:103A5000075C02E10A0E065C14E20001ECB111D031
:103A60000001F1BF0ED00001F0B90BD0050E00012E
:103A7000EF5D03E1EF0E0001EE5D03E20001F0BF38
:103A80000DD0000EE56E590EE56ED40EE56E000EFB
:103A9000E56ECDEC32F0040EE126FFD70001EC51CB
:103AA0000801FE6F0001ED510801FF6F000E076E67
:103AB000F80E066E800E086E000EE56E060EE56EC0
:103AC0000850E56E0750E56E0650E56E0250E56E53
:103AD0000150E56E0050E56E1DEC2FF0080EE1265A
:103AE000FF0EE56E03C0E9FF04C0F3FF05503EEC96
:103AF00040F0FFC000F0016A0050080A02E10150E6
:103B000001E016D0FEC000F0005009E000C001F056
:103B1000026A0150060A02E1025001E009D000C029
:103B2000E5FF03C0E9FF04C0F3FF05503EEC40F0A1
:103B30000101796B010EE4CF09F0E4CF08F0E4CF86
:103B400007F0E4CF06F0E4CF05F0E4CF04F0E4CFD3
:103B500003F0E4CF02F0E4CF01F0E4CF00F0E4CFD3
:103B6000D9FF1200D9CFE5FFE1CFD9FF00C0E5FFB3
:103B700001C0E5FF02C0E5FF050E0101805DD8B080
:103B8000E9D003C0E5FF04C0E5FF046A0101803508
:103B90000436E8340436FC0B036E000EFB6E3B0E5D
:103BA000FA6EBA0E03260450FA22D8B0FB2A03504C
:103BB000E4CF04F0E4CF03F0F96EE7EF1DF0FDEF82
:103BC0001DF046EF1EF05DEF1EF0A6EF1EF0020E98
:103BD000E56E000EE56E74EC3BF0020EE126010E80
:103BE0000101826FBE0ECE6EFF0ECF6ECD80010E34
:103BF0000101806F01017D6BADD0330E01017D2588
:103C0000006E016A0E0E012200C0E9FF01C0EAFF4A
:103C1000EFCF00F000501BE17DC17EF17EC101F0CD
:103C2000026A000E025C02E1100E015C10E2330E2B
:103C300001017E25016E026A0E0E022201C0E9FF1B
:103C400002C0EAFF200EEF6E01017E2BE7D7005085
:103C5000E56E010EE56E74EC3BF0020EE1267DC1CF
:103C600000F0016A000E015C02E1100E005C03E34B
:103C7000020E0101806F01017D2B010E0101826F97
:103C8000FE0ECE6EFF0ECF6ECD8064D0C00EE56E00
:103C9000000EE56E74EC3BF0020EE126010E010110
:103CA000826FFE0ECE6EFF0ECF6ECD80030E010131
:103CB000806F100E01017D6F4DD0330E01017D2507
:103CC000006E016A0E0E012200C0E9FF01C0EAFF8A
:103CD000EFCF00F000501BE17DC17EF17EC101F00D
:103CE000026A000E025C02E1200E015C10E2330E5B
:103CF00001017E25016E026A0E0E022201C0E9FF5B
:103D000002C0EAFF200EEF6E01017E2BE7D70050C4
:103D1000E56E010EE56E74EC3BF0020EE1267DC10E
:103D200000F0016A000E015C02E1200E005C03E37A
:103D3000040E0101806F01017D2B010E0101826FD4
:103D4000FE0ECE6EFF0ECF6ECD8004D00101836BD0
:103D50000101806BE4CF02F0E4CF01F0E4CF00F08A
:103D6000E4CFD9FF1200D9CFE5FFE1CFD9FF00C0E2
:103D7000E5FF01C0E5FF02C0E5FF03C0E5FF04C0A9
:103D8000E5FF05C0E5FF06C0E5FF07C0E5FF08C089
:103D9000E5FF09C0E5FF0AC0E5FF0BC0E5FF0CC069
:103DA000E5FF0DC0E5FF0EC0E5FF0FC0E5FF10C049
:103DB000E5FF11C0E5FF12C0E5FF13C0E5FF14C029
:103DC000E5FF15C0E5FF020EDBCF00F0030EDBCFF1
:103DD00001F0040EDBCF02F0050EDBCF03F0060E80
:103DE000DBCF04F0070EDBCF05F0080EDBCF06F0CB
:103DF000090EDBCF07F000C008F001C009F002C0D7
:103E00000AF003C00BF004C00CF005C00DF006C0B2
:103E10000EF007C00FF006500710D8B43ED003C014
:103E200010F004C011F005C012F006C013F007C076
:103E300014F0FF0E1326D8A01406135014101DE022
:103E400010C0E9FF11C0F3FF12507BEC3FF0156E7C
:103E5000102AD8B0112AD8B0122A15C0E5FF00C028
:103E6000E9FF01C0F3FF02503EEC40F0002AD8B059
:103E7000012AD8B0022A1550DCE110C00BF011C0A5
:103E80000CF012C00DF000C008F001C009F002C033
:103E90000AF013C00EF014C00FF00E500F1027E1FF
:103EA0000650071009E0000EE56E08C0E9FF09C0E2
:103EB000F3FF0A503EEC40F00BC000F00CC001F0E4
:103EC0000DC002F000C0E9FF01C0F3FF02507BEC1F
:103ED0003FF0066E002AD8B0012AD8B0022A065058
:103EE000F1E100C00BF001C00CF002C00DF0035076
:103EF0000B5C036E04500C58046EFF0E0326D8A012
:103F0000040604C0F3FF0350E4CF15F0E4CF14F02F
:103F1000E4CF13F0E4CF12F0E4CF11F0E4CF10F0CF
:103F2000E4CF0FF0E4CF0EF0E4CF0DF0E4CF0CF0CF
:103F3000E4CF0BF0E4CF0AF0E4CF09F0E4CF08F0CF
:103F4000E4CF07F0E4CF06F0E4CF05F0E4CF04F0CF
:103F5000E4CF03F0E4CF02F0E4CF01F0E4CF00F0CF
:103F6000E4CFD9FF1200D9CFE5FFE1CFD9FF00C0E0
:103F7000E5FF01C0E5FF02C0E5FF03C0E5FF04C0A7
:103F8000E5FF05C0E5FF06C0E5FF07C0E5FF08C087
:103F9000E5FF09C0E5FF020EDBCF00F0030EDBCF2B
:103FA00001F0040EDBCF02F05CEC3AF0036E03503C
:103FB000FBE01A0EE56E0B0EE56E19EC39F0020E01
:103FC000E126010EE56E000EF46E00C0E9FF01C0AF
:103FD000F3FF02501EEC40F00050020F036E000E83
:103FE0000120046E000E0220056E000EE56E080E24
:103FF000F46E03C0E9FF04C0F3FF05501EEC40F06F
:104000000050040F036E000E0120046E000E02200B
:10401000056E060EE56E03C0E9FF04C0F3FF055010
:104020003EEC40F00050050F036E000E0120046EC0
:10403000000E0220056E040EE56E03C0E9FF04C009
:10404000F3FF05503EEC40F00050080F036E000EE9
:104050000120046E000E0220056E0E0E076E2D0E5E
:10406000066E800E086E000EE56E060EE56E0850B8
:10407000E56E0750E56E0650E56E0550E56E04509E
:10408000E56E0350E56E1DEC2FF0080EE1260050A2
:104090000E0F036E000E0120046E000E0220056E4E
:1040A00000CE06F001CE07F002CE08F003CE09F0F4
:1040B00006C0E5FF07C0F4FF08C0F6FF09C0F7FF20
:1040C00003C0E9FF04C0F3FF0550ACEC3FF0025021
:1040D000E56E0150E56E0050E56E54EC28F0030EDD
:1040E000E1260050120F036E000E0120046E000E38
:1040F0000220056E000EE56E1C0EE56E060EE56EE6
:104100000550E56E0450E56E0350E56EB4EC27F003
:10411000060EE126000EE56E1C0EE56E0250E56E01
:104120000150E56E0050E56E9AEC36F0050EE12682
:1041300041EC3BF0010EE4CF09F0E4CF08F0E4CF0E
:1041400007F0E4CF06F0E4CF05F0E4CF04F0E4CFCD
:1041500003F0E4CF02F0E4CF01F0E4CF00F0E4CFCD
:10416000D9FF1200D9CFE5FFE1CFD9FF00C0E5FFAD
:1041700001C0E5FF02C0E5FF03C0E5FF04C0E5FFA5
:1041800005C0E5FF06C0E5FF07C0E5FF08C0E5FF85
:10419000020EDBCF00F0030EDBCF01F0040EDBCF0D
:1041A00002F0050EDBCF03F0060EDBCF04F0070EA6
:1041B000DBCF05F0140E01017C6F450E0A01956FEF
:1041C0000A01966B140E0426D8B0052A04500A0181
:1041D000976F05500A01986F0A015E2B02E30A01EE
:1041E0005F2B0A015E510A01996F0A015F510A01B2
:1041F0009A6F0A019B6B0A019C6B640E0A019D6F0A
:1042000003500A019E6F0A019F6B0A01A06B0E0109
:1042100000510A01A16F0E0101510A01A26F0E01A6
:1042200002510A01A36F0E0103510A01A46F00C0DD
:10423000E9FF01C0F3FF02501EEC3EF0036EF3CF26
:1042400006F0F4CF07F0E9CF08F003500A01A56F9C
:1042500006500A01A66F07500A01A76F08500A010D
:10426000A86F0A0E066E950E036E800E076E07503D
:10427000E56E0650E56E0350E56EC1EC25F0030EC9
:10428000E1260A0E066E950E036E800E076E000E76
:10429000E56E140EE56E0750E56E0650E56E0350B0
:1042A000E56E7CEC0FF0036EF3CF06F0050EE12611
:1042B00003500A019F6F06500A01A06F040E0026EA
:1042C000000E0122000E02220550E56E0450E56E3C
:1042D000000EE56E0250E56E0150E56E0050E56E91
:1042E000B4EC27F0060EE1260A0E016E950E006E64
:1042F000800E026E000EE56E140EE56E0250E56E45
:104300000150E56E0050E56E9AEC36F0050EE126A0
:10431000F36AE86AE4CF08F0E4CF07F0E4CF06F0F0
:10432000E4CF05F0E4CF04F0E4CF03F0E4CF02F0F3
:10433000E4CF01F0E4CF00F0E4CFD9FF1200D9CFF1
:10434000E5FFE1CFD9FF00C0E5FF01C0E5FF02C0F6
:10435000E5FF03C0E5FF04C0E5FF05C0E5FF06C0BB
:10436000E5FF07C0E5FF08C0E5FF09C0E5FF0AC09B
:10437000E5FF0BC0E5FF0CC0E5FF0DC0E5FF020E39
:10438000DBCF00F0030EDBCF01F0040EDBCF02F039
:10439000050EDBCF03F0100E046E056A066A076A8D
:1043A000040E055CD8B081D000C008F001C009F04F
:1043B00002C00AF003C00BF0065011E009E6E86CF9
:1043C000D8900B320A3209320832010FFAE307D0D3
:1043D000D890083609360A360B36010FFAE3096A17
:1043E0000A0EE56E0A0EE56EED0EE56E0950E56EFD
:1043F0000850E56ED2EC3AF0050EE12604C008F054
:10440000096A0A0E0B6EED0E0A6E800E0C6E0C50D1
:10441000E56E0B50E56E0A50E56EDDEC39F00A6E84
:10442000F3CF0BF0030EE12609C00CF00D6A0D501E
:10443000800FF36E0B50800FF35C02E10A500C5CAE
:104440001CE208C00AF0082A0B6A330E0A260E0E78
:104450000B22ED0E09240C6E0D6A0A0E0D220CC003
:10446000E9FF0DC0EAFFEFCF0CF00AC0E9FF0BC077
:10447000EAFF0CC0EFFF092AC4D708C004F00550BA
:10448000030A13E00828046E096A330E08260E0E8C
:10449000092208C0E9FF09C0EAFF2E0EEF6E080EE0
:1044A0000626D8B0072A052A7BD704C000F0016A87
:1044B000000E015C02E1200E005C0BE2006A330E8C
:1044C00004260E0E002204C0E9FF00C0EAFF000E21
:1044D000EF6E1EEC3FF0E4CF0DF0E4CF0CF0E4CF34
:1044E0000BF0E4CF0AF0E4CF09F0E4CF08F0E4CF1A
:1044F00007F0E4CF06F0E4CF05F0E4CF04F0E4CF1A
:1045000003F0E4CF02F0E4CF01F0E4CF00F0E4CF19
:10451000D9FF1200D9CFE5FFE1CFD9FF00C0E5FFF9
:1045200001C0E5FF02C0E5FF03C0E5FF04C0E5FFF1
:1045300005C0E5FF06C0E5FF07C0E5FF08C0E5FFD1
:1045400009C0E5FF0AC0E5FF0BC0E5FF0CC0E5FFB1
:104550000DC0E5FF0EC0E5FF0FC0E5FF020EDBCF8B
:1045600000F0030EDBCF01F0040EDBCF02F0050EEE
:10457000DBCF03F0060EDBCF04F0070EDBCF05F038
:10458000080EDBCF06F0200E076E086A06C009F0A1
:104590000A6A0B6A0C6AE56AE56AE56A0950E56E23
:1045A0000350E56E0250E56E0150E56E0050E56E79
:1045B0002BEC2AF00D6E080EE126300E0D263A0E79
:1045C0000D5C02E3270E0D26FF0E0726D8A0080675
:1045D000400E07240E6E0F0E08200F6E0EC0E9FF6E
:1045E0000FC0EAFF0DC0EFFF0C50E56E0B50E56EFB
:1045F0000A50E56E0950E56E0350E56E0250E56E17
:104600000150E56E0050E56EDAEC2BF0006EF3CF52
:1046100001F0F4CF02F0E9CF03F0080EE1260050DC
:10462000011002100310D8A4B1D707C000F008C0D1
:1046300001F004C002F005C003F000C004F001C0A6
:1046400005F0002AD8B0012A400E04260F0E0522DC
:1046500004C0E9FF05C0EAFFEFCF04F002C0E9FFA4
:1046600003C0EAFF04C0EFFF022AD8B0032A000EFD
:10467000015C02E1200E005CE0E302C0E9FF03C040
:10468000EAFF000EEF6AE4CF0FF0E4CF0EF0E4CFC4
:104690000DF0E4CF0CF0E4CF0BF0E4CF0AF0E4CF60
:1046A00009F0E4CF08F0E4CF07F0E4CF06F0E4CF60
:1046B00005F0E4CF04F0E4CF03F0E4CF02F0E4CF60
:1046C00001F0E4CF00F0E4CFD9FF1200D9CFE5FF2D
:1046D000E1CFD9FF00C0E5FF01C0E5FF02C0E5FF63
:1046E00003C0E5FF04C0E5FF05C0E5FF06C0E5FF28
:1046F00007C0E5FF08C0E5FF09C0E5FF020EDBCFFC
:1047000000F0030EDBCF01F0040EDBCF02F0050E4C
:10471000DBCF03F0060EDBCF04F0070EDBCF05F096
:104720000A01605102E1E86893D07AEC3EF0066E2F
:10473000065002E0FE0E8CD00801F151E56E080132
:10474000F051E56E000EE56E220EE56E64EC35F07C
:10475000066EF3CF07F0040EE126000E0624086E65
:10476000080E0720096E08C0E9FF09C0EAFFEFCF75
:1047700008F008C0E5FF00C0E9FF01C0F3FF0250E8
:104780003EEC40F0000E0626080E0722062AD8B09E
:10479000072A0750076E0650066E800E006E000E48
:1047A000E56E200EE56E0050E56E0750E56E065092
:1047B000E56E0550E56E0450E56E0350E56EB3EC12
:1047C0001EF0080EE126F0C800F0F1C801F001501B
:1047D000E56E0050E56E000EE56E220EE56E64ECAF
:1047E00035F0026EF3CF03F0040EE126000E022432
:1047F000046E080E0320056E04C0E9FF05C0EAFF41
:10480000000EEF6E000E0226080E0322022AD8B018
:10481000032A02C0E9FF03C0EAFF000EEF6E002A80
:10482000D8B0012A000EE56E070EE56E0150E56E68
:104830000050E56E5EEC34F0006EF3CF01F0040E34
:10484000E12600500801F06F01500801F16FE86A9D
:10485000E4CF09F0E4CF08F0E4CF07F0E4CF06F0AE
:10486000E4CF05F0E4CF04F0E4CF03F0E4CF02F0AE
:10487000E4CF01F0E4CF00F0E4CFD9FF1200D9CFAC
:10488000E5FFE1CFD9FF00C0E5FF01C0E5FF02C0B1
:10489000E5FF03C0E5FF04C0E5FF05C0E5FF06C076
:1048A000E5FF07C0E5FF020EDBCF00F0030EDBCF14
:1048B00001F0040EDBCF02F0050EDBCF03F0060E95
:1048C000DBCF04F0010E066E100E056E800E076E33
:1048D000000EE56E040EE56E0750E56E0650E56EBF
:1048E0000550E56E7DEC31F0050EE1260101105119
:1048F000080A03E10101115101E07ED00450E56E88
:104900000350E56E000EE56E140EE56E4CEC2BF0D8
:10491000056EF3CF06F0040EE1260550061001E007
:104920006BD00101106B080E01011225056E0550B8
:104930000101126F12C106F0076A000E075C02E166
:10494000080E055C0DE213C105F0052A05500101B2
:10495000136F0101135104E1062A06500101126F81
:104960005CEC3AF0056E0550FBE01A0EE56E190E90
:10497000E56E19EC39F0020EE1260450E56E0350A5
:10498000E56E010EE56E0250E56E0150E56E0050D9
:10499000E56EB2EC20F0060EE126010E016E100E5F
:1049A000006E800E026E000EE56E040EE56E025083
:1049B000E56E0150E56E0050E56E9AEC36F0050E9E
:1049C000E126FC0E0326D8A004060450E56E035031
:1049D000E56EFF0EE56EFF0EE56EFF0EE56EFF0E57
:1049E000E56E36EC0CF0060EE126DFEC3EF0006ED4
:1049F0000050FBE041EC3BF0E4CF07F0E4CF06F0E1
:104A0000E4CF05F0E4CF04F0E4CF03F0E4CF02F00C
:104A1000E4CF01F0E4CF00F0E4CFD9FF1200D9CF0A
:104A2000E5FFE1CFD9FF00C0E5FF01C0E5FF02C00F
:104A3000E5FF03C0E5FF04C0E5FF05C0E5FF06C0D4
:104A4000E5FF07C0E5FF08C0E5FF09C0E5FF0AC0B4
:104A5000E5FF020EDBCF00F0030EDBCF01F0040E0A
:104A6000DBCF02F0050EDBCF03F0060EDBCF04F048
:104A7000070EDBCF05F075CE06F076CE07F077CEC9
:104A800008F078CE09F000C0E9FF01C0F3FF025042
:104A90001EEC3EF0006EF3CF01F0F4CF02F0E9CF50
:104AA0000AF00650001809E10750011806E1085005
:104AB000021803E109500A182EE006500E010819E9
:104AC0000CE107500E01091908E108500E010A19FE
:104AD00004E109500E010B1901E039D00E0100511B
:104AE000001A0E010151011A0E010251021A0E01A3
:104AF00003510A1A0E01045100160E010551011648
:104B00000E01065102160E0107510A16005001103F
:104B100002100A101CE00E0E016E790E006E800E5F
:104B2000026E000EE56E060EE56E0250E56E015057
:104B3000E56E0050E56E0550E56E0450E56E0350DD
:104B4000E56E1DEC2FF0080EE126010E01D0E86A9B
:104B5000E4CF0AF0E4CF09F0E4CF08F0E4CF07F0A7
:104B6000E4CF06F0E4CF05F0E4CF04F0E4CF03F0A7
:104B7000E4CF02F0E4CF01F0E4CF00F0E4CFD9FFBE
:104B80001200D9CFE5FFE1CFD9FF00C0E5FF01C09A
:104B9000E5FF02C0E5FF03C0E5FF04C0E5FF05C077
:104BA000E5FF06C0E5FF07C0E5FF020EDBCF00F022
:104BB000030EDBCF01F0040EDBCF02F00050020F3A
:104BC000036E000E0120046E000E0220056E03C06D
:104BD000E9FF04C0F3FF0550C9EC3EF0066EF3CFC9
:104BE00007F00750E56E0650E56E87EC3CF0066E68
:104BF000F3CF07F0020EE12606C0E5FF07C0F4FF81
:104C000003C0E9FF04C0F3FF05501EEC40F0005064
:104C1000040F036E000E0120046E000E0220056ECC
:104C200003C0E9FF04C0F3FF0550C9EC3EF0066E77
:104C3000F3CF07F00750E56E0650E56E87EC3CF0C9
:104C4000066EF3CF07F0020EE12606C0E5FF07C0AF
:104C5000F4FF03C0E9FF04C0F3FF05501EEC40F071
:104C60000A0E0026000E0122000E022200C0E9FFFB
:104C700001C0F3FF0250C9EC3EF0036EF3CF04F025
:104C80000450E56E0350E56E87EC3CF0036EF3CF05
:104C900004F0020EE12603C0E5FF04C0F4FF00C0EB
:104CA000E9FF01C0F3FF02501EEC40F0E4CF07F033
:104CB000E4CF06F0E4CF05F0E4CF04F0E4CF03F056
:104CC000E4CF02F0E4CF01F0E4CF00F0E4CFD9FF6D
:104CD0001200D9CFE5FFE1CFD9FF00C0E5FF01C049
:104CE000E5FF02C0E5FF03C0E5FF04C0E5FF05C026
:104CF000E5FF06C0E5FF07C0E5FF020EDBCF00F0D1
:104D00000B0E7A6E1A0E7B6E0F0E026E000E016E87
:104D1000800E036E000EE56E400EE56E0350E56EEC
:104D20000250E56E0150E56E7DEC31F0050EE12696
:104D3000D8900036016A026A036A100E015CD8B08E
:104D400057D000500124046E056A000E04260F0E91
:104D5000052204C0E9FF05C0EAFFEFCF04F00438E4
:104D60000F0B046E0F0E0416330E0224056E066A36
:104D70000E0E06220A0E045C03E2300E076E02D00D
:104D8000410E076E0450072605C0E9FF06C0EAFF82
:104D900007C0EFFF00500124056E066A000E0526CD
:104DA0000F0E062205C0E9FF06C0EAFFEFCF05F0AF
:104DB0000F0E0514046E0328056E066A330E0526D1
:104DC0000E0E06220A0E045C03E2300E076E02D0BD
:104DD000410E076E0750042605C0E9FF06C0EAFF32
:104DE00004C0EFFF022A022A032A032A012AA5D7B8
:104DF0000E01536B1EEC3FF0E4CF07F0E4CF06F05A
:104E0000E4CF05F0E4CF04F0E4CF03F0E4CF02F008
:104E1000E4CF01F0E4CF00F0E4CFD9FF12003EEC84
:104E20003EF044EC3FF0100E006E980E016E020E44
:104E3000026E036A00C004F001C005F002C006F073
:104E400003C007F0FF0E0026FF0E0122FF0E022214
:104E5000FF0E03220450051006100710EBE1000EB0
:104E6000E56E770EE56EA60EE56E000EE56ECDECF6
:104E700032F0040EE126F7EC3FF095EC2EF051EC09
:104E800038F05CEC3EF0FDEC3DF0006EF3CF01F04D
:104E9000F4CF02F0E9CF03F00A015451005C046E34
:104EA0000A0155510158056E0A0156510258066E05
:104EB0000A0157510358076E000E075C08E1000E07
:104EC000065C05E1000E055C02E1270E045C15E3BB
:104ED00000C054FA01C055FA02C056FA03C057FA8E
:104EE000006A91B0002A010E001A0050010BF46E06
:104EF0009150FE0BF410916E0400E5EC0DF0F3EC14
:104F00002CF000CE00F001CE01F002CE02F003CE74
:104F100003F00A01585100180DE10A015951011816
:104F200009E10A015A51021805E10A015B5103180F
:104F300001E1A9D700C058FA01C059FA02C05AFAD3
:104F400003C05BFA0A015B51E56E0A015A51E56E36
:104F50000A015951E56E0A015851E56E9FEC21F0A6
:104F6000040EE12690D71200D9CFE5FFE1CFD9FF9B
:104F700000C0E5FF01C0E5FF02C0E5FF03C0E5FF9B
:104F800004C0E5FF05C0E5FF06C0E5FF07C0E5FF7B
:104F900008C0E5FF09C0E5FF020EDBCF00F0030EFD
:104FA000DBCF01F0040EDBCF02F0050EDBCF03F008
:104FB000060EDBCF04F0070EDBCF05F00B0E0E0163
:104FC000E26F1A0E0E01E36F04C006F005C007F091
:104FD000086A096A180E06261A0E0722000E082211
:104FE000000E09220650046E0750056E0450066E2E
:104FF000076A06500E01E66F0550046E056A056AE1
:1050000004500E01E76F000EE56E060EE56E0250CD
:10501000E56E0150E56E0050E56E9AEC36F0050E37
:10502000E1260E0E016E2D0E006E800E026E000E39
:10503000E56E060EE56E0250E56E0150E56E00501D
:10504000E56E9AEC36F0050EE126080EE56E2AECC8
:1050500040F0E12A0350D880E866D890036A03360E
:10506000035003E0006A016A03D0060E006E016A75
:105070000050E56E2AEC40F0E12AE4CF09F0E4CFDD
:1050800008F0E4CF07F0E4CF06F0E4CF05F0E4CF7A
:1050900004F0E4CF03F0E4CF02F0E4CF01F0E4CF7A
:1050A00000F0E4CFD9FF1200D9CFE5FFE1CFD9FF5F
:1050B00000C0E5FF01C0E5FF02C0E5FF03C0E5FF5A
:1050C00004C0E5FF05C0E5FF06C0E5FF07C0E5FF3A
:1050D000020EDBCF00F0030EDBCF01F0040EDBCFBE
:1050E00002F000C0E9FF01C0F3FF0250C9EC3EF03E
:1050F000036EF3CF04F00450E56E0350E56E87ECC9
:105100003CF0036EF3CF04F0020EE12603C0E5FF8E
:1051100004C0F4FF00C0E9FF01C0F3FF02501EEC21
:1051200040F00050020F036E000E0120046E000ECE
:105130000220056E03C0E9FF04C0F3FF0550C9EC6F
:105140003EF0066EF3CF07F00750E56E0650E56EB1
:1051500087EC3CF0066EF3CF07F0020EE12606C0A6
:10516000E5FF07C0F4FF03C0E9FF04C0F3FF0550EB
:105170001EEC40F0060E0026000E0122000E022258
:1051800000C0E9FF01C0F3FF0250C9EC3EF0036E1E
:10519000F3CF04F00450E56E0350E56E87EC3CF06D
:1051A000036EF3CF04F0020EE12603C0E5FF04C056
:1051B000F4FF00C0E9FF01C0F3FF02501EEC40F015
:1051C000E4CF07F0E4CF06F0E4CF05F0E4CF04F03D
:1051D000E4CF03F0E4CF02F0E4CF01F0E4CF00F03D
:1051E000E4CFD9FF1200D9CFE5FFE1CFD9FF00C04E
:1051F000E5FF01C0E5FF02C0E5FF03C0E5FF04C015
:10520000E5FF05C0E5FF06C0E5FF07C0E5FF020EAC
:10521000DBCF00F0030EDBCF01F0040EDBCF02F09A
:10522000010E0A01226F0A01236B0A012E690A018D
:105230002F690A0130690A0131690A0132690A01DC
:10524000336900C0E9FF01C0F3FF02501EEC3EF0DD
:10525000006EF3CF01F0F4CF02F0E9CF03F000507D
:105260000E010019046E01500E010119056E025065
:105270000E010219066E03500E010319076E0E018E
:10528000045104160E01055105160E0106510616AD
:105290000E0107510716045005100610071009E00B
:1052A00008CE04F009CE05F00ACE06F00BCE07F0CA
:1052B00008D000C004F001C005F002C006F003C031
:1052C00007F004500A01346F05500A01356F06508B
:1052D0000A01366F07500A01376F0A0E016E1C0E65
:1052E000006E800E026E0250E56E0150E56E0050B9
:1052F000E56EB3EC1FF0030EE126E4CF07F0E4CF38
:1053000006F0E4CF05F0E4CF04F0E4CF03F0E4CFFF
:1053100002F0E4CF01F0E4CF00F0E4CFD9FF1200B7
:10532000D9CFE5FFE1CFD9FF00C0E5FF01C0E5FF20
:1053300002C0E5FF03C0E5FF04C0E5FF05C0E5FFCF
:1053400006C0E5FF07C0E5FF020EDBCF00F0030E4D
:10535000DBCF01F0040EDBCF02F0050EDBCF03F054
:105360000A01605102E1E86863D05BEC39F0046E39
:10537000045002E0FE0E5CD00801EF51E56E08011A
:10538000EE51E56E000EE56E220EE56E64EC35F032
:10539000046EF3CF05F0040EE126000E0424066E21
:1053A000080E0520076E06C0E9FF07C0EAFF00C02F
:1053B000EFFF000E0426080E0522042AD8B0052AA5
:1053C0000550056E0450046E800E006E000EE56EF2
:1053D000200EE56E0350E56E0250E56E0150E56E5D
:1053E0000050E56E0550E56E0450E56EB3EC1EF01E
:1053F000080EE1260801EE51010F006E000E0801B3
:10540000EF21016E000EE56E070EE56E0150E56EB0
:105410000050E56E5EEC34F0006EF3CF01F0040E48
:10542000E12600500801EE6F01500801EF6FE86AB5
:10543000E4CF07F0E4CF06F0E4CF05F0E4CF04F0CA
:10544000E4CF03F0E4CF02F0E4CF01F0E4CF00F0CA
:10545000E4CFD9FF1200D9CFE5FFE1CFD9FF00C0DB
:10546000E5FF01C0E5FF02C0E5FF03C0E5FF04C0A2
:10547000E5FF05C0E5FF06C0E5FF07C0E5FF08C082
:10548000E5FF09C0E5FF0AC0E5FF020EDBCF00F033
:10549000030EDBCF01F0040EDBCF02F0050EDBCFF5
:1054A00003F0060EDBCF04F0070EDBCF05F0080E8D
:1054B000DBCF06F0090EDBCF07F0086A096A074464
:1054C000010B0A6E0AB01BD00450042605360636BE
:1054D00007360750035C08E10650025C05E1055001
:1054E000015C02E10450005C06E2D890073206320B
:1054F0000532043204D0092A09C008F0E0D7075069
:10550000035C08E10650025C05E10550015C02E124
:105510000450005C08E30450005E0550015A065038
:10552000025A0750035AD890073206320532043225
:1055300008C009F008060950E2E103C0E9FF02C013
:10554000F4FF01C0F3FF0050E4CF0AF0E4CF09F00C
:10555000E4CF08F0E4CF07F0E4CF06F0E4CF05F0A5
:10556000E4CF04F0E4CF03F0E4CF02F0E4CF01F0A5
:10557000E4CF00F0E4CFD9FF1200D9CFE5FFE1CFAF
:10558000D9FF00C0E5FF01C0E5FF02C0E5FF03C091
:10559000E5FF04C0E5FF05C0E5FF020EDBCF00F02C
:1055A000030EDBCF01F0040EDBCF02F0036A046AC6
:1055B0000A0EE56E0A0EE56EE10EE56E0450E56E2C
:1055C0000350E56E0250E56E0150E56E8AEC22F064
:1055D000070EE126016A0A0E036EE10E026E800ECE
:1055E000046E0450E56E0350E56E0250E56EDDEC8E
:1055F00039F0026EF3CF03F0030EE12601C004F090
:10560000056A0550800FF36E0350800FF35C02E1D2
:105610000250045C1CE200C002F0002A036A330E50
:1056200002260E0E0322E10E0124046E056A0A0E04
:10563000052204C0E9FF05C0EAFFEFCF04F002C075
:10564000E9FF03C0EAFF04C0EFFF012AC4D700C08E
:1056500001F0026A000E025C02E1200E015C0BE226
:10566000016A330E00260E0E012200C0E9FF01C0C0
:10567000EAFF000EEF6E1EEC3FF0E4CF05F0E4CF42
:1056800004F0E4CF03F0E4CF02F0E4CF01F0E4CF84
:1056900000F0E4CFD9FF1200D9CFE5FFE1CFD9FF69
:1056A00000C0E5FF01C0E5FF02C0E5FF03C0E5FF64
:1056B00004C0E5FF05C0E5FF06C0E5FF07C0E5FF44
:1056C000020EDBCF00F0030EDBCF01F0040EDBCFC8
:1056D00002F0050EDBCF03F001013C51140F046E04
:1056E000000E01013D21056E0450002605500122E7
:1056F00000C004F001C005F0066A076A000E075CEE
:1057000008E1000E065C05E11A0E055C02E10A0ED6
:10571000045C0CE3F60E0426E50E0522FF0E0622BD
:10572000FF0E07220450006E0550016E7BCF04F07F
:10573000056A0450076E066A7ACF04F0056A0450C1
:105740000612055007120050046E056A04507A6E66
:105750000150046E056A056A04507B6E0350E56EC5
:105760000250E56EF8EC06F0006EF3CF01F0020E89
:10577000E1260650026E036A02507A6E0750066EEA
:10578000076A076A06507B6E01C0F3FF0050E4CF42
:1057900007F0E4CF06F0E4CF05F0E4CF04F0E4CF67
:1057A00003F0E4CF02F0E4CF01F0E4CF00F0E4CF67
:1057B000D9FF1200D9CFE5FFE1CFD9FF00C0E5FF47
:1057C00001C0E5FF02C0E5FF03C0E5FF04C0E5FF3F
:1057D00005C0E5FF06C0E5FF07C0E5FF08C0E5FF1F
:1057E00009C0E5FF0AC0E5FF0BC0E5FF0CC0E5FFFF
:1057F0000DC0E5FF020EDBCF00F0030EDBCF01F0A2
:10580000040EDBCF02F0050EDBCF03F0060EDBCF7C
:1058100004F0070EDBCF05F0080EDBCF06F0090E13
:10582000DBCF07F0086A096A0A6A0B6A200E0C6E61
:105830000344010B0D6E010E0D16005000260136BB
:10584000023603360850082609360A360B360D5044
:10585000D8A4088007500B5C08E106500A5C05E1FB
:105860000550095C02E10450085C09E30450085E3D
:105870000550095A06500A5A07500B5A00800C2E40
:10588000D7D703C0E9FF02C0F4FF01C0F3FF005007
:10589000E4CF0DF0E4CF0CF0E4CF0BF0E4CF0AF04E
:1058A000E4CF09F0E4CF08F0E4CF07F0E4CF06F04E
:1058B000E4CF05F0E4CF04F0E4CF03F0E4CF02F04E
:1058C000E4CF01F0E4CF00F0E4CFD9FF1200D9CF4C
:1058D000E5FFE1CFD9FF929092920E01FE8B0E016F
:1058E000FDA1FDD7010E0101796F0801FE6B0801D2
:1058F000FF6B0E01E86B0E01E96B090E0E01EC6FF8
:105900001A0E0E01ED6F090E0E01EA6F1A0E0E014E
:10591000EB6F0A0E0E01E46F1A0E0E01E56F0A0E10
:105920000E01E26F1A0E0E01E36F616A0D0E0E0199
:10593000A06F0000320E0E01A26F0000120E0E01C9
:10594000A46F0000400E0E01A36F0000120E0E01A6
:10595000A66F00000C0E0E01A76F0000EE0E0E01E8
:10596000AA6F0000050E0E01AB6F00002DCE84FE65
:1059700000002ECE85FE00002FCE82FE000030CE2D
:1059800083FE000031CE80FE000032CE81FE00009A
:10599000010EE56E100EE56E100EE56E02EC3DF0A8
:1059A000030EE126340EE56E720EE56E140EE56E02
:1059B00002EC3DF0030EE126000EE56E000EE56EF2
:1059C000000EE56E02EC3DF0030EE126D284E4CF3A
:1059D000D9FF12006572726F722072656164696E20
:1059E000672068647200D9CFE5FFE1CFD9FF00C01E
:1059F000E5FF01C0E5FF02C0E5FF03C0E5FF04C00D
:105A0000E5FF05C0E5FF9EA007D00101825104E03B
:105A10000101826BCD909E900101835124E17AECCB
:105A20003EF0006E00501FE1010E016E840E006E0C
:105A3000800E026E0E0E046E540E036E800E056E06
:105A40000550E56E0450E56E0350E56E0250E56EBC
:105A50000150E56E0050E56E66EC23F0060EE1267F
:105A6000010E0101836F01018251D8A439D00101D7
:105A7000835136E001018451800F7F0F31E3010132
:105A80008451800F7C0F2CE201018405006E06C05A
:105A9000E5FF07C0E5FF076A00340736E83407363C
:105AA000FC0B066E000EFB6E5A0EFA6EC40E062636
:105AB0000750FA22D8B0FB2A0650E4CF07F0E4CF13
:105AC00006F0F96E68EF2DF06BEF2DF06EEF2DF014
:105AD00095EC1AF005D098EC3AF002D0B2EC1DF03B
