:020000040000FA
:0400000018EF41F0C4
:04000800FFEF3CF0DA
:0800180073EF3CF0D9CFE5FFC6
:10002000E1CFD9FF00C0E5FF01C0E5FF02C0E5FF59
:1000300003C0E5FF04C0E5FF05C0E5FF0A01846BCE
:100040000A0E016E860E006E800E026E0250E56E84
:100050000150E56E0050E56E25EC39F0030EE12607
:1000600086CA00F0016A0050020A02E1015002E073
:100070003AEF03F00F0E006E0A0E026E860E016E4E
:10008000800E036E0350E56E0250E56E0150E56E82
:1000900025EC39F0030EE12600060050EDE10801E1
:1000A0003AA516D0040E006E0A0E026E860E016E80
:1000B000800E036E0350E56E0250E56E0150E56E52
:1000C00025EC39F0030EE12600060050EDE116D0D4
:1000D000080E026E470E016E800E036E000EE56E76
:1000E000040EE56E0350E56E0250E56E0150E56EBC
:1000F0009CEC31F0050EE12608015381080E006EDC
:100100000A0E026E860E016E800E036E0350E56EBF
:100110000250E56E0150E56E25EC39F0030EE12644
:1001200000060050EDE1016A01C002F0036A000E12
:10013000035C02E1060E025C24E20A0E036E860EE8
:10014000026E800E046E0450E56E0350E56E0250A0
:10015000E56E25EC39F0030EE1262D0E0124026E2A
:10016000036A0E0E032202C0E9FF03C0EAFFEFCFCD
:1001700002F00A018651021802E071EF03F0012A31
:10018000D3D7CE0E006E0A0E026E860E016E800E62
:10019000036E0350E56E0250E56E0150E56E25ECEE
:1001A00039F0030EE12600060050EDE1016A0A0E67
:1001B000036E860E026E800E046E0450E56E0350D0
:1001C000E56E0250E56E25EC39F0026E030EE12675
:1001D0000250D8B43AEF03F086CA02F0036A025024
:1001E000010A03E1035001E158D00250030A03E180
:1001F000035001E19CD00250330A03E1035001E1B6
:100200005AD10250350A02E103500EE00250360A7C
:1002100003E1035001E1F2D00250FF0A03E1035071
:1002200001E146D107EF03F00A0E036E860E026E5F
:10023000800E046E0450E56E0350E56E0250E56ECC
:1002400025EC39F0030EE12686CA02F0036A02505B
:10025000010A02E1035002E071EF03F00A0E036E9F
:10026000840E026E800E046E0450E56E0350E56E3F
:100270000250E56E25EC39F0030EE12608013AA59F
:1002800036EF03F084CA02F0036A0250020A04E166
:10029000035002E171EF03F0E9D10A0E036E860EFE
:1002A000026E800E046E0450E56E0350E56E02503F
:1002B000E56E25EC39F0030EE12686CA02F0036AEA
:1002C0000250040A02E1035002E071EF03F008015A
:1002D0003AA516D0040E006E0A0E036E860E026E4C
:1002E000800E046E0450E56E0350E56E0250E56E1C
:1002F00025EC39F0030EE12600060050EDE1B6D101
:10030000080E036E4F0E026E800E046E000EE56E38
:10031000040EE56E0450E56E0350E56E0250E56E86
:100320009CEC31F0050EE126080153859FD10A0EA1
:10033000036E850E026E800E046E0450E56E03504F
:10034000E56E0250E56E25EC39F0030EE12685CA14
:1003500002F0036A000E035C02E1040E025CD8A006
:10036000C0D108013AA516D0040E006E0A0E036E25
:10037000860E026E800E046E0450E56E0350E56E2C
:100380000250E56E25EC39F0030EE1260006005020
:10039000EDE116D0080E036E4B0E026E800E046E59
:1003A000000EE56E040EE56E0450E56E0350E56E3A
:1003B0000250E56E9CEC31F0050EE12608015383F6
:1003C000FC0E0A01852785CA02F002C003F002066E
:1003D00002C085FA0350D8B444D10A0E046E860ECA
:1003E000036E800E056E0550E56E0450E56E0350F9
:1003F000E56E25EC39F0030EE126E7D70A0E046E10
:10040000860E036E800E056E0550E56E0450E56E97
:100410000350E56E25EC39F0030EE12686CA03F0A1
:10042000046A0350040A02E1045001E05AD10A0EA2
:10043000046E030E036E800E056E0550E56E0450CB
:10044000E56E0350E56E25EC39F0030EE1260A0E49
:10045000046E020E036E800E056E0550E56E0450AC
:10046000E56E0350E56E25EC39F0030EE1260A0E29
:10047000046E010E036E800E056E0550E56E04508D
:10048000E56E0350E56E25EC39F0030EE1260A0E09
:10049000046E000E036E800E056E0550E56E04506E
:1004A000E56E0350E56E25EC39F0030EE126DED053
:1004B000010E016EDBD00A0E046E860E036E800EF6
:1004C000056E0550E56E0450E56E0350E56E25ECB3
:1004D00039F0030EE12686CA03F0046A0350040AC9
:1004E00002E1045001E0FDD008013AA515D0040E48
:1004F000006E0A0E046E860E036E800E056E0550A9
:10050000E56E0450E56E0350E56E25EC39F0030E00
:10051000E126002EEED7AAD0080E036E420E006E22
:10052000800E046E0450E56E0350E56E0050E56EDB
:1005300025EC39F0030EE126080E036E410E006E25
:10054000800E046E0450E56E0350E56E0050E56EBB
:1005500025EC39F0030EE126080E036E400E006E06
:10056000800E046E0450E56E0350E56E0050E56E9B
:1005700025EC39F0030EE126080E036E3F0E006EE7
:10058000800E046E0450E56E0350E56E0050E56E7B
:1005900025EC39F0030EE12608013F390F0B006E00
:1005A00008014039036EF00B031A002603320032B3
:1005B00008014151E838E840F80B031208014139BD
:1005C0000F0B046E08014239056EF00B051A042664
:1005D00005320432005008013F5D006E03500801EF
:1005E0004059036E045008014159046E055008013A
:1005F0004259056E005008013F6F03500801406FDB
:1006000004500801416F05500801426F2FD00A0EB7
:10061000036E850E006E800E046E0450E56E03506E
:10062000E56E0050E56E25EC39F0030EE12685CA33
:1006300000F000C003F0000600C085FA035014E08B
:100640000A0E046E860E036E800E056E0550E56E72
:100650000450E56E0350E56E25EC39F0030EE126FB
:10066000E8D702C085FA02D000C085FA0150D8B49C
:10067000D7EF00F084CA00F0016A0050020A16E1C8
:10068000015001E013D00A0100510801436F0A0133
:1006900001510801446F0A0102510801456F0A0126
:1006A00003510801466F08013A8516D008014351ED
:1006B0000A0100190FE1080144510A0101190AE178
:1006C000080145510A01021905E1080146510A01D4
:1006D000031902E00A01846B10EC40F00A01845116
:1006E00003D010EC40F0E86AE4CF05F0E4CF04F06A
:1006F000E4CF03F0E4CF02F0E4CF01F0E4CF00F068
:10070000E4CFD9FF1200D9CFE5FFE1CFD9FF00C078
:10071000E5FF01C0E5FF02C0E5FF03C0E5FF04C03F
:10072000E5FF05C0E5FF06C0E5FF07C0E5FF08C01F
:10073000E5FF006A00C001F0026A000E025C02E1FF
:10074000010E015CD8B0E3EF06F0006A39C801F091
:100750000D0E015CD8B0E0EF06F009C0E5FF0AC05D
:10076000E5FF0A6A01340A36E8340A36FC0B096EE2
:10077000000EFB6E070EFA6E900E09260A50FA2242
:10078000D8B0FB2A0950E4CF0AF0E4CF09F0F96EA3
:10079000E2EF03F0E4EF03F007EF04F078EF04F08A
:1007A000BFEF04F00AEF05F0B1EF05F036EF06F009
:1007B0006CEF06F036EF06F06CEF06F036EF06F061
:1007C0006CEF06F0E0EF06F0000EE56E430EE56E0E
:1007D000000EE56E000EE56E000EE56E000EE56E95
:1007E000440EE56E39EC18F0016E070EE12601505B
:1007F0000801386F38C801F0026A0150FF0A04E1AD
:10080000025002E1E0EF06F0020E0801396F3C0EE3
:1008100008013F6F0801406B0801416B0801426B02
:100820000801536B08013A9108013A95ACEC3EF08F
:10083000016E0150D8B4E0EF06F008013851E56EC2
:1008400054EC38F0016EF3CF02F0E12A010E025CA5
:1008500002E12C0E015CD8A0E0EF06F0016A08016D
:100860003AB9012A010E011A0150010BE838F46E61
:1008700008013A51EF0BF41008013A6F08013851A2
:100880000E0DF3CF01F0026A600E0126000E022267
:10089000000EE56E0A0EE56EFF0EE56E0250E56E87
:1008A0000150E56EC9EC33F0050EE126000EE56E51
:1008B000010EE56E86EC0AF0020EE12670EC40F0C7
:1008C000016EF3CF02F0F4CF03F0E9CF04F0015052
:1008D00008013B6F025008013C6F035008013D6F57
:1008E000045008013E6F030E0801396FE0EF06F077
:1008F00008013851E56ED9EC3BF0016EF3CF02F000
:10090000E12A000E025C02E1FA0E015C28E270ECC2
:1009100040F0016EF3CF02F0F4CF03F0E9CF04F022
:1009200008013B51015E08013C51025A08013D514A
:10093000035A08013E51045A000E045C08E1010EFE
:10094000035C05E13D0E025C02E1E40E015CD8A00F
:10095000E0EF06F0020E0801396FE0EF06F0080143
:100960003A870EEC00F0016E026A0150020A02E1C1
:10097000025002E0E0EF06F0040E0801396F0801B2
:100980003851E56E54EC38F0016EF3CF02F0E12AF5
:10099000010E025C02E1020E015CD8A0E0EF06F05D
:1009A000080138510E0DF3CF01F0026A600E0126E6
:1009B000000E0222000EE56E0A0EE56EFF0EE56ED9
:1009C0000250E56E0150E56EC9EC33F0050EE126EC
:1009D000000EE56E030EE56E86EC0AF0020EE126CF
:1009E00070EC40F0016EF3CF02F0F4CF03F0E9CFEA
:1009F00004F0015008013B6F025008013C6F0350A6
:100A000008013D6F045008013E6F050E0801396F63
:100A1000E0EF06F008013851E56ED9EC3BF0016ECD
:100A2000F3CF02F0E12A000E025C02E1FA0E015C53
:100A300026E270EC40F0016EF3CF02F0F4CF03F049
:100A4000E9CF04F008013B51015E08013C51025A14
:100A500008013D51035A08013E51045A000E045C3E
:100A600008E1010E035C05E13D0E025C02E1E40ECB
:100A7000015CD8A0A5D1020E0801396FA1D10EECFE
:100A800000F0016E026A0150050A02E1025007E01F
:100A90000150060A03E1025001E15FD091D1080143
:100AA0003851E56E9CEC38F0E12A0801386970ECA9
:100AB00040F0016EF3CF02F0F4CF03F0E9CF04F081
:100AC000015008013B6F025008013C6F03500801C0
:100AD0003D6F045008013E6F060E0801396F080192
:100AE0003A8308013A81080153A110D00801475107
:100AF0000E01006F080148510E01016F08014951B4
:100B00000E01026F08014A510E01036F080153A53F
:100B100010D008014F510E01046F080150510E0111
:100B2000056F080151510E01066F080152510E0167
:100B3000076F080153A344D108014B510E01086F00
:100B400008014C510E01096F08014D510E010A6F49
:100B500008014E510E010B6F33D1020E0801396F9F
:100B60002FD170EC40F0016EF3CF02F0F4CF03F020
:100B7000E9CF04F03BC805F03CC806F03DC807F0DB
:100B80003EC808F00550015E0650025A0750035A4D
:100B90000850045A000E045C08E1000E035C05E1F5
:100BA0009E0E025C02E1F20E015CD8A009D13FC8A2
:100BB00001F040C802F041C803F042C804F0000E42
:100BC000045C08E1000E035C05E1000E025C02E13A
:100BD000020E015C29E3F20E05269E0E0622000E8F
:100BE0000722000E0822055008013B6F065008013D
:100BF0003C6F075008013D6F085008013E6FFF0E23
:100C00000126FF0E0222FF0E0322FF0E04220150D6
:100C100008013F6F02500801406F03500801416F07
:100C200004500801426FCCD0000EE56E430EE56E15
:100C3000000EE56E000EE56E000EE56E000EE56E30
:100C4000440EE56E39EC18F0016E070EE1260150F6
:100C50000801386F38C801F0026A0150FF0A03E149
:100C6000025001E1ADD0070E0801396F080138517B
:100C7000E56E54EC38F0016EF3CF02F0E12A010E7C
:100C8000025C02E1020E015CD8A09AD0010EE56E72
:100C9000030EE56E86EC0AF0020EE12608013A9595
:100CA00070EC40F0016EF3CF02F0F4CF03F0E9CF27
:100CB00004F0015008013B6F025008013C6F0350E3
:100CC00008013D6F045008013E6F39C801F0012A48
:100CD00001500801396F74D008013851E56ED9EC24
:100CE0003BF0016EF3CF02F0E12A000E025C02E15C
:100CF000FA0E015C30E270EC40F0016EF3CF02F0CE
:100D0000F4CF03F0E9CF04F008013B51015E080184
:100D10003C51025A08013D51035A08013E51045A00
:100D2000000E045C08E1010E035C05E13D0E025C6F
:100D300002E1E40E015CD8A043D008013929016E1C
:100D400001500801396F0D0E015CD8A039D0020E98
:100D50000801396F35D00EEC00F0016E026A0150C7
:100D6000050A02E1025006E00150060A29E102509C
:100D700024E026D008013851E56E9CEC38F0E12AD9
:100D80000801386970EC40F0016EF3CF02F0F4CF47
:100D900003F0E9CF04F0015008013B6F0250080155
:100DA0003C6F035008013D6F045008013E6F060E72
:100DB0000801396F08013A8303D0020E0801396F28
:100DC000002A9AEF03F0E4CF08F0E4CF07F0E4CF75
:100DD00006F0E4CF05F0E4CF04F0E4CF03F0E4CF75
:100DE00002F0E4CF01F0E4CF00F0E4CFD9FF12002D
:100DF000D9CFE5FFE1CFD9FF00C0E5FF01C0E5FF96
:100E000002C0E5FF03C0E5FF04C0E5FF05C0E5FF44
:100E100006C0E5FF07C0E5FF08C0E5FF09C0E5FF24
:100E20000AC0E5FF0BC0E5FF0CC0E5FF020EDBCFFB
:100E300000F0030EDBCF01F00A01086B0A01096B19
:100E40000A010A6B0A010B6B0A01086B0A01096BA4
:100E50000A010A6B0A010B6B0A01086B0A01096B94
:100E60000A010A6B0A010B6B0A01086B0A01096B84
:100E70000A010A6B0A010B6B0A01086B0A01096B74
:100E80000A010A6B0A010B6B0A01086B0A01096B64
:100E90000A01086B0A01096B0A01086B0A01096B58
:100EA0000A0108910A0108930A0108950A010897A6
:100EB0000A0108990A01089B0A01089D0A01089F76
:100EC0000A0109910A0109930A0109950A01099782
:100ED0000A0109990A01099B0A01099D0A01099F52
:100EE0000A010A6B0A010B6B0A010A6B0A010B6B00
:100EF0000A010A6B0A010B6B0A010A910A010A93A3
:100F00000A010A950A010A970A010A990A010A9B2D
:100F10000A010A9D0A010A9F0A010B910A010B931B
:100F20000A010B950A010B970A010B990A010B9B09
:100F30000A010B9D0A010B9F0A0108910A010893FF
:100F40000A0108950A0108970A0108990A01089BF5
:100F50000A01089D0A01089F0A0109910A010993E3
:100F60000A0109950A0109970A0109990A01099BD1
:100F70000A01099D0A01099F0A010A910A010A93BF
:100F80000A010A950A010A970A010A990A010A9BAD
:100F90000A010A9D0A010A9F0A010B910A010B939B
:100FA0000A010B950A010B970A010B990A010B9B89
:100FB0000A010B9D0A010B9F7BCF02F0036A0250CE
:100FC000056E046A7ACF02F0036A045002120550DB
:100FD000031200500110D8B47DD0000E015C02E174
:100FE000150E005C04E3140E046E056A04D000C004
:100FF00004F001C005F004C058FA05C059FA080E03
:10100000076E6D0E066E800E086E0550E56E04507C
:10101000E56E0850E56E0750E56E0650E56E0EEC85
:1010200032F0050EE1260450005E0550015A0A0117
:1010300058A113D06D0E0A015825046E080E0A013E
:101040005921056E04C0E9FF05C0EAFF000EEF6EEE
:101050000A01582B02E30A01592B080E056E6D0E8A
:10106000046E800E066E58CA07F059CA08F0075081
:101070000810D8B4AED704C0E9FF05C0F3FF06508E
:10108000D0EC3FF0096EF3CF0AF0020E0426000EFA
:101090000522000E06220B6A0C6A0A010851092675
:1010A0000A0109510A220A010A510B220A010B51B5
:1010B0000C2209500A01086F0A500A01096F0B50EF
:1010C0000A010A6F0C500A010B6FFE0E0726D8A00A
:1010D0000806CDD70250006E016A00507A6E0350A8
:1010E000026E036A036A02507B6E08CA00F009CAE6
:1010F00001F0026A036A0ACA04F00BCA05F0066A24
:10110000076A0450002605500122065002220750AB
:10111000032200500A01086F01500A01096F0250B2
:101120000A010A6F03500A010B6F0A010A510A01F2
:101130000825006E0A010B510A010921016E0050B9
:101140000A01086F01500A01096F0A01081D006EAB
:101150000A01091D016E01C0F3FF0050E4CF0CF03D
:10116000E4CF0BF0E4CF0AF0E4CF09F0E4CF08F0CD
:10117000E4CF07F0E4CF06F0E4CF05F0E4CF04F0CD
:10118000E4CF03F0E4CF02F0E4CF01F0E4CF00F0CD
:10119000E4CFD9FF1200D9CFE5FFE1CFD9FF00C0DE
:1011A000E5FF01C0E5FF02C0E5FF03C0E5FF04C0A5
:1011B000E5FF05C0E5FF06C0E5FF07C0E5FF08C085
:1011C000E5FF09C0E5FF0AC0E5FF0BC0E5FF0CC065
:1011D000E5FF0DC0E5FF0EC0E5FF0FC0E5FF10C045
:1011E000E5FF11C0E5FF12C0E5FF13C0E5FF14C025
:1011F000E5FF15C0E5FF16C0E5FF17C0E5FF18C005
:10120000E5FF19C0E5FF1AC0E5FF1BC0E5FF020EB0
:10121000DBCF00F0030EDBCF01F0040EDBCF02F0DA
:10122000050EDBCF03F0060EDBCF04F0070EDBCF9D
:1012300005F0080EDBCF06F0090EDBCF07F00A0E33
:10124000DBCF08F0FF0E096E000E0B6E600E0A6E0B
:10125000800E0C6E0D6A0050020F0E6E000E012003
:101260000F6E000E0220106E0EC0E9FF0FC0F3FFDC
:101270001050D0EC3FF00E6EF3CF0FF00AC010F01C
:101280000BC011F00CC012F0136A13C014F0156AF1
:10129000000E155C02E10A0E145CD8B0B4D01050F8
:1012A0000C0F146E000E1120156E000E1220166E1B
:1012B00014C0E9FF15C0F3FF1650D0EC3FF0146ED8
:1012C000F3CF15F014500E1803E115500F1801E07C
:1012D00090D010500A0F146E000E1120156E000EE3
:1012E0001220166E14C0E9FF15C0F3FF1650D0ECA3
:1012F0003FF0146EF3CF15F000C0E9FF01C0F3FF1B
:101300000250D0EC3FF0166EF3CF17F014501618C1
:1013100003E11550171801E06AD010C0E9FF11C0B1
:10132000F3FF125010EC3FF0146EF3CF15F0F4CF32
:1013300016F0E9CF17F003C0E9FF04C0F3FF055032
:1013400010EC3FF0186EF3CF19F0F4CF1AF0E9CF9C
:101350001BF0145018180AE11550191807E116501F
:101360001A1804E117501B1801E13FD006C0E9FF2D
:1013700007C0F3FF085010EC3FF0146EF3CF15F0E8
:10138000F4CF16F0E9CF17F01450FF0A09E1155019
:10139000FF0A06E11650FF0A03E11750FF0A25E095
:1013A0000E01041D186E0E01051D196E0E01061D9D
:1013B0001A6E0E01071D1B6E0E01005118120E0150
:1013C000015119120E0102511A120E0103511B1282
:1013D0001450181809E11550191806E116501A187A
:1013E00003E117501B1801E002D00D5054D013C078
:1013F00009F00E0E1026000E1122000E1222132AE2
:1014000013C00DF042D709C006F0076A0650FF0A64
:1014100003E1075001E13ED009500E0DF3CF06F075
:10142000076A600E0626000E072207500B6E065054
:101430000A6E800E0C6E000EE56E0A0EE56E05500B
:10144000E56E0450E56E0350E56E0C50E56E0B50F2
:10145000E56E0A50E56EAEEC2FF0080EE1260A0E9E
:101460000A26000E0B22000E0C2200C0E9FF01C06C
:10147000F3FF0250D0EC3FF0006EF3CF01F000C05C
:10148000E5FF01C0F4FF0AC0E9FF0BC0F3FF0C50F9
:1014900024EC41F00950E4CF1BF0E4CF1AF0E4CF84
:1014A00019F0E4CF18F0E4CF17F0E4CF16F0E4CF52
:1014B00015F0E4CF14F0E4CF13F0E4CF12F0E4CF52
:1014C00011F0E4CF10F0E4CF0FF0E4CF0EF0E4CF52
:1014D0000DF0E4CF0CF0E4CF0BF0E4CF0AF0E4CF52
:1014E00009F0E4CF08F0E4CF07F0E4CF06F0E4CF52
:1014F00005F0E4CF04F0E4CF03F0E4CF02F0E4CF52
:1015000001F0E4CF00F0E4CFD9FF1200D9CFE5FF1E
:10151000E1CFD9FF00C0E5FF01C0E5FF02C0E5FF54
:1015200003C0E5FF04C0E5FF05C0E5FF06C0E5FF19
:1015300007C0E5FF08C0E5FF020EDBCF00F0030E99
:10154000DBCF01F0010EE56E76EC37F0E12A010EFB
:10155000E56E76EC37F0E12A060EE56E76EC37F0B4
:10156000E12A000EE56E76EC37F0E12A120EE56E08
:1015700076EC37F0E12A230EE56E76EC37F0E12ABF
:10158000340EE56E76EC37F0E12A560EE56E76EC19
:1015900037F0E12A000EE56E76EC37F0E12A000E16
:1015A000E56E76EC37F0E12A08013AA902D0026A2A
:1015B00002D0800E026E0250E56E76EC37F0E12A22
:1015C000000EE56E76EC37F0E12A00C002F0036A07
:1015D000046A0250030A03E1035001E1042A0450A3
:1015E00017E0015015E0080E066E470E056E800EDE
:1015F000076E000EE56E040EE56E0750E56E0650B0
:10160000E56E0550E56EB1EC30F0050EE12614D024
:10161000000EE56E76EC37F0E12A000EE56E76EC12
:1016200037F0E12A000EE56E76EC37F0E12A000E85
:10163000E56E76EC37F0E12A0C0E056E000EE56ED5
:1016400076EC37F0E12A05060550F8E10E0E076E3C
:101650002D0E066E800E086E000EE56E060EE56E0F
:101660000850E56E0750E56E0650E56EB1EC30F0BF
:10167000050EE126CA0E056E000EE56E76EC37F01B
:10168000E12A052EF9D7630EE56E76EC37F0E12AF4
:10169000820EE56E76EC37F0E12A530EE56E76ECBD
:1016A00037F0E12A630EE56E76EC37F0E12A350E6D
:1016B000E56E76EC37F0E12A010EE56E76EC37F058
:1016C000E12A0050E56E76EC37F0E12A006A02501C
:1016D000010A03E1035001E1002A005002E0080181
:1016E0003A95045024E0015022E1360EE56E76EC86
:1016F00037F0E12A040EE56E76EC37F0E12A0801B6
:101700004651E56E76EC37F0E12A08014551E56E69
:1017100076EC37F0E12A08014451E56E76EC37F0BB
:10172000E12A08014351E56E76EC37F0E12A370EE5
:10173000E56E76EC37F0E12A040EE56E76EC37F0D4
:10174000E12A010EE56E76EC37F0E12A030EE56E34
:1017500076EC37F0E12A060EE56E76EC37F0E12AFA
:101760000C0EE56E76EC37F0E12A045002E00150F1
:101770000BE0005027E0080147510801481108011B
:10178000491108014A111EE0320EE56E76EC37F081
:10179000E12A040EE56E76EC37F0E12A080E026EBF
:1017A000470E006E800E036E000EE56E040EE56EB1
:1017B0000350E56E0250E56E0050E56EB1EC30F07E
:1017C000050EE126FF0EE56E76EC37F0E12A010EFC
:1017D0000A01795D03E12C0E0A01785D06E2000E34
:1017E000E56E76EC37F0E12AF2D70E0100510A01DE
:1017F000046F0E0101510A01056F0E0102510A0129
:10180000066F0E0103510A01076F015008E10E0136
:10181000006B0E01016B0E01026B0E01036B15ECE8
:1018200014F00A0104510E01006F0A0105510E0166
:10183000016F0A0106510E01026F0A0107510E01E4
:10184000036FE4CF08F0E4CF07F0E4CF06F0E4CF75
:1018500005F0E4CF04F0E4CF03F0E4CF02F0E4CFEE
:1018600001F0E4CF00F0E4CFD9FF1200D9CFE5FFBB
:10187000E1CFD9FF00C0E5FF01C0E5FF02C0E5FFF1
:1018800003C0E5FF04C0E5FF05C0E5FF06C0E5FFB6
:1018900007C0E5FF020EDBCF5AFA030EDBCF5BFA7F
:1018A000040EDBCF5CFA050EDBCF5DFA060EDBCF54
:1018B00000F0070EDBCF01F0026A036A0A015BAF9A
:1018C00013D0010E026EE3CE04F0056A0450076ED9
:1018D000066AE2CE04F0056A045006100A015A6F47
:1018E000055007100A015B6F0A015DAF13D0010EAE
:1018F000036E7BCF04F0056A0450076E066A7ACF48
:1019000004F0056A045006100A015C6F05500710C8
:101910000A015D6F000E015C02E1020E005CD8B0AE
:101920007CD07BCF04F0056A0450076E066A7ACF3C
:1019300004F0056A045006120550071206500A0109
:101940005E6F07500A015F6FE3CE04F0056A045032
:10195000076E066AE2CE04F0056A045006120550CE
:10196000071206500A01606F07500A01616F0A01F1
:101970005C51046E056A04507A6E0A015D51046E72
:10198000056A056A04507B6E0A015A51046E056AA5
:1019900004500E01E26F0A015B51046E056A056A8C
:1019A00004500E01E36F00C004F001C005F004C054
:1019B00006F005C007F0FF0E0426D8A00506065065
:1019C000071009E04EEC41F0066E0650E56E30EC73
:1019D00041F0E12AECD703500DE10A015E51046E9B
:1019E000056A04507A6E0A015F51046E056A056A41
:1019F00004507B6E0250D8A4D5D00A016051046E09
:101A0000056A04500E01E26F0A016151046E056A15
:101A1000056A04500E01E36FC5D0025023E0005068
:101A20000A015A25026E01500A015B21046E025020
:101A30000A01606F04500A01616F60CAE8FF61CA61
:101A4000E8FF0250056E066A05500E01E26F60CA9B
:101A5000E8FF61CAE8FF0450026E046A046A02509B
:101A60000E01E36F0A015C51FF0F026EFF0E0A01C7
:101A70005D21046E0250002604500122D2BAFED726
:101A80000A015C51026E046A02500E01F06F0A01F5
:101A90005D51026E046A046A02500E01F16F0A0180
:101AA0005A51026E046A02500E01F46F0A015B5132
:101AB000026E046A046A02500E01F56F5CCA02F0FD
:101AC0005DCA04F0056A066A000E065C08E1000EB5
:101AD000055C05E11A0E045C02E10A0E025C026A72
:101AE000023602501EE100C004F001C005F0066A93
:101AF000076A000E075C08E1000E065C05E11A0E9D
:101B0000055C02E10A0E045C0CE3F60E0426E50E09
:101B10000522FF0E0622FF0E07220450006E05501C
:101B2000016E0050046E056A04500E01F26F015000
:101B3000046E056A056A04500E01F36FD298D28ACA
:101B4000D2BAFED703502EE0002AD8B0012A0250A4
:101B50001EE100C002F001C003F0046A056A000E35
:101B6000055C08E1000E045C05E11A0E035C02E16D
:101B70000A0E025C0CE3F60E0226E50E0322FF0EAF
:101B80000422FF0E05220250006E0350016E005029
:101B9000026E036A02507A6E0150006E016A016A99
:101BA00000507B6EE4CF07F0E4CF06F0E4CF05F001
:101BB000E4CF04F0E4CF03F0E4CF02F0E4CF01F08F
:101BC000E4CF00F0E4CFD9FF1200D9CFE5FFE1CF99
:101BD000D9FF00C0E5FF01C0E5FF02C0E5FF03C07B
:101BE000E5FF04C0E5FF05C0E5FF06C0E5FF07C04F
:101BF000E5FF08C0E5FF09C0E5FF0AC0E5FF0BC02F
:101C0000E5FF0CC0E5FF0DC0E5FF0E012CAD47D090
:101C1000ACEC3EF0006E00500801611901E133D0D8
:101C200000C061F800502FE114CE00F015CE01F095
:101C300016CE02F017CE03F000500E01006F0150D7
:101C40000E01016F02500E01026F03500E01036F6F
:101C500018CE00F019CE01F01ACE02F01BCE03F020
:101C600000500E01046F01500E01056F02500E016D
:101C7000066F03500E01076F0E012C8F000EE56EEC
:101C800068EC39F0E12A83EC03F0000EE56EA2EC7B
:101C900040F0006EE12A005002E00E012C9F3AEC69
:101CA00041F010EC40F0080E016ECF0E006E800E79
:101CB000026E0A0E046E940E036E800E056E0550C1
:101CC000E56E0450E56E0350E56E0250E56E01507E
:101CD000E56E0050E56EA9EC1CF0006E060EE126E4
:101CE0000050D8B4EAD094CA00F0016A005002E172
:101CF000015009E00050060A02E1015001E0D1D78D
:101D0000F9EC16F0CED70A0E016E200E006E800E92
:101D1000026E080E046ECB0E036E800E056E0A0E68
:101D2000076E950E066E800E086E0A0E0A6E700E15
:101D3000096E800E0B6E0B50E56E0A50E56E095071
:101D4000E56E0850E56E0750E56E0650E56E0550ED
:101D5000E56E0450E56E0350E56E0250E56E0150ED
:101D6000E56E0050E56E6AEC19F0006E0C0EE1268F
:101D70000050D8B496D795CA00F0016A0050010A05
:101D800002E1015001E06DD020CA02F021CA03F047
:101D900022CA04F023CA05F000CE06F001CE07F0F7
:101DA00002CE08F003CE09F0025006180AE10350F3
:101DB000071807E10450081804E10550091801E16B
:101DC00039D00250FF0A09E10350FF0A06E104502E
:101DD000FF0A03E10550FF0A2DE00E01045106162B
:101DE0000E01055107160E01065108160E01075186
:101DF00009160E01041D0A6E0E01051D0B6E0E0163
:101E0000061D0C6E0E01071D0D6E0A5006120B50BA
:101E100007120C5008120D5009120250061809E161
:101E20000350071806E10450081803E1055009188B
:101E300001E037D7080E036ECB0E026E800E046EE3
:101E40000A017151E56E0A017051E56E0450E56EAC
:101E50000350E56E0250E56E3FEC24F0050EE126DE
:101E600020D70050110A02E1015001E01AD7080EF4
:101E7000016ECB0E006E800E026E0A0E046E200EF6
:101E8000036E800E056E0A017151E56E0A017051F4
:101E9000E56E0550E56E0450E56E0350E56E0250A8
:101EA000E56E0150E56E0050E56EA0EC12F0006E9C
:101EB000080EE1260050D8B4F4D6E4CF0DF0E4CFFC
:101EC0000CF0E4CF0BF0E4CF0AF0E4CF09F0E4CF5C
:101ED00008F0E4CF07F0E4CF06F0E4CF05F0E4CF5C
:101EE00004F0E4CF03F0E4CF02F0E4CF01F0E4CF5C
:101EF00000F0E4CFD9FF1200D9CFE5FFE1CFD9FF41
:101F000000C0E5FF01C0E5FF02C0E5FF03C0E5FF3B
:101F100004C0E5FF05C0E5FF06C0E5FF07C0E5FF1B
:101F200008C0E5FF020EDBCF00F0030EDBCF01F0AF
:101F3000040EDBCF02F0050EDBCF6CFA060EDBCF12
:101F40006DFA0A01146B0A01156B0A01166B0A017E
:101F5000176B0A01146B0A01156B0A01166B0A0153
:101F6000176B0A01146B0A01156B0A01166B0A0143
:101F7000176B0A01146B0A01156B0A01166B0A0133
:101F8000176B0A01146B0A01156B0A01166B0A0123
:101F9000176B0A01146B0A01156B0A01146B0A0115
:101FA000156B0A01146B0A01156B0A0114910A01E1
:101FB00014930A0114950A0114970A0114990A014D
:101FC000149B0A01149D0A01149F0A0115910A012C
:101FD00015930A0115950A0115970A0115990A0129
:101FE000159B0A01159D0A01159F0A01166B0A012E
:101FF000176B0A01166B0A01176B0A01166B0A01AF
:10200000176B0A0116910A0116930A0116950A0127
:1020100016970A0116990A01169B0A01169D0A01D4
:10202000169F0A0117910A0117930A0117950A01D1
:1020300017970A0117990A01179B0A01179D0A01B0
:10204000179F0A0114910A0114930A0114950A01B9
:1020500014970A0114990A01149B0A01149D0A019C
:10206000149F0A0115910A0115930A0115950A0199
:1020700015970A0115990A01159B0A01159D0A0178
:10208000159F0A0116910A0116930A0116950A0175
:1020900016970A0116990A01169B0A01169D0A0154
:1020A000169F0A0117910A0117930A0117950A0151
:1020B00017970A0117990A01179B0A01179D0A0130
:1020C000179FD8900A016D31046E0A016C31036EBE
:1020D00003C005F004C006F0FF0E0326D8A00406D6
:1020E000055006102BE000C0E9FF01C0F3FF0250CD
:1020F000D0EC3FF0056EF3CF06F0020E0026000E86
:102100000122000E0222076A086A0A0114510526FC
:102110000A01155106220A01165107220A01175118
:10212000082205500A01146F06500A01156F075066
:102130000A01166F08500A01176FCAD70A016CA16D
:1021400023D000C0E9FF01C0F3FF025081EC40F052
:10215000006E016A026A036A0A01145100260A012C
:10216000155101220A01165102220A0117510322B8
:1021700000500A01146F01500A01156F02500A0144
:10218000166F03500A01176F14CA00F015CA01F048
:10219000026A036A16CA04F017CA05F0066A076ADB
:1021A0000450002605500122065002220750032247
:1021B00000500A01146F01500A01156F02500A0104
:1021C000166F03500A01176F0A0116510A011425F0
:1021D000006E0A0117510A011521016E00500A0113
:1021E000146F01500A01156F0A01141D006E0A01D7
:1021F000151D016E01C0F3FF0050E4CF08F0E4CFDD
:1022000007F0E4CF06F0E4CF05F0E4CF04F0E4CF2C
:1022100003F0E4CF02F0E4CF01F0E4CF00F0E4CF2C
:10222000D9FF1200D9CFE5FFE1CFD9FF00C0E5FF0C
:1022300001C0E5FF02C0E5FF03C0E5FF04C0E5FF04
:1022400005C0E5FF06C0E5FF07C0E5FF08C0E5FFE4
:1022500009C0E5FF0AC0E5FF0BC0E5FF0CC0E5FFC4
:102260000DC0E5FF020EDBCF00F0030EDBCF01F067
:10227000040EDBCF02F0050EDBCF03F0060EDBCF42
:1022800004F0070EDBCF05F0066A076A0A010C6B43
:102290000A010D6B0A010E6B0A010F6B00C0E9FF0A
:1022A00001C0F3FF025081EC40F0086E002AD8B064
:1022B000012AD8B0022A08C009F00850D8B4D0D0FA
:1022C00007C008F00A6A000E0A5C02E1040E085C0E
:1022D000D8B0C6D0D00E092606500CE109C008F0CF
:1022E0000A6A000E0A5C02E10A0E085CD8A09DD0C2
:1022F000E86A07D106C008F00A6A0850030A02E13A
:102300000A5001E044D00950FE0A02E0E86AF9D020
:10231000000E0A010F5D0BE1020E0A010E5D07E1DE
:10232000050E0A010D5D03E1060E0A010C5D02E3D4
:10233000E86AE7D007C008F0072A0A6A0B6A035068
:10234000082604500A2205500B220A010E51640D82
:10235000F3CF0CF00A010D510A0DF3CF0DF00D5023
:102360000C260A010C510C260CC0E5FF08C0E9FF41
:102370000AC0F3FF0B5044EC41F0066A0A010C6BF3
:102380000A010D6B0A010E6B0A010F6B87D709500A
:10239000FE0A01E03FD0000E0A010F5D0BE1020EC4
:1023A0000A010E5D07E1050E0A010D5D03E1060E4F
:1023B0000A010C5D02E3E86AA4D007C008F0072A0E
:1023C0000A6A0B6A0350082604500A2205500B22A1
:1023D0000A010E51640DF3CF0CF00A010D510A0DE4
:1023E000F3CF0DF00D500C260A010C510C260CC039
:1023F000E5FF08C0E9FF0AC0F3FF0B5044EC41F0D1
:10240000066A0A010C6B0A010D6B0A010E6B0A01C8
:102410000F6B44D709C008F00A6A000E0A5C02E19B
:102420000A0E085C02E3E86A6CD0062A0A010E5123
:102430000C6E0A010D510B6E0A010C510A6E086AEE
:1024400008500A010C6F0A500A010D6F0B500A0167
:102450000E6F0C500A010F6F09500A010C6F1ED746
:1024600009501EE009C000F0016A00502F0A02E185
:10247000015016E000500D0A02E1015011E0005039
:102480000A0A02E101500CE00050200A02E101506A
:1024900007E00050090A02E1015002E0E86A31D089
:1024A000000E0A010F5D0BE1020E0A010E5D07E14D
:1024B000050E0A010D5D03E1060E0A010C5D02E343
:1024C000E86A1FD0030E0326000E0422000E052228
:1024D0000A010E51640DF3CF00F00A010D510A0DEF
:1024E000F3CF01F0015000260A010C51002600C074
:1024F000E5FF03C0E9FF04C0F3FF055044EC41F0E1
:10250000010EE4CF0DF0E4CF0CF0E4CF0BF0E4CFFC
:102510000AF0E4CF09F0E4CF08F0E4CF07F0E4CF0D
:1025200006F0E4CF05F0E4CF04F0E4CF03F0E4CF0D
:1025300002F0E4CF01F0E4CF00F0E4CFD9FF1200C5
:10254000D9CFE5FFE1CFD9FF00C0E5FF01C0E5FF2E
:1025500002C0E5FF03C0E5FF04C0E5FF05C0E5FFDD
:1025600006C0E5FF07C0E5FF08C0E5FF09C0E5FFBD
:102570000AC0E5FF0BC0E5FF020EDBCF00F0030E43
:10258000DBCF01F0040EDBCF02F0050EDBCF03F052
:10259000060EDBCF04F0070EDBCF05F0080EDBCF15
:1025A00006F0090EDBCF07F00A017C6B0A017D6B98
:1025B000080E096EE50E086E800E0A6E000EE56EBE
:1025C000080EE56E0A50E56E0950E56E0850E56E9E
:1025D0000EEC32F0050EE1260801E651E56E080129
:1025E000E551E56E54EC3DF0086EF3CF09F0020EB4
:1025F000E12608500801E56F09500801E66F08015F
:10260000E851E56E0801E751E56E54EC3DF0086EC7
:10261000F3CF09F0020EE12608500801E76F0950D8
:102620000801E86F0801EA51E56E0801E951E56E1D
:1026300054EC3DF0086EF3CF09F0020EE126F80EDF
:102640000826D8A0090608500801E96F09500801BA
:10265000EA6F0801EB510801EC11D8B496D000C024
:10266000E9FF01C0F3FF025010EC3FF0086EF3CF1A
:1026700009F0F4CF0AF0E9CF0BF008500801B56F6C
:1026800009500801B66F0A500801B76F0B500801D6
:10269000B86F03C0E9FF04C0F3FF055010EC3FF032
:1026A000086EF3CF09F0F4CF0AF0E9CF0BF0085031
:1026B0000801B96F09500801BA6F0A500801BB6FD1
:1026C0000B500801BC6F0801BD6B110E0801BE6FF5
:1026D00006500801BF6F07500801C06F0750E56E34
:1026E0000650E56E54EC3DF0086EF3CF09F0020E93
:1026F000E12608500801BF6F09500801C06F080E9D
:10270000096EB50E086E800E0A6E000EE56E0C0E98
:10271000E56E0A50E56E0950E56E0850E56E7CECFA
:102720000FF0086EF3CF09F0050EE126081E091E12
:1027300008500A012C6F09500A012D6F000EE56E3A
:10274000000EE56ED3EC3CF0020EE1260750E56E7C
:102750000650E56EF8EC06F0066EF3CF07F0020EB9
:10276000E12606500A012E6F07500A012F6F0A0159
:102770002C510A012E1905E10A012D510A012F19C8
:1027800004E0C1EC37F0E86A35D0080E076EE50EBC
:10279000066E800E086E0550E56E0450E56E03501F
:1027A000E56E0250E56E0150E56E0050E56E085092
:1027B000E56E0750E56E0650E56ECBEC08F0006E56
:1027C000090EE12600C001F0026A0150FF0A02E191
:1027D000025001E004D0C1EC37F0E86A0BD000C031
:1027E00067F8E9C87CFAEAC87DFA0A0196810A010D
:1027F0009693010EE4CF0BF0E4CF0AF0E4CF09F09A
:10280000E4CF08F0E4CF07F0E4CF06F0E4CF05F022
:10281000E4CF04F0E4CF03F0E4CF02F0E4CF01F022
:10282000E4CF00F0E4CFD9FF1200D9CFE5FFE1CF2C
:10283000D9FF00C0E5FF01C0E5FF02C0E5FF03C00E
:10284000E5FF04C0E5FF05C0E5FF06C0E5FF07C0E2
:10285000E5FF08C0E5FF0A0197510E0DF3CF00F028
:10286000016A600E0026000E01220150016E005028
:10287000006E800E026E0A017851080F036E000E82
:102880000A017921046E00500C0F056E000E012024
:10289000066E000E0220076E05C0E9FF06C0F3FFBA
:1028A0000750D0EC3FF0056EF3CF06F00650E56E12
:1028B0000550E56E54EC3DF0056EF3CF06F0020EC8
:1028C000E12605500801DD6F06500801DE6F00505B
:1028D0000A0F056E000E0120066E000E0220076E24
:1028E00005C0E9FF06C0F3FF0750D0EC3FF0056ECE
:1028F000F3CF06F00650E56E0550E56E54EC3DF062
:10290000056EF3CF06F0020EE12605500801DF6FD9
:1029100006500801E06F0450E56E0350E56E54EC7C
:102920003DF0056EF3CF06F0020EE12605500801DA
:10293000E16F06500801E26F0801E36B0801E46BE8
:102940000E0100510801A96F0E0101510801AA6F83
:102950000E0102510801AB6F0E0103510801AC6F6B
:1029600000C0E9FF01C0F3FF025010EC3FF0056E1C
:10297000F3CF06F0F4CF07F0E9CF08F005500801D7
:10298000AD6F06500801AE6F07500801AF6F0850D9
:102990000801B06F0801B16B110E0801B26F03504E
:1029A0000801B36F04500801B46F0450E56E035082
:1029B000E56E54EC3DF0056EF3CF06F0020EE12615
:1029C00005500801B36F06500801B46F080E066E7B
:1029D000A90E056E800E076E000EE56E0C0EE56EFC
:1029E0000750E56E0650E56E0550E56E7CEC0FF085
:1029F000056EF3CF06F0050EE126051E061E0550F6
:102A00000801E36F06500801E46F1A0EE56E190E17
:102A1000E56EAAEC39F0020EE1260450E56E035093
:102A2000E56E110EE56E0250E56E0150E56E005048
:102A3000E56EB2EC20F0060EE126080E016EDD0E0A
:102A4000006E800E026E000EE56E080EE56E0250FE
:102A5000E56E0150E56E0050E56E2BEC37F0050E8B
:102A6000E1261A0EE56E2D0EE56E2EEC3AF0006EA4
:102A7000F3CF01F0020EE1260450E56E0350E56E3F
:102A8000F8EC06F00A017A6FF3CF7BFA020EE1262A
:102A90000150E56E0050E56E2EEC3AF0020EE12694
:102AA0001A0EE56E330EE56EAAEC39F0020EE12641
:102AB0000A0E016E7A0E006E800E026E000EE56E3A
:102AC000020EE56E0250E56E0150E56E0050E56EB7
:102AD0002BEC37F0050EE1260EEC3CF00A01786B8A
:102AE0000A01796BFF0E0801666FE4CF08F0E4CFAE
:102AF00007F0E4CF06F0E4CF05F0E4CF04F0E4CF34
:102B000003F0E4CF02F0E4CF01F0E4CF00F0E4CF33
:102B1000D9FF1200D9CFE5FFE1CFD9FF00C0E5FF13
:102B200001C0E5FF02C0E5FF03C0E5FF04C0E5FF0B
:102B300005C0E5FF06C0E5FF07C0E5FF08C0E5FFEB
:102B400009C0E5FF0AC0E5FF0BC0E5FF0CC0E5FFCB
:102B50000DC0E5FF0EC0E5FF0FC0E5FF10C0E5FFAB
:102B600011C0E5FF12C0E5FF13C0E5FF14C0E5FF8B
:102B700015C0E5FF16C0E5FF17C0E5FF18C0E5FF6B
:102B800019C0E5FF1AC0E5FF1BC0E5FF1CC0E5FF4B
:102B90001DC0E5FFC2CF00F0C0CF01F0D5CF02F0DD
:102BA000D6CF03F0D7CF04F0010EC26E3F0EC06E39
:102BB000880ED56E056A066A076A086A096A0A6A93
:102BC000A6EC3DF00B6EF3CF0CF0F4CF0DF0E9CF97
:102BD0000EF00F6AD76AD66AC2820400C2B2FED76C
:102BE000D6500A01666FD7500A01676FA6EC3DF018
:102BF000106EF3CF11F0F4CF12F0E9CF13F066CAE4
:102C000012F067CA13F0146A156A125005261350A1
:102C100006221450072215500822000E085C08E115
:102C20009E0E075C05E1F20E065C02E11A0E055CE1
:102C3000D8A048D0A6EC3DF0126EF3CF13F0F4CF3D
:102C400014F0E9CF15F0A6EC3DF0166EF3CF17F0B7
:102C5000F4CF18F0E9CF19F0183017301D6E1C6A48
:102C60001C321640800B1B6E1650E8407F0B1C1266
:102C70001A6A1A5012121B5013121C5014121D50B3
:102C80001512A6EC3DF0166EF3CF17F0F4CF18F046
:102C9000E9CF19F01640E840C00B1D6E1A6A1B6A96
:102CA0001C6A1A5012121B5013121C5014121D5081
:102CB000151212500B1A13500C1A14500D1A1550ED
:102CC0000E1A47D009500A01661905E10A500A0197
:102CD000671901E17FD70A016651095C126E0A018A
:102CE00067510A58136E1250102613501122126A9F
:102CF000136A1350E56E1250E56E1150E56E1050D8
:102D0000E56E4BEC40F0040EE12666CA09F067CA96
:102D10000AF00B500B260C360D360E36A6EC3DF0A5
:102D2000106EF3CF11F0F4CF12F0E9CF13F013507F
:102D3000800F800F08E1000E125C05E1400E115C6F
:102D400002E1000E105C01E30B800F2A0F50D8A4A3
:102D500041D700C0C2FF01C0C0FF04C0D7FF03C0FD
:102D6000D6FF02C0D5FF0EC0E9FF0DC0F4FF0CC0B6
:102D7000F3FF0B50E4CF1DF0E4CF1CF0E4CF1BF0C9
:102D8000E4CF1AF0E4CF19F0E4CF18F0E4CF17F055
:102D9000E4CF16F0E4CF15F0E4CF14F0E4CF13F055
:102DA000E4CF12F0E4CF11F0E4CF10F0E4CF0FF055
:102DB000E4CF0EF0E4CF0DF0E4CF0CF0E4CF0BF055
:102DC000E4CF0AF0E4CF09F0E4CF08F0E4CF07F055
:102DD000E4CF06F0E4CF05F0E4CF04F0E4CF03F055
:102DE000E4CF02F0E4CF01F0E4CF00F0E4CFD9FF6C
:102DF0001200D9CFE5FFE1CFD9FF00C0E5FF01C048
:102E0000E5FF02C0E5FF03C0E5FF04C0E5FF05C024
:102E1000E5FF06C0E5FF07C0E5FF08015C5106E0DD
:102E200008015C51010A01E1C4D00FD1080E016E06
:102E3000000E006E800E026E000EE56E1C0EE56E3A
:102E40000250E56E0150E56E0050E56E0EEC32F07A
:102E5000050EE126C1EC37F0080E016E000E006E83
:102E6000800E026E0250E56E0150E56E0050E56E78
:102E700056EC28F0030EE12608010051010A03E197
:102E80000801015101E008D008010451060A04E1DB
:102E900008010551040A02E0010ED8D006C800F06E
:102EA00007C801F00050020A02E1015001E032D0EF
:102EB0000E0E036E790E026E800E046E080E066E04
:102EC000080E056E800E076E000EE56E060EE56EAE
:102ED0000750E56E0650E56E0550E56E0450E56E50
:102EE0000350E56E0250E56EAEEC2FF0080EE126C1
:102EF00008010E510E01756F08010F510E01766F1A
:102F0000080110510E01776F080111510E01786F01
:102F1000010E9CD00050010A02E1015001E049D0AD
:102F2000080118510E0100190FE1080119510E0195
:102F300001190AE108011A510E01021905E10801FF
:102F40001B510E01031902E0010E80D008010E5141
:102F50000801C16F08010F510801C26F080110512B
:102F60000801C36F080111510801C46F080E016EFA
:102F7000C50E006E800E026E080E046E080E036E03
:102F8000800E056E000EE56E060EE56E0550E56ED0
:102F90000450E56E0350E56E0250E56E0150E56E9B
:102FA0000050E56EAEEC2FF0080EE126010E080190
:102FB0005C6F020E0801066F0801076B080E016EB8
:102FC000120E006E800E026E080E046EC50E036EA9
:102FD000800E056E000EE56E060EE56E0550E56E80
:102FE0000450E56E0350E56E0250E56E0150E56E4B
:102FF0000050E56EAEEC2FF0080EE1260801C1513D
:103000000801186F0801C2510801196F0801C35166
:1030100008011A6F0801C45108011B6F080E016EE8
:10302000000E006E800E026E0250E56E0150E56EDD
:103030000050E56EB3EC1FF0006E030EE126005069
:1030400002E1E86A03D008015C6B010EE4CF07F0EF
:10305000E4CF06F0E4CF05F0E4CF04F0E4CF03F0D2
:10306000E4CF02F0E4CF01F0E4CF00F0E4CFD9FFE9
:103070001200D9CFE5FFE1CFD9FF00C0E5FF01C0C5
:10308000E5FF02C0E5FF03C0E5FF04C0E5FF05C0A2
:10309000E5FF06C0E5FF07C0E5FF08C0E5FF09C082
:1030A000E5FF0AC0E5FF0BC0E5FF0CC0E5FF0DC062
:1030B000E5FF0EC0E5FF0FC0E5FF10C0E5FF11C042
:1030C000E5FF12C0E5FF13C0E5FF020EDBCF00F005
:1030D000030EDBCF01F0040EDBCF02F0050EDBCFD9
:1030E00003F0060EDBCF04F0070EDBCF05F0080E71
:1030F000DBCF06F0000E086E600E076E800E096EC4
:103100000A6A07C00BF008C00CF009C00DF00E6A87
:103110000EC00FF0106A000E105C02E10A0E0F5C88
:10312000D8B0ACD00B500C0F0F6E000E0C20106EF0
:10313000000E0D20116E0FC0E9FF10C0F3FF1150FB
:10314000D0EC3FF0126EF3CF13F012501310D8A44E
:1031500085D000C0E5FF01C0F4FF0FC0E9FF10C03B
:10316000F3FF115024EC41F00050011032E1200E29
:103170000A01775D03E1010E0A01765D08E2100E97
:103180000A01775D03E1000E0A01765D05E20A019E
:10319000766B100E0A01776F07500C0F0F6E000E42
:1031A0000820106E000E0920116E76CA12F077CA40
:1031B00013F00A01762B02E30A01772B12C0E5FF18
:1031C00013C0F4FF0FC0E9FF10C0F3FF115024EC4F
:1031D00041F002500310041015E0000EE56E0A0ED7
:1031E000E56E0450E56E0350E56E0250E56E095041
:1031F000E56E0850E56E0750E56EAEEC2FF0080E58
:10320000E12614D007C00FF008C010F009C011F07B
:10321000000EE56E0A0EE56EFF0EE56E1050E56ECF
:103220000F50E56EC9EC33F0050EE12607500A0F8A
:103230000F6E000E0820106E000E0920116E05C0E2
:10324000E5FF06C0F4FF0FC0E9FF10C0F3FF115007
:1032500024EC41F00AC097FA0A5011D00E0E0B264A
:10326000000E0C22000E0D220BC007F00CC008F05F
:103270000DC009F00E2A0EC00AF04AD7E868E4CF64
:1032800013F0E4CF12F0E4CF11F0E4CF10F0E4CF6C
:103290000FF0E4CF0EF0E4CF0DF0E4CF0CF0E4CF6C
:1032A0000BF0E4CF0AF0E4CF09F0E4CF08F0E4CF6C
:1032B00007F0E4CF06F0E4CF05F0E4CF04F0E4CF6C
:1032C00003F0E4CF02F0E4CF01F0E4CF00F0E4CF6C
:1032D000D9FF1200D9CFE5FFE1CFD9FF00C0E5FF4C
:1032E00001C0E5FF02C0E5FF03C0E5FF04C0E5FF44
:1032F00005C0E5FF06C0E5FF07C0E5FF08C0E5FF24
:1033000009C0E5FF0AC0E5FF0BC0E5FF0CC0E5FF03
:103310000DC0E5FF0EC0E5FF0FC0E5FF020EDBCFDD
:1033200000F0030EDBCF01F0040EDBCF02F0050E40
:10333000DBCF03F0060EDBCF04F0070EDBCF05F08A
:10334000080EDBCF06F0090EDBCF07F00A0EDBCF4D
:1033500008F00B0EDBCF09F00C0EDBCF0AF00D0EE0
:10336000DBCF0BF0080E0D6E810E0C6E800E0E6E14
:10337000000EE56E140EE56E0E50E56E0D50E56E16
:103380000C50E56E0EEC32F0050EE126F00E080151
:1033900081150C6E0D6A0C50400A02E10D5002E0DE
:1033A000E86AA0D0080187511F0B03E1080188518A
:1033B00002E0E86A97D00F0E080181150C6E0C44EC
:1033C000E844FC0B0A018A6F8ACA0CF00D6A0D50A2
:1033D000E56E0C50E56E000EE56E000EE56EDDEC60
:1033E0002BF00C6EF3CF0DF0040EE1260C500A0109
:1033F0006E6F0D500A016F6F8ACA0CF00D6A0D5086
:10340000E56E0C50E56E92EC34F0020EE1260A01F6
:103410006E510A016F1102E0E86A64D0080E0D6E69
:10342000810E0C6E800E0E6E0E50E56E0D50E56E28
:103430000C50E56EC1EC25F0030EE12600500110A2
:10344000021017E091C80CF092C80DF093C80EF06E
:1034500094C80FF00CC0E5FF0DC0F4FF0EC0F6FFDE
:103460000FC0F7FF00C0E9FF01C0F3FF0250B2EC4C
:1034700040F08DC800F08EC801F08FC802F090C8EF
:103480000CF000C0E5FF01C0F4FF02C0F6FF0CC065
:10349000F7FF03C0E9FF04C0F3FF0550B2EC40F0B2
:1034A0008AC800F000C0E5FF06C0E9FF07C0F3FFCF
:1034B000085044EC41F08ACA00F0016A005008014B
:1034C000835D006E015008018459016E00C0E5FF64
:1034D00001C0F4FF09C0E9FF0AC0F3FF0B5024EC60
:1034E00041F0010EE4CF0FF0E4CF0EF0E4CF0DF089
:1034F000E4CF0CF0E4CF0BF0E4CF0AF0E4CF09F016
:10350000E4CF08F0E4CF07F0E4CF06F0E4CF05F015
:10351000E4CF04F0E4CF03F0E4CF02F0E4CF01F015
:10352000E4CF00F0E4CFD9FF1200D9CFE5FFE1CF1F
:10353000D9FF00C0E5FF01C0E5FF02C0E5FF03C001
:10354000E5FF04C0E5FF05C0E5FF06C0E5FF07C0D5
:10355000E5FF080E0A018D5DD8B0DED008C0E5FF9A
:1035600009C0E5FF096A0A018D350936E8340936D4
:10357000FC0B086E000EFB6E350EFA6E940E0826DC
:103580000950FA22D8B0FB2A0850E4CF09F0E4CF62
:1035900008F0F96EDAEF1AF0FCEF1AF005EF1BF005
:1035A00038EF1BF04CEF1BF060EF1BF074EF1BF0DB
:1035B00088EF1BF0000EE56E200EE56E200EE56E26
:1035C0000E0EE56E330EE56EC9EC33F0050EE12606
:1035D0000E01536B90909092966A9992999499905B
:1035E000010E0A01906FE10ECE6EFA0ECF6ECD8005
:1035F000010E0A018D6F90D09094030E8D6E020E15
:103600000A018D6F0A018B6B87D09080110E006EBE
:10361000016A026A036A00C004F001C005F002C03A
:1036200006F003C007F0FF0E0026FF0E0122FF0E7A
:103630000222FF0E03220450051006100710EBE1D2
:1036400090900A018B2B8BCA00F0016A000E015C7E
:1036500002E1030E005C03E3030E0A018D6F010E0D
:103660000A01906FBE0ECE6EFF0ECF6ECD8054D08D
:10367000380EE56E000EE56E41EC3CF0020EE126E0
:10368000010E0A01906FFE0ECE6EFF0ECF6ECD8042
:10369000040E0A018D6F40D0060EE56E000EE56E39
:1036A00041EC3CF0020EE126010E0A01906FFE0E85
:1036B000CE6EFF0ECF6ECD80050E0A018D6F2CD021
:1036C0000C0EE56E000EE56E41EC3CF0020EE126BC
:1036D000010E0A01906FFE0ECE6EFF0ECF6ECD80F2
:1036E000060E0A018D6F18D0010EE56E000EE56E14
:1036F00041EC3CF0020EE126010E0A01906FBE0E75
:10370000CE6EFF0ECF6ECD80070E0A018D6F04D0F6
:103710000A01916B0A018D6BE4CF07F0E4CF06F04C
:10372000E4CF05F0E4CF04F0E4CF03F0E4CF02F0FF
:10373000E4CF01F0E4CF00F0E4CFD9FF1200D9CFFD
:10374000E5FFE1CFD9FF00C0E5FF01C0E5FF02C002
:10375000E5FF03C0E5FF04C0E5FF05C0E5FF06C0C7
:10376000E5FF07C0E5FF020EDBCF00F0030EDBCF65
:1037700001F0040EDBCF02F0050EDBCF03F0060EE6
:10378000DBCF04F0070EDBCF05F0080EDBCF06F031
:10379000090EDBCF07F000500A01346F0150356F7E
:1037A0000250366F0350376F04500A01386F0550CE
:1037B000396F06503A6F07503B6F0A0134510A01C6
:1037C0003A03F3CF00F0F4CF01F000500A013E6F4E
:1037D00001503F6F0A0134510A013803F3CF00F062
:1037E000F4CF01F000500A013C6F01503D6F0A0117
:1037F00037510A013803F3CF00F00A013F51002688
:1038000000503F6F0A0136510A013903F3CF00F02F
:103810000A013F51002600503F6F0A0136510A014C
:103820003803F3CF00F0F4CF01F00A013E51002637
:103830003F51012200503E6F01503F6F0A01355148
:103840000A013903F3CF00F0F4CF01F00A013E5131
:1038500000263F51012200503E6F01503F6F0A0188
:1038600035510A013A03F3CF00F000500A01436FCB
:103870000A0135510A013803F3CF00F0F4CF01F00B
:1038800000500A01416F0150426F0A0134510A0190
:103890003B03F3CF00F000500A01476F0A01345197
:1038A0000A013903F3CF00F0F4CF01F000500A0110
:1038B000456F0150466F0A01406B0A01446B0A01D3
:1038C00040510A013C25006E0A0141510A013D2187
:1038D000016E0A0142510A013E21026E0A01435162
:1038E0000A013F21036E00503C6F01503D6F0250B2
:1038F0003E6F03503F6F0A0144510A013C25006EA0
:103900000A0145510A013D21016E0A0146510A0191
:103910003E21026E0A0147510A013F21036E03C096
:10392000E9FF02C0F4FF01C0F3FF0050E4CF07F04D
:10393000E4CF06F0E4CF05F0E4CF04F0E4CF03F0E9
:10394000E4CF02F0E4CF01F0E4CF00F0E4CFD9FF00
:103950001200D9CFE5FFE1CFD9FF00C0E5FF01C0DC
:10396000E5FF02C0E5FF03C0E5FF04C0E5FF05C0B9
:10397000E5FF06C0E5FF07C0E5FF08C0E5FF09C099
:10398000E5FF020EDBCF00F0030EDBCF01F0040EEB
:10399000DBCF02F0050EDBCF03F0060EDBCF04F029
:1039A000070EDBCF05F00E01D95102E1E86AC3D062
:1039B0000A01875104E1C1EC37F0E86ABCD00A0182
:1039C00048510A014A6F0A0149510A014B6F0A0125
:1039D0004B51066E076A076A06507B6E0A014A5110
:1039E000066E076A06507A6E000E076EEC0E066EC3
:1039F000800E086E000EE56E140EE56E0850E56E42
:103A00000750E56E0650E56E0EEC32F0050EE1262D
:103A10000001FF51E56E0001FE51E56E54EC3DF0F2
:103A2000066EF3CF07F0020EE12606500001FE6F8E
:103A300007500001FF6FECC006F0EDC007F0086A08
:103A4000096A000E095C08E1000E085C05E11A0E27
:103A5000075C02E10A0E065C14E20001ECB111D031
:103A60000001F1BF0ED00001F0B90BD0050E00012E
:103A7000EF5D03E1EF0E0001EE5D03E20001F0BF38
:103A80000DD0000EE56E5A0EE56EF60EE56E000ED8
:103A9000E56E5EEC33F0040EE126FFD70001EC5139
:103AA0000A01486F0001ED510A01496F000E076ECF
:103AB000F80E066E800E086E000EE56E060EE56EC0
:103AC0000850E56E0750E56E0650E56E0250E56E53
:103AD0000150E56E0050E56EAEEC2FF0080EE126C9
:103AE000FF0EE56E03C0E9FF04C0F3FF055044EC90
:103AF00041F0FFC000F0016A0050080A02E10150E5
:103B000001E016D0FEC000F0005009E000C001F056
:103B1000026A0150060A02E1025001E009D000C029
:103B2000E5FF03C0E9FF04C0F3FF055044EC41F09A
:103B30000A01876B010EE4CF09F0E4CF08F0E4CF6F
:103B400007F0E4CF06F0E4CF05F0E4CF04F0E4CFD3
:103B500003F0E4CF02F0E4CF01F0E4CF00F0E4CFD3
:103B6000D9FF1200D9CFE5FFE1CFD9FF00C0E5FFB3
:103B700001C0E5FF02C0E5FF050E0A018E5DD8B069
:103B8000E9D003C0E5FF04C0E5FF046A0A018E35F1
:103B90000436E8340436FC0B036E000EFB6E3B0E5D
:103BA000FA6EBA0E03260450FA22D8B0FB2A03504C
:103BB000E4CF04F0E4CF03F0F96EE7EF1DF0FDEF82
:103BC0001DF046EF1EF05DEF1EF0A6EF1EF0020E98
:103BD000E56E000EE56E41EC3CF0020EE126010EB2
:103BE0000A01906FBE0ECE6EFF0ECF6ECD80010E1D
:103BF0000A018E6F0A018B6BADD0540E0A018B2522
:103C0000006E016A0E0E012200C0E9FF01C0EAFF4A
:103C1000EFCF00F000501BE18BCA8CFA8CCA01F088
:103C2000026A000E025C02E1100E015C10E2540E0A
:103C30000A018C25016E026A0E0E022201C0E9FF04
:103C400002C0EAFF200EEF6E0A018C2BE7D700506E
:103C5000E56E010EE56E41EC3CF0020EE1260A0134
:103C60008B2B8BCA00F0016A000E015C02E1100E82
:103C7000005C03E3020E0A018E6F010E0A01906FD1
:103C8000FE0ECE6EFF0ECF6ECD8064D0C00EE56E00
:103C9000000EE56E41EC3CF0020EE126010E0A0139
:103CA000906FFE0ECE6EFF0ECF6ECD80030E0A011A
:103CB0008E6F100E0A018B6F4DD0540E0A018B25AA
:103CC000006E016A0E0E012200C0E9FF01C0EAFF8A
:103CD000EFCF00F000501BE18BCA8CFA8CCA01F0C8
:103CE000026A000E025C02E1200E015C10E2540E3A
:103CF0000A018C25016E026A0E0E022201C0E9FF44
:103D000002C0EAFF200EEF6E0A018C2BE7D70050AD
:103D1000E56E010EE56E41EC3CF0020EE1260A0173
:103D20008B2B8BCA00F0016A000E015C02E1200EB1
:103D3000005C03E3040E0A018E6F010E0A01906F0E
:103D4000FE0ECE6EFF0ECF6ECD8004D00A01916BB9
:103D50000A018E6BE4CF02F0E4CF01F0E4CF00F073
:103D6000E4CFD9FF1200D9CFE5FFE1CFD9FF00C0E2
:103D7000E5FF01C0E5FF02C0E5FF03C0E5FF04C0A9
:103D8000E5FF05C0E5FF06C0E5FF07C0E5FF08C089
:103D9000E5FF09C0E5FF0AC0E5FF0BC0E5FF0CC069
:103DA000E5FF0DC0E5FF0EC0E5FF0FC0E5FF10C049
:103DB000E5FF11C0E5FF12C0E5FF13C0E5FF14C029
:103DC000E5FF15C0E5FF020EDBCF00F0030EDBCFF1
:103DD00001F0040EDBCF02F0050EDBCF03F0060E80
:103DE000DBCF04F0070EDBCF05F0080EDBCF06F0CB
:103DF000090EDBCF07F000C008F001C009F002C0D7
:103E00000AF003C00BF004C00CF005C00DF006C0B2
:103E10000EF007C00FF006500710D8B43ED003C014
:103E200010F004C011F005C012F006C013F007C076
:103E300014F0FF0E1326D8A01406135014101DE022
:103E400010C0E9FF11C0F3FF125081EC40F0156E75
:103E5000102AD8B0112AD8B0122A15C0E5FF00C028
:103E6000E9FF01C0F3FF025044EC41F0002AD8B052
:103E7000012AD8B0022A1550DCE110C00BF011C0A5
:103E80000CF012C00DF000C008F001C009F002C033
:103E90000AF013C00EF014C00FF00E500F1027E1FF
:103EA0000650071009E0000EE56E08C0E9FF09C0E2
:103EB000F3FF0A5044EC41F00BC000F00CC001F0DD
:103EC0000DC002F000C0E9FF01C0F3FF025081EC19
:103ED00040F0066E002AD8B0012AD8B0022A065057
:103EE000F1E100C00BF001C00CF002C00DF0035076
:103EF0000B5C036E04500C58046EFF0E0326D8A012
:103F0000040604C0F3FF0350E4CF15F0E4CF14F02F
:103F1000E4CF13F0E4CF12F0E4CF11F0E4CF10F0CF
:103F2000E4CF0FF0E4CF0EF0E4CF0DF0E4CF0CF0CF
:103F3000E4CF0BF0E4CF0AF0E4CF09F0E4CF08F0CF
:103F4000E4CF07F0E4CF06F0E4CF05F0E4CF04F0CF
:103F5000E4CF03F0E4CF02F0E4CF01F0E4CF00F0CF
:103F6000E4CFD9FF1200D9CFE5FFE1CFD9FF00C0E0
:103F7000E5FF01C0E5FF02C0E5FF03C0E5FF04C0A7
:103F8000E5FF05C0E5FF06C0E5FF07C0E5FF08C087
:103F9000E5FF09C0E5FF020EDBCF00F0030EDBCF2B
:103FA00001F0040EDBCF02F0EDEC3AF0036E0350AB
:103FB000FBE01A0EE56E0B0EE56EAAEC39F0020E70
:103FC000E126010EE56E000EF46E00C0E9FF01C0AF
:103FD000F3FF025024EC41F00050020F036E000E7C
:103FE0000120046E000E0220056E000EE56E080E24
:103FF000F46E03C0E9FF04C0F3FF055024EC41F068
:104000000050040F036E000E0120046E000E02200B
:10401000056E060EE56E03C0E9FF04C0F3FF055010
:1040200044EC41F00050050F036E000E0120046EB9
:10403000000E0220056E040EE56E03C0E9FF04C009
:10404000F3FF055044EC41F00050080F036E000EE2
:104050000120046E000E0220056E0E0E076E2D0E5E
:10406000066E800E086E000EE56E060EE56E0850B8
:10407000E56E0750E56E0650E56E0550E56E04509E
:10408000E56E0350E56EAEEC2FF0080EE126005011
:104090000E0F036E000E0120046E000E0220056E4E
:1040A00000CE06F001CE07F002CE08F003CE09F0F4
:1040B00006C0E5FF07C0F4FF08C0F6FF09C0F7FF20
:1040C00003C0E9FF04C0F3FF0550B2EC40F002501A
:1040D000E56E0150E56E0050E56E56EC28F0030EDB
:1040E000E1260050120F036E000E0120046E000E38
:1040F0000220056E000EE56E1C0EE56E060EE56EE6
:104100000550E56E0450E56E0350E56EB6EC27F001
:10411000060EE126000EE56E1C0EE56E0250E56E01
:104120000150E56E0050E56E2BEC37F0050EE126F0
:104130000EEC3CF0010EE4CF09F0E4CF08F0E4CF40
:1041400007F0E4CF06F0E4CF05F0E4CF04F0E4CFCD
:1041500003F0E4CF02F0E4CF01F0E4CF00F0E4CFCD
:10416000D9FF1200D9CFE5FFE1CFD9FF00C0E5FFAD
:1041700001C0E5FF02C0E5FF03C0E5FF04C0E5FFA5
:1041800005C0E5FF06C0E5FF07C0E5FF08C0E5FF85
:10419000020EDBCF00F0030EDBCF01F0040EDBCF0D
:1041A00002F0050EDBCF03F0060EDBCF04F0070EA6
:1041B000DBCF05F0140E0A018A6F450E0801956FDA
:1041C0000801966B140E0426D8B0052A0450080185
:1041D000976F05500801986F08015E2B02E30801F4
:1041E0005F2B08015E510801996F08015F510801BA
:1041F0009A6F08019B6B08019C6B640E08019D6F10
:10420000035008019E6F08019F6B0801A06B0E010F
:1042100000510801A16F0E0101510801A26F0E01AA
:1042200002510801A36F0E0103510801A46F00C0E1
:10423000E9FF01C0F3FF025010EC3FF0036EF3CF33
:1042400006F0F4CF07F0E9CF08F003500801A56F9E
:1042500006500801A66F07500801A76F0850080113
:10426000A86F080E066E950E036E800E076E07503F
:10427000E56E0650E56E0350E56EC1EC25F0030EC9
:10428000E126080E066E950E036E800E076E000E78
:10429000E56E140EE56E0750E56E0650E56E0350B0
:1042A000E56E7CEC0FF0036EF3CF06F0050EE12611
:1042B000035008019F6F06500801A06F040E0026EE
:1042C000000E0122000E02220550E56E0450E56E3C
:1042D000000EE56E0250E56E0150E56E0050E56E91
:1042E000B6EC27F0060EE126080E016E950E006E64
:1042F000800E026E000EE56E140EE56E0250E56E45
:104300000150E56E0050E56E2BEC37F0050EE1260E
:10431000F36AE86AE4CF08F0E4CF07F0E4CF06F0F0
:10432000E4CF05F0E4CF04F0E4CF03F0E4CF02F0F3
:10433000E4CF01F0E4CF00F0E4CFD9FF1200D9CFF1
:10434000E5FFE1CFD9FF00C0E5FF01C0E5FF02C0F6
:10435000E5FF03C0E5FF04C0E5FF05C0E5FF06C0BB
:10436000E5FF07C0E5FF08C0E5FF09C0E5FF0AC09B
:10437000E5FF0BC0E5FF0CC0E5FF0DC0E5FF020E39
:10438000DBCF00F0030EDBCF01F0040EDBCF02F039
:10439000050EDBCF03F0100E046E056A066A076A8D
:1043A000040E055CD8B081D000C008F001C009F04F
:1043B00002C00AF003C00BF0065011E009E6E86CF9
:1043C000D8900B320A3209320832010FFAE307D0D3
:1043D000D890083609360A360B36010FFAE3096A17
:1043E0000A0EE56E080EE56EF90EE56E0950E56EF3
:1043F0000850E56E9FEC3BF0050EE12604C008F086
:10440000096A080E0B6EF90E0A6E800E0C6E0C50C7
:10441000E56E0B50E56E0A50E56E6EEC3AF00A6EF2
:10442000F3CF0BF0030EE12609C00CF00D6A0D501E
:10443000800FF36E0B50800FF35C02E10A500C5CAE
:104440001CE208C00AF0082A0B6A330E0A260E0E78
:104450000B22F90E09240C6E0D6A080E0D220CC0F9
:10446000E9FF0DC0EAFFEFCF0CF00AC0E9FF0BC077
:10447000EAFF0CC0EFFF092AC4D708C004F00550BA
:10448000030A13E00828046E096A330E08260E0E8C
:10449000092208C0E9FF09C0EAFF2E0EEF6E080EE0
:1044A0000626D8B0072A052A7BD704C000F0016A87
:1044B000000E015C02E1200E005C0BE2006A330E8C
:1044C00004260E0E002204C0E9FF00C0EAFF000E21
:1044D000EF6E42EC3EF0E4CF0DF0E4CF0CF0E4CF11
:1044E0000BF0E4CF0AF0E4CF09F0E4CF08F0E4CF1A
:1044F00007F0E4CF06F0E4CF05F0E4CF04F0E4CF1A
:1045000003F0E4CF02F0E4CF01F0E4CF00F0E4CF19
:10451000D9FF1200D9CFE5FFE1CFD9FF00C0E5FFF9
:1045200001C0E5FF02C0E5FF03C0E5FF04C0E5FFF1
:1045300005C0E5FF06C0E5FF07C0E5FF08C0E5FFD1
:1045400009C0E5FF0AC0E5FF0BC0E5FF0CC0E5FFB1
:104550000DC0E5FF0EC0E5FF0FC0E5FF020EDBCF8B
:1045600000F0030EDBCF01F0040EDBCF02F0050EEE
:10457000DBCF03F0060EDBCF04F0070EDBCF05F038
:10458000080EDBCF06F0200E076E086A06C009F0A1
:104590000A6A0B6A0C6AE56AE56AE56A0950E56E23
:1045A0000350E56E0250E56E0150E56E0050E56E79
:1045B0002DEC2AF00D6E080EE126300E0D263A0E77
:1045C0000D5C02E3270E0D26FF0E0726D8A0080675
:1045D000400E07240E6E0F0E08200F6E0EC0E9FF6E
:1045E0000FC0EAFF0DC0EFFF0C50E56E0B50E56EFB
:1045F0000A50E56E0950E56E0350E56E0250E56E17
:104600000150E56E0050E56E6BEC2CF0006EF3CFC0
:1046100001F0F4CF02F0E9CF03F0080EE1260050DC
:10462000011002100310D8A4B1D707C000F008C0D1
:1046300001F004C002F005C003F000C004F001C0A6
:1046400005F0002AD8B0012A400E04260F0E0522DC
:1046500004C0E9FF05C0EAFFEFCF04F002C0E9FFA4
:1046600003C0EAFF04C0EFFF022AD8B0032A000EFD
:10467000015C02E1200E005CE0E302C0E9FF03C040
:10468000EAFF000EEF6AE4CF0FF0E4CF0EF0E4CFC4
:104690000DF0E4CF0CF0E4CF0BF0E4CF0AF0E4CF60
:1046A00009F0E4CF08F0E4CF07F0E4CF06F0E4CF60
:1046B00005F0E4CF04F0E4CF03F0E4CF02F0E4CF60
:1046C00001F0E4CF00F0E4CFD9FF1200D9CFE5FF2D
:1046D000E1CFD9FF00C0E5FF01C0E5FF02C0E5FF63
:1046E00003C0E5FF04C0E5FF05C0E5FF06C0E5FF28
:1046F00007C0E5FF08C0E5FF09C0E5FF020EDBCFFC
:1047000000F0030EDBCF01F0040EDBCF02F0050E4C
:10471000DBCF03F0060EDBCF04F0070EDBCF05F096
:104720000801605102E1E86893D06BEC3FF0066E3F
:10473000065002E0FE0E8CD004017951E56E0401B2
:104740007851E56E000EE56E220EE56EF5EC35F063
:10475000066EF3CF07F0040EE126000E0624086E65
:10476000030E0720096E08C0E9FF09C0EAFFEFCF7A
:1047700008F008C0E5FF00C0E9FF01C0F3FF0250E8
:1047800044EC41F0000E0626030E0722062AD8B09C
:10479000072A0750076E0650066E800E006E000E48
:1047A000E56E210EE56E0050E56E0750E56E065091
:1047B000E56E0550E56E0450E56E0350E56EB3EC12
:1047C0001EF0080EE12678C400F079C401F0015013
:1047D000E56E0050E56E000EE56E220EE56EF5EC1E
:1047E00035F0026EF3CF03F0040EE126000E022432
:1047F000046E030E0320056E04C0E9FF05C0EAFF46
:10480000000EEF6E000E0226030E0322022AD8B01D
:10481000032A02C0E9FF03C0EAFF000EEF6E002A80
:10482000D8B0012A000EE56E0B0EE56E0150E56E64
:104830000050E56EEFEC34F0006EF3CF01F0040EA3
:10484000E12600500401786F01500401796FE86A95
:10485000E4CF09F0E4CF08F0E4CF07F0E4CF06F0AE
:10486000E4CF05F0E4CF04F0E4CF03F0E4CF02F0AE
:10487000E4CF01F0E4CF00F0E4CFD9FF1200D9CFAC
:10488000E5FFE1CFD9FF00C0E5FF01C0E5FF02C0B1
:10489000E5FF03C0E5FF04C0E5FF05C0E5FF06C076
:1048A000E5FF07C0E5FF020EDBCF00F0030EDBCF14
:1048B00001F0040EDBCF02F0050EDBCF03F0060E95
:1048C000DBCF04F00A0E066E1C0E056E800E076E1E
:1048D000000EE56E040EE56E0750E56E0650E56EBF
:1048E0000550E56E0EEC32F0050EE1260A011C5172
:1048F000080A03E10A011D5101E07ED00450E56E73
:104900000350E56E000EE56E140EE56EDDEC2BF047
:10491000056EF3CF06F0040EE1260550061001E007
:104920006BD00A011C6B080E0A011E25056E05508E
:104930000A011E6F1ECA06F0076A000E075C02E13C
:10494000080E055C0DE21FCA05F0052A05500A0194
:104950001F6F0A011F5104E1062A06500A011E6F4B
:10496000EDEC3AF0056E0550FBE01A0EE56E190EFF
:10497000E56EAAEC39F0020EE1260450E56E035014
:10498000E56E010EE56E0250E56E0150E56E0050D9
:10499000E56EB2EC20F0060EE1260A0E016E1C0E4A
:1049A000006E800E026E000EE56E040EE56E025083
:1049B000E56E0150E56E0050E56E2BEC37F0050E0C
:1049C000E126FC0E0326D8A004060450E56E035031
:1049D000E56EFF0EE56EFF0EE56EFF0EE56EFF0E57
:1049E000E56E36EC0CF0060EE126E6EC3FF0006ECC
:1049F0000050FBE00EEC3CF0E4CF07F0E4CF06F013
:104A0000E4CF05F0E4CF04F0E4CF03F0E4CF02F00C
:104A1000E4CF01F0E4CF00F0E4CFD9FF1200D9CF0A
:104A2000E5FFE1CFD9FF00C0E5FF01C0E5FF02C00F
:104A3000E5FF03C0E5FF04C0E5FF05C0E5FF06C0D4
:104A4000E5FF07C0E5FF08C0E5FF09C0E5FF0AC0B4
:104A5000E5FF020EDBCF00F0030EDBCF01F0040E0A
:104A6000DBCF02F0050EDBCF03F0060EDBCF04F048
:104A7000070EDBCF05F075CE06F076CE07F077CEC9
:104A800008F078CE09F000C0E9FF01C0F3FF025042
:104A900010EC3FF0006EF3CF01F0F4CF02F0E9CF5D
:104AA0000AF00650001809E10750011806E1085005
:104AB000021803E109500A182EE006500E010819E9
:104AC0000CE107500E01091908E108500E010A19FE
:104AD00004E109500E010B1901E039D00E0100511B
:104AE000001A0E010151011A0E010251021A0E01A3
:104AF00003510A1A0E01045100160E010551011648
:104B00000E01065102160E0107510A16005001103F
:104B100002100A101CE00E0E016E790E006E800E5F
:104B2000026E000EE56E060EE56E0250E56E015057
:104B3000E56E0050E56E0550E56E0450E56E0350DD
:104B4000E56EAEEC2FF0080EE126010E01D0E86A0A
:104B5000E4CF0AF0E4CF09F0E4CF08F0E4CF07F0A7
:104B6000E4CF06F0E4CF05F0E4CF04F0E4CF03F0A7
:104B7000E4CF02F0E4CF01F0E4CF00F0E4CFD9FFBE
:104B80001200D9CFE5FFE1CFD9FF00C0E5FF01C09A
:104B9000E5FF02C0E5FF03C0E5FF04C0E5FF05C077
:104BA000E5FF06C0E5FF07C0E5FF020EDBCF00F022
:104BB000030EDBCF01F0040EDBCF02F00050020F3A
:104BC000036E000E0120046E000E0220056E03C06D
:104BD000E9FF04C0F3FF0550D0EC3FF0066EF3CFC1
:104BE00007F00750E56E0650E56E54EC3DF0066E9A
:104BF000F3CF07F0020EE12606C0E5FF07C0F4FF81
:104C000003C0E9FF04C0F3FF055024EC41F000505D
:104C1000040F036E000E0120046E000E0220056ECC
:104C200003C0E9FF04C0F3FF0550D0EC3FF0066E6F
:104C3000F3CF07F00750E56E0650E56E54EC3DF0FB
:104C4000066EF3CF07F0020EE12606C0E5FF07C0AF
:104C5000F4FF03C0E9FF04C0F3FF055024EC41F06A
:104C60000A0E0026000E0122000E022200C0E9FFFB
:104C700001C0F3FF0250D0EC3FF0036EF3CF04F01D
:104C80000450E56E0350E56E54EC3DF0036EF3CF37
:104C900004F0020EE12603C0E5FF04C0F4FF00C0EB
:104CA000E9FF01C0F3FF025024EC41F0E4CF07F02C
:104CB000E4CF06F0E4CF05F0E4CF04F0E4CF03F056
:104CC000E4CF02F0E4CF01F0E4CF00F0E4CFD9FF6D
:104CD00012004EEC3FF0FDEC40F026EC2FF0E2EC41
:104CE00038F0BAEC3FF030EC3FF038EC40F0100E0A
:104CF000006E980E016E020E026E036A00C004F090
:104D000001C005F002C006F003C007F0FF0E002648
:104D1000FF0E0122FF0E0222FF0E03220450051097
:104D200006100710EBE1000EE56E790EE56E400E01
:104D3000E56E000EE56E5EEC33F0040EE126EFEC5E
:104D40003EF0006EF3CF01F0F4CF02F0E9CF03F0B4
:104D500008015451005C046E080155510158056E5C
:104D6000080156510258066E080157510358076E44
:104D7000000E075C08E1000E065C05E1000E055C14
:104D800002E1270E045C15E300C054F801C055F899
:104D900002C056F803C057F8006A91B0002A010E0D
:104DA000001A0050010BF46E9150FE0BF410916E3E
:104DB0000400E5EC0DF084EC2DF000CE00F001CE07
:104DC00001F002CE02F003CE03F0080158510018A2
:104DD0000DE108015951011809E108015A51021861
:104DE00005E108015B51031801E1A9D700C058F89B
:104DF00001C059F802C05AF803C05BF808015B51C2
:104E0000E56E08015A51E56E08015951E56E080139
:104E10005851E56E9FEC21F0040EE12690D7120068
:104E2000D9CFE5FFE1CFD9FF00C0E5FF01C0E5FF25
:104E300002C0E5FF03C0E5FF04C0E5FF05C0E5FFD4
:104E400006C0E5FF07C0E5FF020EDBCF00F00B0E4A
:104E50007A6E1A0E7B6E0F0E026E000E016E800EC1
:104E6000036E000EE56E400EE56E0350E56E0250D7
:104E7000E56E0150E56E0EEC32F0050EE126D8909D
:104E80000036016A026A036A100E015CD8B057D07E
:104E900000500124046E056A000E04260F0E052240
:104EA00004C0E9FF05C0EAFFEFCF04F004380F0BA0
:104EB000046E0F0E0416330E0224056E066A0E0EE3
:104EC00006220A0E045C03E2300E076E02D0410E89
:104ED000076E0450072605C0E9FF06C0EAFF07C0B9
:104EE000EFFF00500124056E066A000E05260F0E26
:104EF000062205C0E9FF06C0EAFFEFCF05F00F0E5E
:104F00000514046E0328056E066A330E05260E0E80
:104F100006220A0E045C03E2300E076E02D0410E38
:104F2000076E0750042605C0E9FF06C0EAFF04C06B
:104F3000EFFF022A022A032A032A012AA5D70E011B
:104F4000536B42EC3EF0E4CF07F0E4CF06F0E4CF41
:104F500005F0E4CF04F0E4CF03F0E4CF02F0E4CFB7
:104F600001F0E4CF00F0E4CFD9FF1200D9CFE5FF84
:104F7000E1CFD9FF00C0E5FF01C0E5FF02C0E5FFBA
:104F800003C0E5FF04C0E5FF05C0E5FF06C0E5FF7F
:104F900007C0E5FF08C0E5FF09C0E5FF020EDBCF53
:104FA00000F0030EDBCF01F0040EDBCF02F0050EA4
:104FB000DBCF03F0060EDBCF04F0070EDBCF05F0EE
:104FC0000B0E0E01E26F1A0E0E01E36F04C006F025
:104FD00005C007F0086A096A180E06261A0E07228D
:104FE000000E0822000E09220650046E0750056EBE
:104FF0000450066E076A06500E01E66F0550046EF7
:10500000056A056A04500E01E76F000EE56E060E94
:10501000E56E0250E56E0150E56E0050E56E2BEC3A
:1050200037F0050EE1260E0E016E2D0E006E800E7D
:10503000026E000EE56E060EE56E0250E56E015042
:10504000E56E0050E56E2BEC37F0050EE126080EFC
:10505000E56E30EC41F0E12A0350D880E866D89044
:10506000036A0336035003E0006A016A03D0060EA8
:10507000006E016A0050E56E30EC41F0E12AE4CFA9
:1050800009F0E4CF08F0E4CF07F0E4CF06F0E4CF76
:1050900005F0E4CF04F0E4CF03F0E4CF02F0E4CF76
:1050A00001F0E4CF00F0E4CFD9FF1200D9CFE5FF43
:1050B000E1CFD9FF00C0E5FF01C0E5FF02C0E5FF79
:1050C00003C0E5FF04C0E5FF05C0E5FF06C0E5FF3E
:1050D00007C0E5FF020EDBCF00F0030EDBCF01F0CF
:1050E000040EDBCF02F000C0E9FF01C0F3FF025065
:1050F000D0EC3FF0036EF3CF04F00450E56E0350A4
:10510000E56E54EC3DF0036EF3CF04F0020EE126A1
:1051100003C0E5FF04C0F4FF00C0E9FF01C0F3FFD6
:10512000025024EC41F00050020F036E000E0120EB
:10513000046E000E0220056E03C0E9FF04C0F3FFF9
:105140000550D0EC3FF0066EF3CF07F00750E56E48
:105150000650E56E54EC3DF0066EF3CF07F0020EFC
:10516000E12606C0E5FF07C0F4FF03C0E9FF04C065
:10517000F3FF055024EC41F0060E0026000E01223C
:10518000000E022200C0E9FF01C0F3FF0250D0EC84
:105190003FF0036EF3CF04F00450E56E0350E56E6C
:1051A00054EC3DF0036EF3CF04F0020EE12603C091
:1051B000E5FF04C0F4FF00C0E9FF01C0F3FF0250A7
:1051C00024EC41F0E4CF07F0E4CF06F0E4CF05F0A3
:1051D000E4CF04F0E4CF03F0E4CF02F0E4CF01F039
:1051E000E4CF00F0E4CFD9FF1200D9CFE5FFE1CF43
:1051F000D9FF00C0E5FF01C0E5FF02C0E5FF03C025
:10520000E5FF04C0E5FF05C0E5FF06C0E5FF07C0F8
:10521000E5FF020EDBCF00F0030EDBCF01F0040E42
:10522000DBCF02F0010E0801226F0801236B080199
:105230002E6908012F6908013069080131690801E8
:1052400032690801336900C0E9FF01C0F3FF025071
:1052500010EC3FF0006EF3CF01F0F4CF02F0E9CF95
:1052600003F000500E010019046E01500E010119E7
:10527000056E02500E010219066E03500E0103194D
:10528000076E0E01045104160E01055105160E019C
:10529000065106160E010751071604500510061098
:1052A000071009E008CE04F009CE05F00ACE06F09A
:1052B0000BCE07F008D000C004F001C005F002C01A
:1052C00006F003C007F004500801346F05500801D0
:1052D000356F06500801366F07500801376F080E0A
:1052E000016E1C0E006E800E026E0250E56E0150C3
:1052F000E56E0050E56EB3EC1FF0030EE126E4CF3F
:1053000007F0E4CF06F0E4CF05F0E4CF04F0E4CFFB
:1053100003F0E4CF02F0E4CF01F0E4CF00F0E4CFFB
:10532000D9FF1200D9CFE5FFE1CFD9FF00C0E5FFDB
:1053300001C0E5FF02C0E5FF03C0E5FF04C0E5FFD3
:1053400005C0E5FF06C0E5FF07C0E5FF020EDBCFA5
:1053500000F0030EDBCF01F0040EDBCF02F0050EF0
:10536000DBCF03F00801605102E1E86863D0ECECA8
:1053700039F0046E045002E0FE0E5CD00401775157
:10538000E56E04017651E56E000EE56E220EE56EC7
:10539000F5EC35F0046EF3CF05F0040EE126000EB7
:1053A0000424066E030E0520076E06C0E9FF07C041
:1053B000EAFF00C0EFFF000E0426030E0522042AB8
:1053C000D8B0052A0550056E0450046E800E006E9C
:1053D000000EE56E210EE56E0350E56E0250E56E9F
:1053E0000150E56E0050E56E0550E56E0450E56E27
:1053F000B3EC1EF0080EE12604017651010F006E99
:10540000000E04017721016E000EE56E0B0EE56EB5
:105410000150E56E0050E56EEFEC34F0006EF3CF16
:1054200001F0040EE12600500401766F01500401E2
:10543000776FE86AE4CF07F0E4CF06F0E4CF05F039
:10544000E4CF04F0E4CF03F0E4CF02F0E4CF01F0C6
:10545000E4CF00F0E4CFD9FF1200D9CFE5FFE1CFD0
:10546000D9FF00C0E5FF01C0E5FF02C0E5FF03C0B2
:10547000E5FF04C0E5FF05C0E5FF06C0E5FF07C086
:10548000E5FF08C0E5FF09C0E5FF0AC0E5FF020E21
:10549000DBCF00F0030EDBCF01F0040EDBCF02F018
:1054A000050EDBCF03F0060EDBCF04F0070EDBCFDB
:1054B00005F0080EDBCF06F0090EDBCF07F0086A17
:1054C000096A0744010B0A6E0AB01BD00450042677
:1054D0000536063607360750035C08E10650025CC5
:1054E00005E10550015C02E10450005C06E2D89041
:1054F000073206320532043204D0092A09C008F006
:10550000E0D70750035C08E10650025C05E1055056
:10551000015C02E10450005C08E30450005E0550A9
:10552000015A0650025A0750035AD89007320632E1
:105530000532043208C009F008060950E2E103C050
:10554000E9FF02C0F4FF01C0F3FF0050E4CF0AF00E
:10555000E4CF09F0E4CF08F0E4CF07F0E4CF06F0A1
:10556000E4CF05F0E4CF04F0E4CF03F0E4CF02F0A1
:10557000E4CF01F0E4CF00F0E4CFD9FF1200D9CF9F
:10558000E5FFE1CFD9FF00C0E5FF01C0E5FF02C0A4
:10559000E5FF03C0E5FF04C0E5FF05C0E5FF020E1F
:1055A000DBCF00F0030EDBCF01F0040EDBCF02F007
:1055B000036A046A0A0EE56E080EE56EED0EE56EEE
:1055C0000450E56E0350E56E0250E56E0150E56E45
:1055D0008AEC22F0070EE126016A080E036EED0E3A
:1055E000026E800E046E0450E56E0350E56E0250AC
:1055F000E56E6EEC3AF0026EF3CF03F0030EE12697
:1056000001C004F0056A0550800FF36E0350800F4F
:10561000F35C02E10250045C1CE200C002F0002ACC
:10562000036A330E02260E0E0322ED0E0124046ED1
:10563000056A080E052204C0E9FF05C0EAFFEFCFA6
:1056400004F002C0E9FF03C0EAFF04C0EFFF012A33
:10565000C4D700C001F0026A000E025C02E1200E15
:10566000015C0BE2016A330E00260E0E012200C01F
:10567000E9FF01C0EAFF000EEF6E42EC3EF0E4CF1E
:1056800005F0E4CF04F0E4CF03F0E4CF02F0E4CF80
:1056900001F0E4CF00F0E4CFD9FF1200D9CFE5FF4D
:1056A000E1CFD9FF00C0E5FF01C0E5FF02C0E5FF83
:1056B00003C0E5FF04C0E5FF05C0E5FF06C0E5FF48
:1056C00007C0E5FF08C0E5FF09C0E5FF0AC0E5FF28
:1056D0000BC0E5FF020EDBCF00F0030EDBCF01F0C5
:1056E000040EDBCF02F0050EDBCF03F0060EDBCF9E
:1056F00004F0070EDBCF05F0080EDBCF06F0076ADB
:10570000086A0450085C02E10350075C3BE2055064
:1057100006101EE007500024096E085001200A6E92
:10572000E86A02200B6E09C0E9FF0AC0F3FF0B50C4
:1057300081EC40F0096E09500BE1000EE56E7F0E22
:10574000E56E9C0EE56E29EC3BF0030EE12616D0CB
:1057500007500024096E085001200A6EE86A0220F2
:105760000B6E09C0E9FF0AC0F3FF0B5081EC40F05B
:10577000096E0950E56E5EEC40F0E12A072AD8B0C8
:10578000082ABFD7E4CF0BF0E4CF0AF0E4CF09F04A
:10579000E4CF08F0E4CF07F0E4CF06F0E4CF05F063
:1057A000E4CF04F0E4CF03F0E4CF02F0E4CF01F063
:1057B000E4CF00F0E4CFD9FF1200D9CFE5FFE1CF6D
:1057C000D9FF00C0E5FF01C0E5FF02C0E5FF03C04F
:1057D000E5FF04C0E5FF05C0E5FF06C0E5FF07C023
:1057E000E5FF020EDBCF00F0030EDBCF01F0040E6D
:1057F000DBCF02F0050EDBCF03F00A014A51140F94
:10580000046E000E0A014B21056E0450002605505F
:10581000012200C004F001C005F0066A076A000E0C
:10582000075C08E1000E065C05E11A0E055C02E16A
:105830000A0E045C0CE3F60E0426E50E0522FF0EAC
:105840000622FF0E07220450006E0550016E7BCF2A
:1058500004F0056A0450076E066A7ACF04F0056A00
:1058600004500612055007120050046E056A0450D9
:105870007A6E0150046E056A056A04507B6E03500F
:10588000E56E0250E56EF8EC06F0006EF3CF01F025
:10589000020EE1260650026E036A02507A6E07502D
:1058A000066E076A076A06507B6E01C0F3FF005060
:1058B000E4CF07F0E4CF06F0E4CF05F0E4CF04F046
:1058C000E4CF03F0E4CF02F0E4CF01F0E4CF00F046
:1058D000E4CFD9FF1200D9CFE5FFE1CFD9FF00C057
:1058E000E5FF01C0E5FF02C0E5FF03C0E5FF04C01E
:1058F000E5FF05C0E5FF06C0E5FF07C0E5FF08C0FE
:10590000E5FF09C0E5FF0AC0E5FF0BC0E5FF0CC0DD
:10591000E5FF0DC0E5FF020EDBCF00F0030EDBCF8D
:1059200001F0040EDBCF02F0050EDBCF03F0060E14
:10593000DBCF04F0070EDBCF05F0080EDBCF06F05F
:10594000090EDBCF07F0086A096A0A6A0B6A200EA3
:105950000C6E0344010B0D6E010E0D160050002657
:105960000136023603360850082609360A360B3649
:105970000D50D8A4088007500B5C08E106500A5C63
:1059800005E10550095C02E10450085C09E304509C
:10599000085E0550095A06500A5A07500B5A0080F3
:1059A0000C2ED7D703C0E9FF02C0F4FF01C0F3FFFC
:1059B0000050E4CF0DF0E4CF0CF0E4CF0BF0E4CFD7
:1059C0000AF0E4CF09F0E4CF08F0E4CF07F0E4CF29
:1059D00006F0E4CF05F0E4CF04F0E4CF03F0E4CF29
:1059E00002F0E4CF01F0E4CF00F0E4CFD9FF1200E1
:1059F000D9CFE5FFE1CFD9FF929092920E01FE8BB5
:105A00000E01FDA1FDD7010E0A01876F0A01486B47
:105A10000A01496B0E01E86B0E01E96B090E0E01DC
:105A2000EC6F1A0E0E01ED6F090E0E01EA6F1A0EE1
:105A30000E01EB6F0A0E0E01E46F1A0E0E01E56FF8
:105A40000A0E0E01E26F1A0E0E01E36F616A0D0E6F
:105A50000E01A06F0000320E0E01A26F0000120EA8
:105A60000E01A46F0000400E0E01A36F0000120E85
:105A70000E01A66F00000C0E0E01A76F0000EE0EC7
:105A80000E01AA6F0000050E0E01AB6F00002DCEB7
:105A900084FE00002ECE85FE00002FCE82FE000088
:105AA00030CE83FE000031CE80FE000032CE81FE7B
:105AB0000000010EE56E100EE56E100EE56ECFECE7
:105AC0003DF0030EE126340EE56E720EE56E140E07
:105AD000E56ECFEC3DF0030EE126000EE56E000E04
